:0A0000000C94A9010C9400000C946C
:10000A0000000C9400000C9400000C9400000C9466
:10001A0000000C9400000C9400000C9400000C9456
:10002A0000000C9400000C9400000C9400000C9446
:10003A0000000C9400000C9426020C9400000C940E
:10004A0000000C9400000C9400000C9400000C9426
:10005A0000000C9400000C9400000C9400000C9416
:10006A0000000C9400000C9400000C9400000C9406
:10007A0000000C9400000C9400000C9400000C94F6
:10008A00000005072060000000000000005F00007B
:10009A000007000700147F147F14242A7F2A1223E2
:1000AA001308646236495522500005030000001CFB
:1000BA002241000041221C00082A1C2A0808083E86
:1000CA00080800503000000808080808003030000E
:1000DA000020100804023E5149453E00427F40007C
:1000EA0042615149462141454B311814127F10276C
:1000FA00454545393C4A49493001710905033649A4
:10010A00494936064949291E003636000000563646
:10011A000000000814224114141414144122140873
:10012A00000201510906324979413E7E1111117EC0
:10013A007F494949363E414141227F4141221C7F44
:10014A00494949417F090901013E414151327F082C
:10015A0008087F00417F41002040413F017F081489
:10016A0022417F404040407F0204027F7F04081002
:10017A007F3E4141413E7F090909063E4151215EC8
:10018A007F09192946464949493101017F01013F41
:10019A004040403F1F2040201F7F2018207F6314CB
:1001AA000814630304780403615149454300007F3E
:1001BA004141020408102041417F0000040201026B
:1001CA000440404040400001020400205454547846
:1001DA007F484444383844444420384444487F38AB
:1001EA0054545418087E090102081454543C7F08D8
:1001FA0004047800447D40002040443D00007F1004
:10020A00284400417F40007C041804787C080404D8
:10021A007838444444387C14141408081414187C9C
:10022A007C080404084854545420043F4440203CA9
:10023A004040207C1C2040201C3C4030403C44284C
:10024A001028440C5050503C4464544C4400083626
:10025A00410000007F00000041360800020102044C
:10026A00027F4141417F000103070F1F3F7FFF00CB
:10027A001027E80364000A000100001000011000C2
:10028A00010000000000000004000000010002005C
:10029A0003000400050006000700080050415353FC
:1002AA00574F52443F0050415353574F52443F20F7
:1002BA00004E4F3F006B686F612074686965742057
:1002CA006269004B686F61207468696574206269AD
:1002DA00005041535345440001002D4E414E004900
:1002EA004E46000080C0080004008C0211009205EE
:1002FA0094020A000005A6020B000A05B0020A00D1
:10030A001505A6020A001F05A6020A002905A6026B
:10031A000A003305A6020A003D05A60204004705A5
:10032A00BB020E004B05BF020E005905CD020700A5
:10033A006705DB0207006E05DB020100B207E20275
:10034A000200B607EE020000F894EE27ECBBF1E0DB
:10035A00F5BFE5BFE0936C008DE0A2E0BB27ED930B
:10036A008A95E9F780E090E1A0E0B1E0ED9301978A
:10037A00E9F7E0EFF2E085919591009761F0A59198
:10038A00B59105901590BF01F00105900D92019766
:10039A00E1F7FB01F0CF8BBFEFEFEDBFE0E1EEBF7E
:1003AA00C0E0D5E00C949E03EAEEE0936100BC9AAB
:1003BA00A79ABD9AE3E8E6B908950E94090B30E0CE
:1003CA003330A0F5303019F4EDEFE09362003130AC
:1003DA0019F4E7EFE0936200323019F4EFEDE0939D
:1003EA00620000E0033000F5003041F4E0B1E4704F
:1003FA001E2F143019F00E94B509B1C0013041F422
:10040A00E0B1E0711E2F103119F00E94B509A7C0A2
:10041A00023041F4E0B1E1701E2F113019F00E9450
:10042A00B5099DC00F5FDECF3F5FCACFEFEFFFEF89
:10043A000E94100B94C0A0E10E9404090E94C40803
:10044A0008950A92EA93FA93EFB7EA93E6E0E2BFD5
:10045A008A149B04BCF0E0EDF7E0E615F70511F409
:10046A0066247724062C072811F49498959AE8EEC6
:10047A00F3E0E615F70511F49598949AF30131968D
:10048A003F0102C094989598E991EFBFF991E991DB
:10049A00099018950E94C609AE81BF810E943C0846
:1004AA00AA81BB81AF3FEFEFBE0741F0EA81FB8132
:1004BA000E94DF09A4EAB5E00E943C080C944C05AE
:1004CA000E94C609A885B9850E943C08AC81BD81F5
:1004DA00AF3FEFEFBE0741F0EA81EA93EEE1EA931C
:1004EA00AE81BF810E943C08289608950E94C609E1
:1004FA00AA85BB850E943C08AE81BF81AF3FEFEF62
:10050A00BE0781F0EE81FF810E94DF09AC81BD81C7
:10051A000E943C08EC81EA93EEE1EA93A4EAB5E092
:10052A000E943C0804C1BA93AA930E94E909AA81CD
:10053A00BB810E94E708E0E0EA93A1E00E94B808C4
:10054A00A881B981AC910E94D008E881F981A18182
:10055A000E94D008E881F981A2810E94D0082496DD
:10056A0008952497E6E7EA83E0E0EB830E94070B0D
:10057A000E94F009A0E0B0E00E94DA0AEE83FF834D
:10058A00AE81BF81A436E0E0BE0720F0A83EE3E0DA
:10059A00BE0708F004C0EE81FF81E887F987882446
:1005AA009924E885F985E417F50709F4A8C0269780
:1005BA00E0E2EB83E883EC83E983ED83EA83E0E01E
:1005CA00F5E0FA93EA93EFEFFFEF0E94F70962DF93
:1005DA000E94E909AAE0B5E00E94E7080E94FD0925
:1005EA00E3E0F0E0E017F10709F454C0E6DE9F010A
:1005FA00A8ECB0E00E94AF0AEFEFFFEFE217F307B3
:10060A0009F447C00F5F1F4FAAE0A49FF001A59FFE
:10061A00F00DE20FF31FAF010E94030AE22FE05D23
:10062A00EC93E5E1F5E00E94090A4ADFEFE1F5E023
:10063A00FA93EA933A932A93F80131970E94C90AE6
:10064A007E96E00FF11FFA93EA93FE0139960E9413
:10065A00F7094CDFE9E2F5E00E94120AF801319746
:10066A00DE011396AE0FBF1FEAE2EC930E94030A63
:10067A00EAE2EC93A4EFB1E00E94AF0AE3E3F5E00B
:10068A000E94120AEDE3F5E00E94090A19DF2FEF32
:10069A003FEFA6CFEE85FF85E417F507C1F0A2D19B
:1006AA00EFE0EA93E4E1EA93A7E4B5E00E943C08AC
:1006BA000E94C408ABEBB2E00E94F2080E94F00963
:1006CA00A0E2B3E00E94AF0AF40131964F01A814E8
:1006DA00B90499F4A39AAB9A85D1EFE0EA93E5E0DD
:1006EA00EA93ABE4B5E00E943C080E94E909A9E557
:1006FA00B5E00E94E708269618C0269652CF4424F1
:10070A005524A4EFB1E00E94AF0A6CD1AB98EFE098
:10071A00EA93E4E1EA93A7E6B5E00E943C080E9466
:10072A00E909AEE6B5E00E94E7080E940E0B2A9698
:10073A000895289700E010E040E050E0ECE8F0E08F
:10074A00E883F983EE81EC7FEE83E37EE061EE835A
:10075A00EF81E078E264EF83DE019DD06CDE24DE77
:10076A008D9A8C9AE0E0E0BFE3E0E3BFE6E0E2BF07
:10077A00E0E0E1BFE1E0E7BFE0E0E0937D007894EC
:10078A00A0E0B0E0ECE6F0E00E94EA0AEADEACEDB6
:10079A00B5E00E94AF0AFFCFFFCF0895AA931A933C
:1007AA00E0916500EF7EE093650018E0F6DFE981ED
:1007BA00E07821F0E0916500E26003C0E091650015
:1007CA00ED7FE0936500E981EE0FE983E6DFE091D2
:1007DA006500E460E0936500E0DFE0916500EB7F8F
:1007EA00E0936500115011F7E0916500E061E09334
:1007FA00650018810C944D09AA93E0916500EE7F7B
:10080A00E0936500A881CADF0C943209AA93E091AB
:10081A006500E160E0936500A881C0DF0C943209AD
:10082A00AA931A93E981E695E695E6951E2FE4E5E3
:10083A00E19FF001DF01EA81F0E0EA0FFB1FE0939C
:10084A00B805F093B905E12F18810C949409AA937D
:10085A00E981E068AE2FD0DFE981EA93A981E0DF80
:10086A00E064AE2FC9DF0C944D09AA93E981EA939B
:10087A00A981EDDFE091B805F091B905E654FA4F88
:10088A00E0810C944D09AA930E941E0AA881A083B4
:10089A00BDDF0C943209BA93AA930E94090BE09126
:1008AA006400E0610E94290AE061E0936500E0913A
:1008BA006400E4600E94290AEB7FE0936500E091FE
:1008CA006400E260E0936400E0916400E160E09318
:1008DA006400E0916400E8600E94290AE77FE093DF
:1008EA006500AAE0B0E00E94AF0AE0916500E86006
:1008FA00E0936500EC81FD81309721F1E681E37098
:10090A001E2FEC81FD81E681E695E695E7700E2FB4
:10091A00EC81FD81E781EF773E2FAC81BD810E949A
:10092A00D60AE0937905F0937A0512960E94D60AC0
:10093A00E0938E05F0938F05AC81BD8114960E94D9
:10094A00D60A0DC010E003E032E3E0E0F0E0E09305
:10095A007905F0937A05E0938E05F0938F05E0937D
:10096A009005F0939105A1E247DFE12FE460AE2FF5
:10097A0043DFE02FE061AE2F3FDFE32FE068AE2FC9
:10098A003BDFA0E239DFA1E022D0E1E0E093750588
:10099A00E0E0E0937605E1E0E0937B05E0937C05F7
:1009AA00E0937D05EFEFE0937E05E1E0E0938505B6
:1009BA00E6E8F5E0FA93EA93EFEFEA93A8E0B0E00D
:1009CA000E9434090FD0E1E00E94100B60C0AA9384
:1009DA00E881E03011F0ECE001C0E8E0AE2F0CDF76
:1009EA000C9432090E94090B30E0E0917605E03060
:1009FA0009F03FEFE0E0EA93A0E029DF08EF11E019
:100A0A00F80101501040309719F0A32F3CDFF8CFBE
:100A1A00E0E0EA93A0E03BD30E94100B0C94B309E8
:100A2A00AA931A93ED81EA93AD811FDF1E2FE98104
:100A3A00E73011F0E83039F4EB81EA93AA810E9499
:100A4A004F09EB8308C0E33021F4EB81E095EB8397
:100A5A0002C0E03021F4EA81E0951E2302C0E230B0
:100A6A0029F4EA81AB81EA231E2B0EC0E13029F476
:100A7A00EA81AB81EA231E2707C0E43029F4EA8120
:100A8A00E095AB81EA2B1E23A12FFDDE1881269665
:100A9A000895AA9323970E94070BA889A43548F4BE
:100AAA00AF85A03330F4AE85A03019F0AD85A03003
:100ABA0009F4CCC1EE85E887A889BB27EE85F0E06A
:100ACA00AE0FBF1FA535E0E0BE0720F0A889E4E518
:100ADA00EA1BEE872D85AF85BB27ED85F0E0AE0FCB
:100AEA00BF1FD19720F0AF85E0E3EA1BED87A98508
:100AFA00A63009F05BC0EC85E13009F4A7C1E33008
:100B0A0039F4E0919005F0919105309709F49EC16E
:100B1A000885ED85E695E695E6953E2FE22FE77086
:100B2A0019F4AD852A17E9F0A02FBB27E32FF0E0CF
:100B3A000E94CE0AAA85BB850E942E0A2695269572
:100B4A002695532F5F935F5FE22FAF91EA1748F024
:100B5A00102FE12F1150E03019F00E94330AF9CF1B
:100B6A00F1CFAE850A1711F1EE85AA85BB85F0E0B3
:100B7A000E942E0AED85E77009F03F5F20E02F936F
:100B8A002F5FE32FAF91AE1788F41E851F931F5F67
:100B9A00E02FAF91AE1718F40E94330AF7CFEE8513
:100BAA00AE81BF81F0E00E942E0AE9CFEF85E7709F
:100BBA003E2FED85E03009F449C1EA85FB85EE83D5
:100BCA00FF8310E00889303009F063C0AD85A83092
:100BDA0008F45AC0E985E03011F0E33009F402C0A4
:100BEA00E73009F402C0E83009F402C0E93009F438
:100BFA0002C0EA3021F40A93A88929DE04C0E6304B
:100C0A0011F40E94400A1F931F5FEE85AF91AE1741
:100C1A00A0F5A985A63051F40E94440AFA93EA93F2
:100C2A000E941E0AA0810E94960926C0E985E93021
:100C3A0011F450E00EC0EA3011F45FEF0AC00E94CE
:100C4A00440A0E944D0A5E2FE985E73011F0E83028
:100C5A0021F40E94530A5E2F06C0E33011F4509526
:100C6A0002C0E03019F4A52FD1DD06C00E94570A50
:100C7A00EFEFEA93AD85D4DEC6CFEF85E85FEF8765
:100C8A00ED85E850ED87D9C05D8520E0E0E0ED878D
:100C9A007EC0E32FAD85AE0FA93020F42D85E0E0AC
:100CAA00ED8703C0E8E0E31B2E2F3A93A22F0E94A0
:100CBA0044094E2FE985E63011F50E94400A1F9338
:100CCA001F5FEE85AF91AE17C8F40E941E0AE0813D
:100CDA00E423AE2FE32F0E94C10A0E945D0AE32F8C
:100CEA00A42F0E94C10AE095E1215E2B0E94440ACA
:100CFA00FA93EA93A52F0E949609E1CF2CC0E93016
:100D0A0011F450E003C0EA30A9F45FEF0E94530ADD
:100D1A00AE2FE32F0E94B90A5E2F1F931F5FEE8545
:100D2A00AF91AE1730F40E94570A4A93A0E078DEDA
:100D3A00F4CF11C01F931F5FEE85AF91AE1758F421
:100D4A000E94680AAE2FE32F0E94B90AEA934A93D7
:100D5A00AD8566DEEFCFED85E03009F477C0AD856D
:100D6A00A83028F4ED85E21B5E2FE0E003C0532F84
:100D7A00ED85E850ED8710E0EF85E85FEF87E8E062
:100D8A00E31B2E2F0889EA85FB85EE83FF83E52F77
:100D9A00F0E0E059FD4F4491E985E63011F50E94F3
:100DAA00400A1F931F5FEE85AF91AE17C8F40E94E9
:100DBA001E0AE081E423AE2FE22F0E94B90A0E94A4
:100DCA005D0AE22FA42F0E94B90AE095E1215E2B69
:100DDA000E94440AFA93EA93A52F0E949609E1CF4A
:100DEA002CC0E93011F450E003C0EA30A9F45FEFF7
:100DFA000E94530AAE2FE22F0E94C10A5E2F1F9350
:100E0A001F5FEE85AF91AE1730F40E94570A4A93DE
:100E1A00A0E006DEF4CF11C01F931F5FEE85AF91ED
:100E2A00AE1758F40E94680AAE2FE22F0E94C10A38
:100E3A00EA934A93AD85F4DDEFCFE885AA85BB85B1
:100E4A00F0E0EA0FFB1FEA87FB87B3CE0E940E0B86
:100E5A00619608950E94750A24F0E0E0F0E00C948F
:100E6A004D09A881B981A435E0E0BE0724F0E3E585
:100E7A00F0E00C944D09E881F9810C944D090E9427
:100E8A00750A24F0E0E0F0E00C944D09A881B981DC
:100E9A00D09724F0EFE2F0E00C944D09E881F98153
:100EAA000C944D09BA93AA9323970E947C0A8F0146
:100EBA00002E012A19F4E0E0F0E05FC00E94830AE4
:100ECA000F820E94830A0E820E94830A0886EB859B
:100EDA00A885EA1718F4E0E0F0E04FC0F8010F5FC8
:100EEA001F4F5491A885BB27EE27A50FBE1FEB8580
:100EFA00F0E0EA17FB0718F0E0E0F0E03EC0EE8110
:100F0A00E695E695E6954E2FEE81E77009F04F5F7C
:100F1A00EF81E030A1F0A985BA85EC93A885EB852D
:100F2A00EA1BF0E0DF01EF81F0E00E94CE0ADF0168
:100F3A00E42FF0E00E94CE0AE00FF11F1EC09801D4
:100F4A00E52FF0E00E0F1F1FA885AF5FA887A150FD
:100F5A00EB85AE1760F4F9012F5F3F4FA491B0E023
:100F6A00E42FF0E00E94CE0A0E0F1F1FEDCFF90109
:100F7A00E491A985BA85EC93F8010E940E0B2C9690
:100F8A000895E0E0E0937705A0917805BB270E94D9
:100F9A00880AF0E0AE0FBF1FE0917C05F0E0AE0FCB
:100FAA00BF1F6DDFE09378050895AA9321970E94E9
:100FBA007C0A309709F455C0AF81AA3009F44FC0B2
:100FCA00EF81EA93DE0117966DDFAF01309709F4DE
:100FDA004AC0E0917B05AE81EA0F3E2FA0917705CA
:100FEA00BB27F0E0EA0FFB1F8F010535E0E01E0783
:100FFA0018F0032F1127C5DFE0917705EA93E091F6
:10100A007805EA93E885EA930E94880AEA93E1E080
:10101A00EA935A934A93A7E03CDDE0917705AE81C3
:10102A00EA0FEA93E0917805EA93E0917B05EA9367
:10103A000E94880A0E948F0AE0917705EA93A0919C
:10104A0078050E94880AEA0FEA933A93E0917C05B0
:10105A000E948F0AE4E5F0E0E017F10711F491DF4E
:10106A0002C0009377050E940E0B28960895BA9342
:10107A00AA931A93EC81EA93AC8109D00E94990A47
:10108A0019F0A12F92DFFACF18810C944209AA9382
:10109A00A981BB27DFDEE0937705A881BB27EFDEB6
:1010AA00E09378050C944D09BA93AA93A991B99142
:1010BA00E991F99130962AF4E095F09531966DE22E
:1010CA006D93E89480E197E20DD088EE93E00AD020
:1010DA0084E6992707D08AE005D06E2F10D06627BC
:1010EA006C9308956627E817F90720F06395E81BC3
:1010FA00F90BC9F7662311F416F008956894605D38
:10110A006D930895AA93E881E07111F0DB9A01C00A
:10111A00DB98E881E07211F0DC9A01C0DC98E88182
:10112A00E07411F0DD9A01C0DD98E881E07811F0F1
:10113A00DE9A01C0DE988DE08A95F1F7DA9A8DE0A1
:10114A008A95F1F7DA988DE08A95F1F786C0AA9325
:10115A00A881D8DFE881E295E883A881D3DF85E812
:10116A008A95F1F77AC0AA93E881F0E0EA54F84F39
:10117A00E081A981AE0FEBDFD980C88089C0A2E0E7
:10118A000E94A10AACE0E3DFA1E00E94A10AE0E02C
:10119A00CE2EDE2E0895AA93A881AA3021F0E091DE
:1011AA00BA07DE1648F0E0E0EA93C394AC2DDBDF21
:1011BA00A881AA3009F451C0D394D89AA881C7DF6C
:1011CA00D8984BC0BA93AA931A930E94990A19F015
:1011DA00A12FE1DFFACF1881A2C0BA93AA931A937A
:1011EA00E981FA813196E983FA833197E4911E2FD6
:1011FA00E03019F0A12FCFDFF3CF188190C0AA9366
:10120A00D39AD49AD59AD69AD29AD09AD19ADA9867
:10121A00D898D998E881E093BA07E058E093B807DC
:10122A00E881E054E093B907A4E1B0E00E94AF0A74
:10123A000E94A70A0E94A70A0E94A70AA0E262DFE8
:10124A0088EC90E00197F1F7A8E281DFA4E07FDF64
:10125A00A5E87DDFA6E07BDF92DF21960895BA93A9
:10126A00AA93B981A881109631F0FC81EB816A8139
:10127A0061931197E9F7EB81FC8125960895AA936A
:10128A00E881F0E0E059FD4FA491E9810E94B90A92
:10129A0022960895AA931A93E981E73011F0EA3069
:1012AA0019F41091750509C0E93019F41091760501
:1012BA0004C0E830A1F410918505E0917605E0308C
:1012CA0049F0103019F0EFEF188129C0EA81E09552
:1012DA00188125C0103019F4E0E0188120C0EA8195
:1012EA0018811DC0BA93AA93EA81E13021F4E881FA
:1012FA00F981E49114C0E23029F4A881B9810E94ED
:10130A00DE0A0DC0E33041F4A881B981E0918E056F
:10131A00F0918F05099503C0A881B981EC912396B4
:10132A000895AA93EB81E03029F4E881A981BA8172
:10133A00EC9314C0E23031F4E881A981BA810E94A9
:10134A00F20A0CC0E33051F4E981FA81FA93EA9384
:10135A00AA81E0919005F091910509952496089546
:10136A00A6E00A9FF001EE56FA4FDF01E32FF0E004
:10137A00EE0FFF1FAE0FBF1F0E94D60A0E94100B6E
:10138A000895BA93AA930E94F704E881F981FA931F
:10139A00EA93AEEAB5E00E945908E5E0EA93EAE08A
:1013AA00EA93AEEAB5E00E943C08EFE0EA93E4E192
:1013BA00EA930895FA93EA93A4EAB5E00E945908D9
:1013CA00EEE1EA93EA9308950E94C408E0E0EA9302
:1013DA00A0E00C94B80800E010E02FEF3FEF40E0E7
:1013EA0050E00895FA93EA93D501A819B909089526
:1013FA00EA2DE819E05DAE2F0C94D008F801319778
:10140A00DE01AE0FBF1F0895FA93EA93FE013596E7
:10141A00FA93EA93EEE1F0E0E5CFFA93EA93DE017C
:10142A0012960E949802EAE0EA93A0E00E94B808A5
:10143A00DFCFA8EBB5E0ED91FD913196FE93EE93E7
:10144A003197E654FA4F0895E0936400E0916500FD
:10145A000895EA0FFB1FEE83FF830895EC85EA9354
:10146A00EF81F8853196EF83F8873197FA93EA93FB
:10147A00A0E00C9496090A93A8890C941504EC85AB
:10148A00EA93EF81F8853196EF83F88731970895CB
:10149A0066277727DF01CB010C9477095A93AA852F
:1014AA000C944F090A930395E889EA935A9308958D
:1014BA005E2FEC85EA93AF81B885882799270E9429
:1014CA0077091E2E08950A930395E889EA93EE8513
:1014DA00EA93E985FA853196E987FA873197D8CF71
:1014EA00BA93AA93A881B9810E94030B08950E9416
:1014FA00070BE0917905F0917A050895F8010F5FDD
:10150A001F4F04900895E0917905F0917A0531967C
:10151A00E4910895EA93E0E0EA93E0E0F0E0FA93D8
:10152A00EA93A9E00C944E05A981BA81ED91A983A9
:10153A00BA831E2FE03008950E94AC08A3E0B0E001
:10154A000C94AF0AA0E30E94870888EC90E0019708
:10155A00F1F70895109639F080ED97E00197F1F7C9
:10156A00A8951197C9F70895EE230E2EEA2F19F0C0
:10157A00EE0F0A94E9F70895EE230E2EEA2F19F0DA
:10158A00E6950A94E9F70895EE0FFF1FEE0FFF1F85
:10159A000895FA9FF02DEB9FF00DEA9FE02DF10DD3
:1015AA000895ED91FC9111970895119602D0FE2F9E
:1015BA001197E199FECFFF93FFB7F894AEBBBFBB7B
:1015CA00E09AEDB3FFBFFF91089507D01196EF930C
:1015DA00EF2F03D0EF9111970895E19B02C0A895D0
:1015EA00FCCF9FB7F894AEBBBFBBE09A8DB3E817A8
:1015FA0019F0EDBBE29AE19A9FBF089500240A16FA
:10160A000B0608955A934A933A932A931A930A9384
:10161A0008955D814C813B812A8119810881089551
:00000001FF
