:100000000C9476000C9400000C9400000C940000FA
:100010000C9400000C9400000C9400000C94000060
:100020000C9400000C9400000C9400000C94000050
:100030000C9400000C9400000C9400000C94000040
:100040000C9400000C9400000C9400000C94000030
:100050000C9400000C9400000C9400000C94000020
:100060000C9400000C9400000C9400000C94000010
:100070000C9400000C9400000C9400000C94000000
:100080000C9400000C9400000C9400001027E8036E
:1000900064000A00010000100001100001000000CF
:1000A000010004000700020005000800030006002C
:1000B00009005072657373204B6579733A00010033
:1000C0002D4E414E00494E46000080C00200040003
:1000D0009E0011000C05A0000C000005B2000100FC
:1000E0002E05BE0002003205CA000000F894EE277B
:1000F000ECBBF1E0F5BFE5BFE0936C008DE0A2E062
:10010000BB27ED938A95E9F780E090E1A0E0B1E0AC
:10011000ED930197E9F7ECECF0E08591959100976C
:1001200061F0A591B59105901590BF01F001059082
:100130000D920197E1F7FB01F0CF8BBFEFEFEDBF21
:10014000E0E1EEBFC0E0D5E00C94FF000E94EA01C0
:1001500040E050E04330E0E05E070CF04CC0042E7D
:10016000052A19F4EDEFE0936200E1E0F0E0E41716
:10017000F50719F4E7EFE0936200E2E0F0E0E4173E
:10018000F50719F4EFEDE093620020E030E0233052
:10019000E0E03E076CF5022E032A39F4E0B1E4708A
:1001A0001E2F143011F00E94B901E1E0F0E0E217D7
:1001B000F30759F4A2E3B0E00E94E001E0B1E0717E
:1001C0001E2F103111F00E94B901E2E0F0E0E217B9
:1001D000F30759F4A2E3B0E00E94E001E0B1E1705E
:1001E0001E2F113011F00E94B9012F5F3F4FCFCF6A
:1001F0004F5F5F4FAFCF0E94F10126960895A0E1B7
:100200000E948A010E945801EAEEE0936100E5E154
:10021000E0936200A0E0B5E00E94790197DFE0E0A2
:10022000EA93A1E00E944B01AEE1B5E00E947901A2
:10023000F5CFFFCFAA93E881E07111F0DB9A01C0FE
:10024000DB98E881E07211F0DC9A01C0DC98E8816B
:10025000E07411F0DD9A01C0DD98E881E07811F0DA
:10026000DE9A01C0DE988DE08A95F1F7DA9A8DE08A
:100270008A95F1F7DA988DE08A95F1F778C0AA931C
:10028000A881D8DFE881E295E883A881D3DF85E8FB
:100290008A95F1F76CC0AA93E881F0E0EE5CFA4F22
:1002A000E081A981AE0FEBDF798068802296089506
:1002B000A2E00E94D201ACE0E2DFA1E00E94D20104
:1002C000E0E06E2E7E2E0895AA93A881AA3011F048
:1002D000791448F0E0E0EA936394A62DDCDFA8816E
:1002E000AA3009F444C07394D89AA881C8DFD8987A
:1002F0003EC0BA93AA931A93A981BA81ED91A983BA
:10030000BA831E2FE03019F0A12FDEDFF5CF188160
:1003100023960895AA93D39AD49AD59AD69AD29A24
:10032000D09AD19ADA98D898D9989880E881E058EC
:10033000E0933405E881E054E0933505A4E1B0E0B2
:100340000E94E0010E94D8010E94D8010E94D801B9
:10035000A0E270DF88EC90E00197F1F7A8E28FDF70
:10036000A4E08DDFA5E88BDFA6E089DFA1DF219681
:100370000895F20131962F013197E25EFA4FBF01E5
:10038000A6E0A49FF001A59FF00DE45FFA4FDF0106
:10039000F901EE0FFF1FAE0FBF1FEC91E05DDB0117
:1003A000EC9308950E943F01A3E0B0E00C94E001BB
:1003B000A0E30E941A0188EC90E00197F1F70895FC
:1003C000109639F080ED97E00197F1F7A895119715
:1003D000C9F708955A934A933A932A931A930A9322
:1003E00008955D814C813B812A811981088108959E
:00000001FF
