:0A0000000C94A6010C9400000C946F
:10000A0000000C9400000C9400000C9400000C9466
:10001A0000000C9400000C9400000C9400000C9456
:10002A0000000C9400000C9400000C9400000C9446
:10003A00F8020C9400000C9400000C9400000C943C
:10004A0000000C9400000C9400000C9400000C9426
:10005A0000000C9400000C9400000C9400000C9416
:10006A0000000C9400000C9400000C9400000C9406
:10007A0000000C9400000C9400000C9400000C94F6
:10008A00000005072060000000000000005F00007B
:10009A000007000700147F147F14242A7F2A1223E2
:1000AA001308646236495522500005030000001CFB
:1000BA002241000041221C00082A1C2A0808083E86
:1000CA00080800503000000808080808003030000E
:1000DA000020100804023E5149453E00427F40007C
:1000EA0042615149462141454B311814127F10276C
:1000FA00454545393C4A49493001710905033649A4
:10010A00494936064949291E003636000000563646
:10011A000000000814224114141414144122140873
:10012A00000201510906324979413E7E1111117EC0
:10013A007F494949363E414141227F4141221C7F44
:10014A00494949417F090901013E414151327F082C
:10015A0008087F00417F41002040413F017F081489
:10016A0022417F404040407F0204027F7F04081002
:10017A007F3E4141413E7F090909063E4151215EC8
:10018A007F09192946464949493101017F01013F41
:10019A004040403F1F2040201F7F2018207F6314CB
:1001AA000814630304780403615149454300007F3E
:1001BA004141020408102041417F0000040201026B
:1001CA000440404040400001020400205454547846
:1001DA007F484444383844444420384444487F38AB
:1001EA0054545418087E090102081454543C7F08D8
:1001FA0004047800447D40002040443D00007F1004
:10020A00284400417F40007C041804787C080404D8
:10021A007838444444387C14141408081414187C9C
:10022A007C080404084854545420043F4440203CA9
:10023A004040207C1C2040201C3C4030403C44284C
:10024A001028440C5050503C4464544C4400083626
:10025A00410000007F00000041360800020102044C
:10026A00027F4141417F000103070F1F3F7FFF00CB
:10027A001027E80364000A000100001000011000C2
:10028A0001000000000000001C0000350000000012
:10029A000000000000000100040007000200050041
:1002AA0008000300060009004E686170204E686964
:1002BA00657420446F3A004E68617020446F204193
:1002CA006D3A0054454D503A0048554D493A00445C
:1002DA0041542059455520434155210044414E4738
:1002EA0020534159204B484F000080C001002D4E39
:1002FA00414E00494E4600000A0004008C021100DB
:10030A007805A0020F000005B2020C000F05C10219
:10031A0006001B05CD0206002105D3020D002705A4
:10032A00D9020D003405E6020D004105D9020D007F
:10033A004E05E60202009C05F40201009D07F60242
:10034A000000F894EE27ECBBF1E0F5BFE5BFE093BF
:10035A006C008DE0A2E0BB27ED938A95E9F780E077
:10036A0090E1A0E0B1E0ED930197E9F7E2E0F3E074
:10037A0085919591009761F0A591B5910590159099
:10038A00BF01F00105900D920197E1F7FB01F0CF53
:10039A008BBFEFEFEDBFE0E1EEBFC0E0D5E00C941C
:1003AA00B103BA93AA932A978AE0A0E0B0E0E6E9FB
:1003BA00F2E00E94A60B0E949A0BBF9AC79A80EAA3
:1003CA008A95F1F7C798A9E1B0E00E94100BBF988F
:1003DA00C79A80EA8A95F1F7B79B02C0E0E05CC051
:1003EA00B79BFECF80EA8A95F1F7B79902C0E0E0A1
:1003FA0053C0B799FECF00E010E00530E0E01E07D9
:10040A0064F520E030E02830E0E03E071CF5B79BB9
:10041A00FECF85E88A95F1F7B79B19C0F801DE018E
:10042A001496EE0FFF1FEA0FFB1FCF016081718147
:10043A00E7E0F0E0E21BF30BA1E0B0E00E942E0B34
:10044A00E62BF72BDC01ED93FC93B799FECF2F5FD8
:10045A003F4FD9CF0F5F1F4FD0CFEE81FF81AC81C5
:10046A00BD81EA0FFB1FA885B985EA0FFB1FAA8584
:10047A00BB85EA0FFB1F2F01EC85FD85E415F50509
:10048A0011F0E0E009C0E885A889B989EC93EC810C
:10049A00AE85BF85EC93E1E00E94A10B62960895B8
:1004AA000E94980B40E050E04330E0E05E070CF019
:1004BA004CC0042E052A19F4EDEFE0936200E1E046
:1004CA00F0E0E417F50719F4E7EFE0936200E2E0E1
:1004DA00F0E0E417F50719F4EFEDE093620020E08D
:1004EA0030E02330E0E03E076CF5022E032A39F4AF
:1004FA00E0B1E4701E2F143011F00E94300AE1E0DE
:10050A00F0E0E217F30759F4A2E3B0E00E94100BFF
:10051A00E0B1E0711E2F103111F00E94300AE2E0C2
:10052A00F0E0E217F30759F4A2E3B0E00E94100BDF
:10053A00E0B1E1701E2F113011F00E94300A2F5FD6
:10054A003F4FCFCF4F5F5F4FAFCF0E949F0B0C94AF
:10055A004E060E94490A8C9A8D9A8F9ABC9AC29A20
:10056A00C39AC09A979AA79A0895BA93AA93289772
:10057A00ECE8F0E0E883F983EE81EC7FEE83EA852C
:10058A00E770EE0FEE0F0E2EEE81E37EE029EE838A
:10059A00E885EF770E2EEF81E078E029EF83DE0120
:1005AA000E9452052C960895BA93AA93A881EFEF58
:1005BA00EA1BE1BF22960895E0E0E0BFE4E7E3BF6B
:1005CA00E0E0E2BF0E94500AE0E0EFBDE1E0EEBDEC
:1005DA00ECEFEDBDE0EEECBDE4E0E7BFE0E0E09378
:1005EA007D0078940895AA93BA93EA93FA93EFB7A1
:1005FA00EA93E0EEEDBDE0ECECBDCC2019F1A09160
:10060A009A05B0919B05A03DE7E0BE0729F4E0E01A
:10061A00E0939A05E0939B05E0919A05F0919B057A
:10062A00309711F49498959AA0919A05B0919B05E8
:10063A00A83EE3E0BE0711F49598949AAAE9B5E0BA
:10064A000E94540AE991EFBFF991E991B991A991F0
:10065A001895BA93AA9323970E949A0B00E010E088
:10066A0020E030E020D1A0E0B5E04BD119DF002432
:10067A00061407040CF04FC02197F3013297E6578E
:10068A00FA4FE081E883A881A13310F0AA3308F079
:10069A001CC00230E0E01E07B4F4F8010F5F1F4FE0
:1006AA00DE011596EA0FFB1FA881A083DE011596CD
:1006BA00A00FB11FE0E0EC93EA93A1E0E3D0DE01E2
:1006CA0015960E945A0A0E94600A00240016010622
:1006DA00FCF4022E032A99F4DE0115960E9464099D
:1006EA00AA85BB85EC9300E010E0E0E0ED8321E011
:1006FA0030E0D9D0AFE0B5E00E945A0A09C0DE0165
:10070A0015960E946409A885B985EC93219604C0C0
:10071A000E94600A2196AACFE1E00E94A10B2B96C3
:10072A000895E0E0EA93A0E0ADD0ADECB2E0F5D0F8
:10073A00A82D0E94640AA82D0E946D0AE0E0EA939F
:10074A00A1E0A0D0A3EDB2E0E8D0AB2D0E94640AEC
:10075A00AB2D0E946D0A0895A3DEE4E0F0E0FA935F
:10076A00EA93A2E4B0E001DFA0E1EAD0F2DE0E945F
:10077A00490ABC9A8F9A8C9A8D9ABA98C29ABB984F
:10078A00C39AB898C09A18DFB29923C00E94760A11
:10079A0060DF9E2E0E94600AC4DFA81411F4DB14E5
:1007AA0009F00BC00E94500A0E947D0AA7E2B5E038
:1007BA000E944709E1E0CE2E0BC0A81411F4DB1405
:1007CA0039F00E94820AA4E3B5E00E944709CC24CA
:1007DA00E1CFB39923C00E94760AE3DD9E2E0E94E0
:1007EA00600A9FDFA81411F4DB1409F00BC00E9401
:1007FA00500A0E947D0AA1E4B5E00E944709E1E09F
:10080A00CE2E0BC0A81411F4DB1439F00E94820A10
:10081A00AEE4B5E00E944709CC24DDCFB5CFFFCFC7
:10082A00AA93E881E07111F0DB9A01C0DB98E881B4
:10083A00E07211F0DC9A01C0DC98E881E07411F0F2
:10084A00DD9A01C0DD98E881E07811F0DE9A01C0F6
:10085A00DE988DE08A95F1F7DA9A8DE08A95F1F7BC
:10086A00DA988DE08A95F1F70C94F705AA93A88196
:10087A00D7DFE881E295E883A881D2DF85E88A9507
:10088A00F1F7B0C1AA93E881F0E0E456FA4FE081AB
:10089A00A981AE0FEBDFE981E093A005E881E0933F
:1008AA00A1050C94B409A2E00E94870AACE0DEDF3D
:1008BA00A1E00E94870AE0E0E093A105E093A00589
:1008CA000895AA93A881AA3031F0E091A205A091D7
:1008DA00A005AE1760F0E0E0EA93A091A105AF5F32
:1008EA00A093A105CFDFA881AA3009F47BC1E091CA
:1008FA00A005EF5FE093A005D89AA881B7DFD89842
:10090A0071C1BA93AA931A930E948D0A19F0A12F62
:10091A00D8DFFACF18810C94FB09BA93AA931A93D9
:10092A00E981FA813196E983FA833197E4911E2F9E
:10093A00E03019F0A12FC5DFF3CF18810C94FB0921
:10094A00AA93D39AD49AD59AD69AD29AD09AD19A65
:10095A00DA98D898D998E881E093A205E058E0930C
:10096A009E05E881E054E0939F05A4E1B0E00E946F
:10097A00100B0E94950A0E94950A0E94950AA0E20D
:10098A004FDF88EC90E00197F1F7A8E26FDFA4E06F
:10099A006DDFA5E86BDFA6E069DF85DF23C1089577
:1009AA00AA931A93E0916500EF7EE093650018E040
:1009BA00F6DFE981E07821F0E0916500E26003C0AA
:1009CA00E0916500ED7FE0936500E981EE0FE98330
:1009DA00E6DFE0916500E460E0936500E0DFE09126
:1009EA006500EB7FE0936500115011F7E091650017
:1009FA00E061E093650018810C94B409AA93E09130
:100A0A006500EE7FE0936500A881CADFEBC0AA9378
:100A1A00E0916500E160E0936500A881C1DFE2C072
:100A2A00AA931A93E981E695E695E6951E2FE4E5E1
:100A3A00E19FF001DF01EA81F0E0EA0FFB1FE0939A
:100A4A00A305F093A405E12F18810C94FB09AA933E
:100A5A00E981E068AE2FD2DFE981EA93A981E0DF7C
:100A6A00E064AE2FCBDF0C94B409AA93E981EA9330
:100A7A00A981EDDFE091A305F091A405EB55FA4FAA
:100A8A00E0810C94B409AA930E949D0A3197EB5510
:100A9A00FA4FA881A083BBDFA5C0BA93AA930E948C
:100AAA009A0BE0916400E0610E94A00AE061E09381
:100ABA006500E0916400E4600E94A00AEB7FE09385
:100ACA006500E0916400E260E0936400E0916400F4
:100ADA00E160E0936400E0916400E8600E94A00A8B
:100AEA00E77FE0936500AAE0B0E00E94100BE09176
:100AFA006500E860E0936500EC81FD81309721F1A3
:100B0A00E681E3701E2FEC81FD81E681E695E6958C
:100B1A00E7700E2FEC81FD81E781EF773E2FAC81E4
:100B2A00BD810E94730BE0935F05F09360051296F6
:100B3A000E94730BE0937405F0937505AC81BD8137
:100B4A0014960E94730B0DC010E003E032E3E0E05C
:100B5A00F0E0E0935F05F0936005E0937405F0938D
:100B6A007505E0937605F0937705A1E247DFE12F5B
:100B7A00E460AE2F43DFE02FE061AE2F3FDFE32FCB
:100B8A00E068AE2F3BDFA0E239DFA1E022D0E1E04E
:100B9A00E0935B05E0E0E0935C05E1E0E09361054A
:100BAA00E0936205E0936305EFEFE0936405E1E00B
:100BBA00E0936B05ECE6F5E0FA93EA93EFEFEA933C
:100BCA00A8E0B0E00E949B090FD0E1E00E94A10BCF
:100BDA0060C0AA93E881E03011F0ECE001C0E8E0DF
:100BEA00AE2F0CDF219608950E949A0B30E0E09117
:100BFA005C05E03009F03FEFE0E0EA93A0E027DF90
:100C0A0008EF11E0F80101501040309719F0A32FB6
:100C1A003ADFF8CFE0E0EA93A0E044D30E94A10BC8
:100C2A000C941A0AAA931A93ED81EA93AD811DDFF7
:100C3A001E2FE981E73011F0E83039F4EB81EA93AD
:100C4A00AA810E94B609EB8308C0E33021F4EB8144
:100C5A00E095EB8302C0E03021F4EA81E0951E239F
:100C6A0002C0E23029F4EA81AB81EA231E2B0EC0CE
:100C7A00E13029F4EA81AB81EA231E2707C0E43078
:100C8A0029F4EA81E095AB81EA2B1E23A12FFBDE32
:100C9A00188126960895AA9323970E94980BA889EB
:100CAA00A43548F4AF85A03330F4AE85A03019F0EE
:100CBA00AD85A03009F4D5C1EE85E887A889BB27A0
:100CCA00EE85F0E0AE0FBF1FA535E0E0BE0720F0CD
:100CDA00A889E4E5EA1BEE872D85AF85BB27ED855C
:100CEA00F0E0AE0FBF1FD19720F0AF85E0E3EA1B1B
:100CFA00ED87A985A63009F05BC0EC85E13009F4DF
:100D0A00B0C1E33039F4E0917605F0917705309778
:100D1A0009F4A7C10885ED85E695E695E6953E2F87
:100D2A00E22FE77019F4AD852A17E9F0A02FBB2747
:100D3A00E32FF0E00E94370BAA85BB850E94A50A23
:100D4A00269526952695532F5F935F5FE22FAF91E5
:100D5A00EA1748F0102FE12F1150E03019F00E94E5
:100D6A00AA0AF9CFF1CFAE850A1711F1EE85AA8545
:100D7A00BB85F0E00E94A50AED85E77009F03F5FA8
:100D8A0020E02F932F5FE32FAF91AE1788F41E85D3
:100D9A001F931F5FE02FAF91AE1718F40E94AA0AA3
:100DAA00F7CFEE85AE81BF81F0E00E94A50AE9CFB8
:100DBA00EF85E7703E2FED85E03009F452C1EA85F0
:100DCA00FB85EE83FF8310E00889303009F066C0A6
:100DDA00AD85A83008F45DC0E985E03011F0E33054
:100DEA0009F402C0E73009F402C0E83009F402C08D
:100DFA00E93009F402C0EA3021F40A93A88927DE0F
:100E0A0004C0E63011F40E94B70A1F931F5FEE85F3
:100E1A00AF91AE17B8F5A985A63069F40E94BB0A4E
:100E2A00FA93EA930E949D0A3197EB55FA4FA081F3
:100E3A000E94FD0926C0E985E93011F450E00EC090
:100E4A00EA3011F45FEF0AC00E94BB0A0E94C40A8A
:100E5A005E2FE985E73011F0E83021F40E94CA0AD2
:100E6A005E2F06C0E33011F4509502C0E03019F449
:100E7A00A52FCDDD06C00E94CE0AEFEFEA93AD851D
:100E8A00D1DEC3CFEF85E85FEF87ED85E850ED87C8
:100E9A00DFC05D8520E0E0E0ED8781C0E32FAD850E
:100EAA00AE0FA93020F42D85E0E0ED8703C0E8E01D
:100EBA00E31B2E2F3A93A22F0E94AB094E2FE985EE
:100ECA00E63029F50E94B70A1F931F5FEE85AF919E
:100EDA00AE17E0F40E949D0A3197EB55FA4FE08174
:100EEA00E423AE2FE32F0E94260B0E94D40AE32F9D
:100EFA00A42F0E94260BE095E1215E2B0E94BB0ADB
:100F0A00FA93EA93A52F0E94FD09DECF2CC0E9309F
:100F1A0011F450E003C0EA30A9F45FEF0E94CA0A54
:100F2A00AE2FE32F0E941E0B5E2F1F931F5FEE85CD
:100F3A00AF91AE1730F40E94CE0A4A93A0E072DE57
:100F4A00F4CF11C01F931F5FEE85AF91AE1758F40F
:100F5A000E94DF0AAE2FE32F0E941E0BEA934A93E8
:100F6A00AD8560DEEFCFED85E03009F47AC0AD855E
:100F7A00A83028F4ED85E21B5E2FE0E003C0532F72
:100F8A00ED85E850ED8710E0EF85E85FEF87E8E050
:100F9A00E31B2E2F0889EA85FB85EE83FF83E52F65
:100FAA00F0E0E059FD4F4491E985E63029F50E94C9
:100FBA00B70A1F931F5FEE85AF91AE17E0F40E9448
:100FCA009D0A3197EB55FA4FE081E423AE2FE22FC9
:100FDA000E941E0B0E94D40AE22FA42F0E941E0B0D
:100FEA00E095E1215E2B0E94BB0AFA93EA93A52FB2
:100FFA000E94FD09DECF2CC0E93011F450E003C095
:10100A00EA30A9F45FEF0E94CA0AAE2FE22F0E94CB
:10101A00260B5E2F1F931F5FEE85AF91AE1730F43C
:10102A000E94CE0A4A93A0E0FDDDF4CF11C01F93BF
:10103A001F5FEE85AF91AE1758F40E94DF0AAE2FFC
:10104A00E22F0E94260BEA934A93AD85EBDDEFCFA0
:10105A00E885AA85BB85F0E0EA0FFB1FEA87FB87D4
:10106A00AACE0E949F0B619608950E94EC0A24F072
:10107A00E0E0F0E00C94B409A881B981A435E0E07D
:10108A00BE0724F0E3E5F0E00C94B409E881F981A5
:10109A000C94B4090E94EC0A24F0E0E0F0E00C940D
:1010AA00B409A881B981D09724F0EFE2F0E00C945A
:1010BA00B409E881F9810C94B409BA93AA932397E5
:1010CA000E94F30A8F01002E012A19F4E0E0F0E0F1
:1010DA005FC00E94FA0A0F820E94FA0A0E820E94D8
:1010EA00FA0A0886EB85A885EA1718F4E0E0F0E02A
:1010FA004FC0F8010F5F1F4F5491A885BB27EE27F9
:10110A00A50FBE1FEB85F0E0EA17FB0718F0E0E039
:10111A00F0E03EC0EE81E695E695E6954E2FEE812B
:10112A00E77009F04F5FEF81E030A1F0A985BA8539
:10113A00EC93A885EB85EA1BF0E0DF01EF81F0E094
:10114A000E94370BDF01E42FF0E00E94370BE00F1B
:10115A00F11F1EC09801E52FF0E00E0F1F1FA88592
:10116A00AF5FA887A150EB85AE1760F4F9012F5F36
:10117A003F4FA491B0E0E42FF0E00E94370B0E0F2E
:10118A001F1FEDCFF901E491A985BA85EC93F80107
:10119A000E949F0B2C960895E0E0E0935D05A091D4
:1011AA005E05BB270E94FF0AF0E0AE0FBF1FE09169
:1011BA006205F0E0AE0FBF1F6DDFE0935E05089594
:1011CA00AA9321970E94F30A309709F455C0AF8178
:1011DA00AA3009F44FC0EF81EA93DE0117966DDF5A
:1011EA00AF01309709F44AC0E0916105AE81EA0F78
:1011FA003E2FA0915D05BB27F0E0EA0FFB1F8F0190
:10120A000535E0E01E0718F0032F1127C5DFE0912E
:10121A005D05EA93E0915E05EA93E885EA930E9408
:10122A00FF0AEA93E1E0EA935A934A93A7E033DD8F
:10123A00E0915D05AE81EA0FEA93E0915E05EA93DB
:10124A00E0916105EA930E94FF0A0E94060BE09171
:10125A005D05EA93A0915E050E94FF0AEA0FEA93F0
:10126A003A93E09162050E94060BE4E5F0E0E0178C
:10127A00F10711F491DF02C000935D050E949F0BF4
:10128A0028960895BA93AA931A93EC81EA93AC81AB
:10129A0009D00E948D0A19F0A12F92DFFACF188186
:1012AA000C94A909AA93A981BB27DFDEE0935D0507
:1012BA00A881BB27EFDEE0935E050C94B409BA93CC
:1012CA00AA93B981A881EC918A2FAE2F0E94250A90
:1012DA00A82FEE2311F01196F6CFE894EC91ED3297
:1012EA0011F4689402C0EB3209F411966627772745
:1012FA00EC918A2FAE2F0E941C0AA82FEE2379F0B8
:10130A00FB01660F771F660F771F6E0F7F1F660F31
:10131A00771FED91FF27E0536E0F7F1FE9CFFB0187
:10132A001EF4E095F095319622960895BA93AA9301
:10133A00B981A881109631F0FC81EB816A816193B1
:10134A001197E9F7EB81FC8125960895AA93E88124
:10135A00F0E0E059FD4FA491E9810E941E0B22960C
:10136A000895AA931A93E981E73011F0EA3019F443
:10137A0010915B0509C0E93019F410915C0504C0AD
:10138A00E830A1F410916B05E0915C05E03049F07A
:10139A00103019F0EFEF188129C0EA81E095188121
:1013AA0025C0103019F4E0E0188120C0EA811881C4
:1013BA001DC0BA93AA93EA81E13021F4E881F98148
:1013CA00E49114C0E23029F4A881B9810E94770B14
:1013DA000DC0E33041F4A881B981E0917405F09120
:1013EA007505099503C0A881B981EC9123960895E2
:1013FA00AA93EB81E03029F4E881A981BA81EC93C0
:10140A0014C0E23031F4E881A981BA810E94830BC9
:10141A000CC0E33051F4E981FA81FA93EA93AA8184
:10142A00E0917605F0917705099524960895AA9397
:10143A00E1E0F991F03310F0FA3308F0EE2708955D
:10144A00AA93E1E0F991F03229F0F93010F0FE3078
:10145A0008F0EE270895F30131963F013197E657D8
:10146A00FA4FBF01A6E0A49FF001A59FF00DE8582E
:10147A00FA4FDF01F901EE0FFF1FAE0FBF1FEC910C
:10148A00E05DDB01EC930895EAEEE0936100E5E1AB
:10149A00E09362000895A0E0B0E00C94D902ED91C7
:1014AA00FD913196FE93EE9308950E948604A4EF6F
:1014BA00B1E00C94100BA4EFB1E00C94100BB0E067
:1014CA00EAE0F0E00E94520BE05DAE2F0C94660455
:1014DA00BB27EAE0F0E00E94570BE05DAE2F0C94C8
:1014EA006604E8E0F0E0FA93EA93ABE0B0E008952E
:1014FA00EAE0EA93E4E1EA930895AFEFB0E00E94EC
:10150A00D902F6CF0E943B04A3E0B0E00C94100B82
:10151A00A981BA81ED91A983BA831E2FE03008957B
:10152A00A0E30E94150488EC90E00197F1F7089572
:10153A00A3EAB5E0B4CFE0936400E09165000895B2
:10154A00EA0FFB1FEE83FF830895EC85EA93EF8190
:10155A00F8853196EF83F8873197FA93EA93A0E0FA
:10156A000C94FD090A93A8890C941505EC85EA9355
:10157A00EF81F8853196EF83F887319708956627CA
:10158A007727DF01CB010C94DE095A93AA850C94C4
:10159A00B6090A930395E889EA935A9308955E2F48
:1015AA00EC85EA93AF81B885882799270E94DE09DE
:1015BA001E2E08950A930395E889EA93EE85EA9325
:1015CA00E985FA853196E987FA873197D8CFBA93B0
:1015DA00AA93A881B9810E94940B08950E94980B3E
:1015EA00E0915F05F09160050895F8010F5F1F4FC4
:1015FA0004900895E0915F05F09160053196E491B9
:10160A000895EA93E0E0EA93E0E0F0E0FA93EA93DF
:10161A00A9E00C945006109639F080ED97E00197F6
:10162A00F1F7A8951197C9F70895F195E195F0405A
:10163A000895EE230E2EEA2F19F0EE0F0A94E9F719
:10164A000895EE230E2EEA2F19F0E6950A94E9F78B
:10165A000895EE230E2EFD0121F0EE0FFF1F0A94CE
:10166A00E1F70895FA9FF02DEB9FF00DEA9FE02D28
:10167A00F10D08950024112490E1AA0FBB1F001C4C
:10168A00111C0E1A1F0A18F40E0E1F1E01C0A160AB
:10169A009A9599F7FD01D001089512D0EBDF0EF467
:1016AA00C4DF0895E894B7FF04C0A095B0951196D9
:1016BA006894F7FDBADFDEDFFD010EF4B6DF0895A8
:1016CA00E894F7FF02C0B1DF6894B7FF06C0A0959F
:1016DA00B095119600F8039400FA0895ED91FC91E3
:1016EA0011970895E199FECFFF93FFB7F894AEBB27
:1016FA00BFBBE09AEDB3FFBFFF910895E19B02C023
:10170A00A895FCCF9FB7F894AEBBBFBBE09A8DB348
:10171A00E81719F0EDBBE29AE19A9FBF08950024F9
:10172A000A160B0608955A934A933A932A931A93E0
:10173A000A9308955D814C813B812A811981088130
:10174A000895AC0FBD1F05900D928A95E1F7089593
:00000001FF
