:0C0000000C9472010C9400000C940000A1
:10000C000C9400000C9400000C9400000C94000064
:10001C000C9400000C9400000C9400000C94000054
:10002C000C9400000C9400000C9400000C947302CF
:10003C000C9400000C9400000C9400000C94000034
:10004C000C9400000C9400000C9400000C94000024
:10005C000C9400000C9400000C9400000C94000014
:10006C000C9400000C9400000C9400000C94000004
:10007C000C9400000C9400000C9400000C940000F4
:10008C0005072060000000000000005F0000000772
:10009C00000700147F147F14242A7F2A12231308CC
:1000AC00646236495522500005030000001C2241B1
:1000BC00000041221C00082A1C2A0808083E0808D7
:1000CC0000503000000808080808003030000020FC
:1000DC00100804023E5149453E00427F40004261F7
:1000EC005149462141454B311814127F1027454583
:1000FC0045393C4A4949300171090503364949499A
:10010C0036064949291E00363600000056360000D6
:10011C00000814224114141414144122140800026F
:10012C0001510906324979413E7E1111117E7F49F8
:10013C004949363E414141227F4141221C7F494978
:10014C0049417F090901013E414151327F080808AC
:10015C007F00417F41002040413F017F0814224134
:10016C007F404040407F0204027F7F0408107F3EA6
:10017C004141413E7F090909063E4151215E7F09FB
:10018C00192946464949493101017F01013F404047
:10019C00403F1F2040201F7F2018207F631408142D
:1001AC00630304780403615149454300007F4141D6
:1001BC00020408102041417F0000040201020440A7
:1001CC0040404040000102040020545454787F48C1
:1001DC004444383844444420384444487F385454C8
:1001EC005418087E090102081454543C7F08040476
:1001FC007800447D40002040443D00007F1028449E
:10020C0000417F40007C041804787C080404783892
:10021C00444444387C14141408081414187C7C08C6
:10022C000404084854545420043F4440203C4040AB
:10023C00207C1C2040201C3C4030403C4428102892
:10024C00440C5050503C4464544C4400083641001B
:10025C0000007F0000004136080002010204027F0A
:10026C004141417F000103070F1F3F7FFF0000004A
:10027C001C00351E000000000100020003000400F9
:10028C00050006000700080009000000000000003F
:10029C000000000054454D503A0048554D493A0075
:1002AC0053415920584F4E47210080C001002D4E1C
:1002BC00414E00494E4600000A0004007A0211002B
:1002CC00270584020A000005AC0202003B05B602B9
:1002DC0001003B07B8020000F894EE27ECBBF1E0FC
:1002EC00F5BFE5BFE0936C008DE0A2E0BB27ED937A
:1002FC008A95E9F780E090E1A0E0B1E0ED930197F9
:10030C00E9F7E4ECF2E085919591009761F0A59105
:10031C00B59105901590BF01F00105900D920197D4
:10032C00E1F7FB01F0CF8BBFEFEFEDBFE0E1EEBFEC
:10033C00C0E0D5E00C94BD02BA93AA932A978AE048
:10034C00A0E0B0E0E6E9F2E00E94CF090E94C30908
:10035C00BF9AC79A80EA8A95F1F7C798A9E1B0E0ED
:10036C000E943909BF98C79A80EA8A95F1F7B79B22
:10037C0002C0E0E063C0B79BFECF80EA8A95F1F73C
:10038C00B79902C0E0E05AC0B799FECF00E010E088
:10039C000530E0E01E0764F520E030E02830E0E0B6
:1003AC003E071CF5B79BFECF85E88A95F1F7B79B06
:1003BC0019C0F801DE011496EE0FFF1FEA0FFB1FA8
:1003CC00CF0160817181E7E0F0E0E21BF30BA1E06B
:1003DC00B0E00E945709E62BF72BDC01ED93FC9360
:1003EC00B799FECF2F5F3F4FD9CF0F5F1F4FD0CFA5
:1003FC00EE81FF81AC81BD81EA0FFB1FA885B98519
:10040C00EA0FFB1FAA85BB85EA0FFB1FE09339059A
:10041C00F0933A05EC85FD85A0913905B0913A052C
:10042C00EA17FB0711F0E0E009C0E885A889B98953
:10043C00EC93EC81AE85BF85EC93E1E00E94CA0998
:10044C0062960895EAEEE09361008C9A8D9A8F9AE9
:10045C00BC9AC29AC39A979AA79A0895BA93AA93E8
:10046C002897ECE8F0E0E883F983EE81EC7FEE83EB
:10047C00EA85E770EE0FEE0F0E2EEE81E37EE0299B
:10048C00EE83E885EF770E2EEF81E078E029EF839D
:10049C00DE010E9417040C948507BA93AA93A881D5
:1004AC00EFEFEA1BE1BF22960895E0E0E0BFE4E73E
:1004BC00E3BFE0E0E2BFA0E0B0E0EFDFE0E0EFBDE3
:1004CC00E1E0EEBDECEFEDBDE0EEECBDE4E0E7BF4E
:1004DC00E0E0E0937D00789408950A92EA93FA9311
:1004EC00EFB7EA93E0EEEDBDE0ECECBDBB20B1F074
:1004FC00E0EDF7E0EC15FD0511F4CC24DD240C2C1B
:10050C000D2811F49498959AE8EEF3E0EC15FD059E
:10051C0011F49598949AF60131966F01E991EFBF19
:10052C00F991E99109901895E4E0F0E0FA93EA93D7
:10053C00A7E0B0E001DF5E2EE0E0EA93A0E07ED021
:10054C00A0EAB2E0B1D0A42D0E949E08A42D0E9476
:10055C00A708E0E0EA93A1E071D0A6EAB2E0A4D04B
:10056C00A72D0E949E08A72D0E94A7080895E4E0DD
:10057C00F0E0FA93EA93A2E4B0E070DFA0E1A7D038
:10058C0061DFBC9A8F9A8C9A8D9ABA98C29ABB9852
:10059C00C39A8BDFC9DF641411F4871409F003C00C
:1005AC00AFEFB0E07ADFE1B7E03011F4941409F06A
:1005BC000DC0A0E0B0E071DFE4E1EA93EA93A0E0C3
:1005CC00B5E00E94FD07E1E0BE2EFFCFAAEFB0E040
:1005DC000E943909DFCFFFCFAA93E881E07111F0B7
:1005EC00DB9A01C0DB98E881E07211F0DC9A01C063
:1005FC00DC98E881E07411F0DD9A01C0DD98E881A7
:10060C00E07811F0DE9A01C0DE988DE08A95F1F762
:10061C00DA9A8DE08A95F1F7DA988DE08A95F1F700
:10062C000C94BC04AA93A881D7DFE881E295E883F7
:10063C00A881D2DF85E88A95F1F798C1AA93E88161
:10064C00F0E0E55CFA4FE081A981AE0FEBDFA98009
:10065C00E881E0933F050C943608A2E00E94B008B4
:10066C00ACE0E0DFA1E00E94B008E0E0E0933F05E1
:10067C00AE2E0895AA93A881AA3021F0E0914005EE
:10068C00AE1660F0E0E0EA93A0913F05AF5FA09357
:10069C003F05D4DFA881AA3009F468C1A394D89A85
:1006AC00A881C0DFD89862C1BA93AA931A93E98142
:1006BC00FA813196E983FA833197E4911E2FE03069
:1006CC0019F0A12FD7DFF3CF18810C947D08AA93D2
:1006DC00D39AD49AD59AD69AD29AD09AD19ADA98A1
:1006EC00D898D998E881E0934005E058E0933D050F
:1006FC00E881E054E0933E05A4E1B0E00E943909A2
:10070C000E94B6080E94B6080E94B608A0E264DFF8
:10071C0088EC90E00197F1F7A8E284DFA4E082DF97
:10072C00A5E880DFA6E07EDF98DF20C10895AA93BC
:10073C001A93E0916500EF7EE093650018E0F6DF18
:10074C00E981E07821F0E0916500E26003C0E0917E
:10075C006500ED7FE0936500E981EE0FE983E6DF4C
:10076C00E0916500E460E0936500E0DFE0916500F6
:10077C00EB7FE0936500115011F7E0916500E061AB
:10078C00E093650018810C943608AA93E0916500FB
:10079C00EE7FE0936500A881CADFE8C0AA93E091E0
:1007AC006500E160E0936500A881C1DFDFC0AA931A
:1007BC001A93E981E695E695E6951E2FE4E5E19F0F
:1007CC00F001DF01EA81F0E0EA0FFB1FE093410545
:1007DC00F0934205E12F18810C947D08AA93E981CE
:1007EC00E068AE2FD2DFE981EA93A981E0DFE06413
:1007FC00AE2FCBDF0C943608AA93E981EA93A9813A
:10080C00EDDFE0914105F0914205ED5BFA4FE0819F
:10081C000C943608AA930E94BE08A881A083BEDF60
:10082C00A5C0BA93AA930E94C309E0916400E06149
:10083C000E94C908E061E0936500E0916400E46007
:10084C000E94C908EB7FE0936500E0916400E260D0
:10085C00E0936400E0916400E160E0936400E09157
:10086C006400E8600E94C908E77FE0936500AAE095
:10087C00B0E00E943909E0916500E860E093650002
:10088C00EC81FD81309721F1E681E3701E2FEC8124
:10089C00FD81E681E695E695E7700E2FEC81FD81F2
:1008AC00E781EF773E2FAC81BD810E949C09E093DC
:1008BC000E05F0930F0512960E949C09E0932305F8
:1008CC00F0932405AC81BD8114960E949C090DC047
:1008DC0010E003E032E3E0E0F0E0E0930E05F0938B
:1008EC000F05E0932305F0932405E0932505F09381
:1008FC002605A1E24ADFE12FE460AE2F46DFE02FB0
:10090C00E061AE2F42DFE32FE068AE2F3EDFA0E2C6
:10091C003CDFA1E022D0E1E0E0930A05E0E0E093C7
:10092C000B05E1E0E0931005E0931105E09312054F
:10093C00EFEFE0931305E1E0E0931A05EBE1F5E04E
:10094C00FA93EA93EFEFEA93A8E0B0E00E941D0857
:10095C000FD0E1E00E94CA0960C0AA93E881E030A0
:10096C0011F0ECE001C0E8E0AE2F0FDF2196089506
:10097C000E94C30930E0E0910B05E03009F03FEF35
:10098C00E0E0EA93A0E02ADF08EF11E0F801015063
:10099C001040309719F0A32F3DDFF8CFE0E0EA9339
:1009AC00A0E039D30E94CA090C949C08AA931A930C
:1009BC00ED81EA93AD8120DF1E2FE981E73011F044
:1009CC00E83039F4EB81EA93AA810E943808EB8372
:1009DC0008C0E33021F4EB81E095EB8302C0E030FA
:1009EC0021F4EA81E0951E2302C0E23029F4EA8169
:1009FC00AB81EA231E2B0EC0E13029F4EA81AB81D6
:100A0C00EA231E2707C0E43029F4EA81E095AB8184
:100A1C00EA2B1E23A12FFEDE188126960895AA9399
:100A2C0023970E94C109A889A43548F4AF85A03347
:100A3C0030F4AE85A03019F0AD85A03009F4CCC1EE
:100A4C00EE85E887A889BB27EE85F0E0AE0FBF1FC7
:100A5C00A535E0E0BE0720F0A889E4E5EA1BEE87A7
:100A6C002D85AF85BB27ED85F0E0AE0FBF1FD1976D
:100A7C0020F0AF85E0E3EA1BED87A985A63009F0ED
:100A8C005BC0EC85E13009F4A7C1E33039F4E091A7
:100A9C002505F0912605309709F49EC10885ED8552
:100AAC00E695E695E6953E2FE22FE77019F4AD85B5
:100ABC002A17E9F0A02FBB27E32FF0E00E94600972
:100ACC00AA85BB850E94CE08269526952695532F80
:100ADC005F935F5FE22FAF91EA1748F0102FE12F81
:100AEC001150E03019F00E94D308F9CFF1CFAE8548
:100AFC000A1711F1EE85AA85BB85F0E00E94CE089D
:100B0C00ED85E77009F03F5F20E02F932F5FE32F17
:100B1C00AF91AE1788F41E851F931F5FE02FAF9126
:100B2C00AE1718F40E94D308F7CFEE85AE81BF81C3
:100B3C00F0E00E94CE08E9CFEF85E7703E2FED85FF
:100B4C00E03009F449C1EA85FB85EE83FF8310E0B0
:100B5C000889303009F063C0AD85A83008F45AC05C
:100B6C00E985E03011F0E33009F402C0E73009F414
:100B7C0002C0E83009F402C0E93009F402C0EA30DE
:100B8C0021F40A93A8892ADE04C0E63011F40E94ED
:100B9C00E0081F931F5FEE85AF91AE17A0F5A985F6
:100BAC00A63051F40E94E408FA93EA930E94BE081E
:100BBC00A0810E947F0826C0E985E93011F450E03D
:100BCC000EC0EA3011F45FEF0AC00E94E4080E94E4
:100BDC00ED085E2FE985E73011F0E83021F40E9432
:100BEC00F3085E2F06C0E33011F4509502C0E030DC
:100BFC0019F4A52FD3DD06C00E94F708EFEFEA9396
:100C0C00AD85D4DEC6CFEF85E85FEF87ED85E85084
:100C1C00ED87D9C05D8520E0E0E0ED877EC0E32F55
:100C2C00AD85AE0FA93020F42D85E0E0ED8703C033
:100C3C00E8E0E31B2E2F3A93A22F0E942D084E2F93
:100C4C00E985E63011F50E94E0081F931F5FEE85E1
:100C5C00AF91AE17C8F40E94BE08E081E423AE2F1A
:100C6C00E32F0E944F090E94FD08E32FA42F0E943E
:100C7C004F09E095E1215E2B0E94E408FA93EA9378
:100C8C00A52F0E947F08E1CF2CC0E93011F450E071
:100C9C0003C0EA30A9F45FEF0E94F308AE2FE32FF4
:100CAC000E9447095E2F1F931F5FEE85AF91AE1711
:100CBC0030F40E94F7084A93A0E078DEF4CF11C01C
:100CCC001F931F5FEE85AF91AE1758F40E94080971
:100CDC00AE2FE32F0E944709EA934A93AD8566DE57
:100CEC00EFCFED85E03009F477C0AD85A83028F45E
:100CFC00ED85E21B5E2FE0E003C0532FED85E8503D
:100D0C00ED8710E0EF85E85FEF87E8E0E31B2E2F1F
:100D1C000889EA85FB85EE83FF83E52FF0E0E05937
:100D2C00FD4F4491E985E63011F50E94E0081F93D0
:100D3C001F5FEE85AF91AE17C8F40E94BE08E0812C
:100D4C00E423AE2FE22F0E9447090E94FD08E22FF8
:100D5C00A42F0E944709E095E1215E2B0E94E40834
:100D6C00FA93EA93A52F0E947F08E1CF2CC0E930BB
:100D7C0011F450E003C0EA30A9F45FEF0E94F308CD
:100D8C00AE2FE22F0E944F095E2F1F931F5FEE853F
:100D9C00AF91AE1730F40E94F7084A93A0E006DE3C
:100DAC00F4CF11C01F931F5FEE85AF91AE1758F4AF
:100DBC000E940809AE2FE22F0E944F09EA934A9332
:100DCC00AD85F4DDEFCFE885AA85BB85F0E0EA0FB1
:100DDC00FB1FEA87FB87B3CE0E94C8096196089572
:100DEC000E9415091CF0E0E0F0E03AC1A881B9813D
:100DFC00A435E0E0BE071CF0E3E5F0E031C1E8818A
:100E0C00F9812EC10E9415091CF0E0E0F0E028C128
:100E1C00A881B981D0971CF0EFE2F0E021C1E88104
:100E2C00F9811EC1BA93AA9323970E941C098F01C2
:100E3C00002E012A19F4E0E0F0E05FC00E942309C3
:100E4C000F820E9423090E820E9423090886EB85DB
:100E5C00A885EA1718F4E0E0F0E04FC0F8010F5F46
:100E6C001F4F5491A885BB27EE27A50FBE1FEB85FE
:100E7C00F0E0EA17FB0718F0E0E0F0E03EC0EE818E
:100E8C00E695E695E6954E2FEE81E77009F04F5FFB
:100E9C00EF81E030A1F0A985BA85EC93A885EB85AC
:100EAC00EA1BF0E0DF01EF81F0E00E946009DF0156
:100EBC00E42FF0E00E946009E00FF11F1EC09801C2
:100ECC00E52FF0E00E0F1F1FA885AF5FA887A1507C
:100EDC00EB85AE1760F4F9012F5F3F4FA491B0E0A2
:100EEC00E42FF0E00E9460090E0F1F1FEDCFF901F7
:100EFC00E491A985BA85EC93F8010E94C8092C9657
:100F0C000895E0E0E0930C05A0910D05BB270E942D
:100F1C002809F0E0AE0FBF1FE0911105F0E0AE0F15
:100F2C00BF1F70DFE0930D050895AA9321970E94CF
:100F3C001C09309709F455C0AF81AA3009F44FC091
:100F4C00EF81EA93DE0117966DDFAF01309709F45C
:100F5C004AC0E0911005AE81EA0F3E2FA0910C051E
:100F6C00BB27F0E0EA0FFB1F8F010535E0E01E0701
:100F7C0018F0032F1127C5DFE0910C05EA93E091DF
:100F8C000D05EA93E885EA930E942809EA93E1E0CB
:100F9C00EA935A934A93A7E042DDE0910C05AE81A7
:100FAC00EA0FEA93E0910D05EA93E0911005EA93BC
:100FBC000E9428090E942F09E0910C05EA93A09148
:100FCC000D050E942809EA0FEA933A93E091110566
:100FDC000E942F09E4E5F0E0E017F10711F491DF2E
:100FEC0002C000930C050E94C80928960895BA9374
:100FFC00AA931A93EC81EA93AC810DD0A981BA81A2
:10100C00ED91A983BA831E2FE03019F0A12F8DDF4B
:10101C00F5CF18811AC0AA93A981BB27E1DEE09312
:10102C000C05A881BB27EEDEE0930D0519C0BA9321
:10103C00AA93B981A881109631F0FC81EB816A8169
:10104C0061931197E9F7EB81FC8125960895AA939A
:10105C00E881F0E0E059FD4FA491E9810E94470935
:10106C0022960895AA931A93E981E73011F0EA3099
:10107C0019F410910A0509C0E93019F410910B0507
:10108C0004C0E830A1F410911A05E0910B05E03092
:10109C0049F0103019F0EFEF188129C0EA81E09582
:1010AC00188125C0103019F4E0E0188120C0EA81C5
:1010BC0018811DC0BA93AA93EA81E13021F4E8812A
:1010CC00F981E49114C0E23029F4A881B9810E941D
:1010DC00A0090DC0E33041F4A881B981E09123054A
:1010EC00F0912405099503C0A881B981EC91239650
:1010FC000895AA93EB81E03029F4E881A981BA81A3
:10110C00EC9314C0E23031F4E881A981BA810E94D9
:10111C00AC090CC0E33051F4E981FA81FA93EA93FB
:10112C00AA81E0912505F09126050995249608954C
:10113C00B0E0EAE0F0E00E947B09E05DAE2F0C9499
:10114C004003BB27EAE0F0E00E948009E05DAE2F8F
:10115C000C9440030E941803A3E0B0E00C943909EE
:10116C00A0E30E94F20288EC90E00197F1F7089559
:10117C00A1E4B5E0ED91FD913196FE93EE9331979C
:10118C00ED5BFA4F0895E0936400E09165000895DB
:10119C00EA0FFB1FEE83FF830895EC85EA93EF8142
:1011AC00F8853196EF83F8873197FA93EA93A0E0AC
:1011BC000C947F080A93A8890C94DD03EC85EA93C0
:1011CC00EF81F8853196EF83F8873197089566277C
:1011DC007727DF01CB010C9460085A93AA850C94F5
:1011EC0038080A930395E889EA935A9308955E2F79
:1011FC00EC85EA93AF81B885882799270E9460080F
:10120C001E2E08950A930395E889EA93EE85EA93D6
:10121C00E985FA853196E987FA873197D8CFBA9361
:10122C00AA93A881B9810E94BD0908950E94C109A1
:10123C00E0910E05F0910F050895F8010F5F1F4F17
:10124C0004900895E0910E05F0910F053196E4910C
:10125C000895EA93E0E0EA93E0E0F0E0FA93EA9391
:10126C00A9E00C941505109639F080ED97E00197E4
:10127C00F1F7A8951197C9F70895F195E195F0400C
:10128C000895EE230E2EEA2F19F0EE0F0A94E9F7CB
:10129C000895EE230E2EEA2F19F0E6950A94E9F73D
:1012AC000895EE230E2EFD0121F0EE0FFF1F0A9480
:1012BC00E1F70895FA9FF02DEB9FF00DEA9FE02DDA
:1012CC00F10D08950024112490E1AA0FBB1F001CFE
:1012DC00111C0E1A1F0A18F40E0E1F1E01C0A1605D
:1012EC009A9599F7FD01D001089512D0EBDF0EF419
:1012FC00C4DF0895E894B7FF04C0A095B09511968B
:10130C006894F7FDBADFDEDFFD010EF4B6DF089559
:10131C00E894F7FF02C0B1DF6894B7FF06C0A09550
:10132C00B095119600F8039400FA0895ED91FC9194
:10133C0011970895E199FECFFF93FFB7F894AEBBD8
:10134C00BFBBE09AEDB3FFBFFF910895E19B02C0D4
:10135C00A895FCCF9FB7F894AEBBBFBBE09A8DB3FA
:10136C00E81719F0EDBBE29AE19A9FBF08950024AB
:10137C000A160B0608955A934A933A932A931A9392
:10138C000A9308955D814C813B812A8119810881E2
:10139C000895AC0FBD1F05900D928A95E1F7089545
:00000001FF
