:040000000C94A601B5
:100004000C9400000C9400000C9400000C9400006C
:100014000C9400000C9400000C9400000C9400005C
:100024000C9400000C9400000C9400000C9400004C
:100034000C9400000C94D6010C9400000C94000065
:100044000C9400000C9400000C9400000C9400002C
:100054000C9400000C9400000C9400000C9400001C
:100064000C9400000C9400000C9400000C9400000C
:100074000C9400000C9400000C9400000C940000FC
:100084000C9400000C9400000507206000000000A0
:100094000000005F00000007000700147F147F14B5
:1000A400242A7F2A122313086462364955225000F9
:1000B40005030000001C2241000041221C00082A04
:1000C4001C2A0808083E08080050300000080808E8
:1000D4000808003030000020100804023E51494551
:1000E4003E00427F400042615149462141454B3127
:1000F4001814127F1027454545393C4A49493001B7
:10010400710905033649494936064949291E00360D
:10011400360000005636000000081422411414145E
:10012400141441221408000201510906324979418C
:100134003E7E1111117E7F494949363E414141229B
:100144007F4141221C7F494949417F090901013E00
:10015400414151327F0808087F00417F410020401F
:10016400413F017F081422417F404040407F020408
:10017400027F7F0408107F3E4141413E7F09090907
:10018400063E4151215E7F091929464649494931B4
:1001940001017F01013F4040403F1F2040201F7F5D
:1001A4002018207F63140814630304780403615146
:1001B40049454300007F4141020408102041417F2A
:1001C40000000402010204404040404000010204D7
:1001D4000020545454787F484444383844444420DC
:1001E400384444487F3854545418087E090102089E
:1001F4001454543C7F0804047800447D400020409B
:10020400443D00007F10284400417F40007C0418D6
:1002140004787C0804047838444444387C14141466
:1002240008081414187C7C08040408485454542006
:10023400043F4440203C4040207C1C2040201C3C87
:100244004030403C44281028440C5050503C4464F6
:10025400544C44000836410000007F000000413641
:10026400080002010204027F4141417F00010307AB
:100274000F1F3F7FFF001027E80364000A000100FE
:100284000010000110000100000000004261742011
:10029400646175207861206E756F6300426174201B
:1002A4006461752076617400486F616E20746861C2
:1002B4006E6800436170206E756F63004261742044
:1002C4006461752067696174004D41592047494153
:1002D40054004254312E2047494154004254322E96
:1002E40020564154004254312E474941540042544F
:1002F400322E5641540080C001002D4E414E00491B
:100304004E460000030005008C0210000005900218
:100314000C001005A0020B001C05AC020900270507
:10032400B7020D003005C00209003D05CD020A00E8
:100334004605D60209005005E00202007007FA02E1
:1003440001007407FC020000F894EE27ECBBF1E016
:10035400F5BFE5BFE0936C008DE0A2E0BB27ED9311
:100364008A95E9F780E090E1A0E0B1E0ED93019790
:10037400E9F7E8E0F3E085919591009761F0A591A4
:10038400B59105901590BF01F00105900D9201976C
:10039400E1F7FB01F0CF8BBFEFEFEDBFE0E1EEBF84
:1003A400C0E0D5E00C9463020A92EA93FA93EFB7A3
:1003B400EA93E0EEEDBDE0ECECBD5520B1F0E0EDEC
:1003C400F7E0E615F70511F466247724062C0728D0
:1003D40011F49498959AE8EEF3E0E615F70511F414
:1003E4009598949AF30131963F01E991EFBFF99101
:1003F400E991099018950E946408A0E9B2E00E946E
:100404006808A0E0B5E00E946E0808950E946408A0
:10041400A0EAB2E00E946808A0E1B5E00E946E087C
:100424000E946408E8DFACEAB2E00E946808ACE12C
:10043400B5E00E9422070895AB9A0E946408EAE09E
:10044400EA93EA93A7E2B5E00E942207A7EBB2E0A1
:100454000E94A207A0EDB7E00E94FD08ACD10E9463
:100464008107AB98A0ECB2E00E946808A0E3B5E075
:100474000E946E080E946408A2E3B0E00E94FD0896
:10048400BADFC4DF0895BA93AA932897ECE8F0E0A2
:10049400E883F983EE81EC7FEE83EA85E770EE0F63
:1004A400EE0F0E2EEE81E37EE029EE83E885EF77F2
:1004B4000E2EEF81E078E029EF83DE01D5D00C9495
:1004C400AA06E4E0F0E0FA93EA93A2E4B0E0DBDF0A
:1004D400A0E10E94B407BA98C29ABB98C39AA39A9F
:1004E400A29A8D9A8C9ABC9A8F9AE0E0E0BFE4E7D6
:1004F400E3BFE0E0E2BFEFBDE1E0EEBDE0EEEDBD65
:10050400E0ECECBDE4E0E7BFE0E0E0937D0078944C
:10051400EAE0EA93EA93ADE3B5E00E942207EAE059
:10052400EA93E4E1EA93A6E4B5E00E942207EAE054
:10053400EA93EEE1EA93A0E5B5E00E942207A9EE72
:10054400B2E00E94A207E0E0EA93A1E00E947507EE
:10055400A2EFB2E00E94A207B29B6EDFB39B56DF0C
:10056400AAEFB0E00E94FD08F7CFFFCF0895AA9349
:100574001A93E0916500EF7EE093650018E0F6DFE2
:10058400E981E07821F0E0916500E26003C0E09148
:100594006500ED7FE0936500E981EE0FE983E6DF16
:1005A400E0916500E460E0936500E0DFE0916500C0
:1005B400EB7FE0936500115011F7E0916500E06175
:1005C400E093650018810C94FC07AA93E091650000
:1005D400EE7FE0936500A881CADF0C94E107AA933B
:1005E400E0916500E160E0936500A881C0DF0C94B0
:1005F400E107AA931A93E981E695E695E6951E2FFD
:10060400E4E5E19FF001DF01EA81F0E0EA0FFB1F7E
:10061400E0937605F0937705E12F18810C94430855
:10062400AA93E981E068AE2FD0DFE981EA93A9813A
:10063400E0DFE064AE2FC9DF0C94FC07AA93E981E4
:10064400EA93A981EDDFE0917605F0917705E8580A
:10065400FA4FE0810C94FC07AA930E947408A881C5
:10066400A083BDDF0C94E107BA93AA930E944609C4
:10067400E0916400E0610E947F08E061E09365001E
:10068400E0916400E4600E947F08EB7FE0936500E2
:10069400E0916400E260E0936400E0916400E16052
:1006A400E0936400E0916400E8600E947F08E77FC3
:1006B400E0936500AAE0B0E00E94FD08E0916500C7
:1006C400E860E0936500EC81FD81309721F1E681DB
:1006D400E3701E2FEC81FD81E681E695E695E770D7
:1006E4000E2FEC81FD81E781EF773E2FAC81BD8138
:1006F4000E941F09E0935D05F0935E0512960E9427
:100704001F09E0937205F0937305AC81BD811496C3
:100714000E941F090DC010E003E032E3E0E0F0E0C6
:10072400E0935D05F0935E05E0937205F093730525
:10073400E0937405F0937505A1E247DFE12FE460CF
:10074400AE2F43DFE02FE061AE2F3FDFE32FE06801
:10075400AE2F3BDFA0E239DFA1E022D0E1E0E0935D
:100764005905E0E0E0935A05E1E0E0935F05E0938A
:100774006005E0936105EFEFE0936205E1E0E0934B
:100784006905EAE6F5E0FA93EA93EFEFEA93A8E065
:10079400B0E00E94E3070FD0E1E00E944D0960C081
:1007A400AA93E881E03011F0ECE001C0E8E0AE2F5C
:1007B4000CDF0C94E1070E94460930E0E0915A05F1
:1007C400E03009F03FEFE0E0EA93A0E029DF08EF32
:1007D40011E0F80101501040309719F0A32F3CDFCD
:1007E400F8CFE0E0EA93A0E040D30E944D090C94D6
:1007F4006208AA931A93ED81EA93AD811FDF1E2F3D
:10080400E981E73011F0E83039F4EB81EA93AA8109
:100814000E94FE07EB8308C0E33021F4EB81E095EE
:10082400EB8302C0E03021F4EA81E0951E2302C08C
:10083400E23029F4EA81AB81EA231E2B0EC0E130B9
:1008440029F4EA81AB81EA231E2707C0E43029F4A6
:10085400EA81E095AB81EA2B1E23A12FFDDE1881EE
:1008640026960895AA9323970E944409A889A4353B
:1008740048F4AF85A03330F4AE85A03019F0AD85CF
:10088400A03009F4CCC1EE85E887A889BB27EE85A2
:10089400F0E0AE0FBF1FA535E0E0BE0720F0A88949
:1008A400E4E5EA1BEE872D85AF85BB27ED85F0E0F7
:1008B400AE0FBF1FD19720F0AF85E0E3EA1BED87B1
:1008C400A985A63009F05BC0EC85E13009F4A7C125
:1008D400E33039F4E0917405F0917505309709F42B
:1008E4009EC10885ED85E695E695E6953E2FE22FB7
:1008F400E77019F4AD852A17E9F0A02FBB27E32F81
:10090400F0E00E941709AA85BB850E9484082695F9
:1009140026952695532F5F935F5FE22FAF91EA17D9
:1009240048F0102FE12F1150E03019F00E9489088F
:10093400F9CFF1CFAE850A1711F1EE85AA85BB85F3
:10094400F0E00E948408ED85E77009F03F5F20E045
:100954002F932F5FE32FAF91AE1788F41E851F935B
:100964001F5FE02FAF91AE1718F40E948908F7CFEC
:10097400EE85AE81BF81F0E00E948408E9CFEF8567
:10098400E7703E2FED85E03009F449C1EA85FB8527
:10099400EE83FF8310E00889303009F063C0AD8531
:1009A400A83008F45AC0E985E03011F0E33009F4C6
:1009B40002C0E73009F402C0E83009F402C0E930AB
:1009C40009F402C0EA3021F40A93A88929DE04C09C
:1009D400E63011F40E9496081F931F5FEE85AF91D5
:1009E400AE17A0F5A985A63051F40E949A08FA938F
:1009F400EA930E947408A0810E94450826C0E985F4
:100A0400E93011F450E00EC0EA3011F45FEF0AC08F
:100A14000E949A080E94A3085E2FE985E73011F02E
:100A2400E83021F40E94A9085E2F06C0E33011F4D7
:100A3400509502C0E03019F4A52FD1DD06C00E9404
:100A4400AD08EFEFEA93AD85D4DEC6CFEF85E85F5E
:100A5400EF87ED85E850ED87D9C05D8520E0E0E0C3
:100A6400ED877EC0E32FAD85AE0FA93020F42D8530
:100A7400E0E0ED8703C0E8E0E31B2E2F3A93A22FBA
:100A84000E94F3074E2FE985E63011F50E9496087F
:100A94001F931F5FEE85AF91AE17C8F40E947408D0
:100AA400E081E423AE2FE32F0E940F090E94B308D4
:100AB400E32FA42F0E940F09E095E1215E2B0E94F1
:100AC4009A08FA93EA93A52F0E944508E1CF2CC017
:100AD400E93011F450E003C0EA30A9F45FEF0E945A
:100AE400A908AE2FE32F0E9407095E2F1F931F5FF3
:100AF400EE85AF91AE1730F40E94AD084A93A0E0A2
:100B040078DEF4CF11C01F931F5FEE85AF91AE174F
:100B140058F40E94BE08AE2FE32F0E940709EA93FF
:100B24004A93AD8566DEEFCFED85E03009F477C0FA
:100B3400AD85A83028F4ED85E21B5E2FE0E003C00C
:100B4400532FED85E850ED8710E0EF85E85FEF87E0
:100B5400E8E0E31B2E2F0889EA85FB85EE83FF83FB
:100B6400E52FF0E0E059FD4F4491E985E63011F5B9
:100B74000E9496081F931F5FEE85AF91AE17C8F4CD
:100B84000E947408E081E423AE2FE22F0E9407093B
:100B94000E94B308E22FA42F0E940709E095E121E7
:100BA4005E2B0E949A08FA93EA93A52F0E944508A7
:100BB400E1CF2CC0E93011F450E003C0EA30A9F4CD
:100BC4005FEF0E94A908AE2FE22F0E940F095E2F4B
:100BD4001F931F5FEE85AF91AE1730F40E94AD08EE
:100BE4004A93A0E006DEF4CF11C01F931F5FEE8589
:100BF400AF91AE1758F40E94BE08AE2FE22F0E94A8
:100C04000F09EA934A93AD85F4DDEFCFE885AA8511
:100C1400BB85F0E0EA0FFB1FEA87FB87B3CE0E9497
:100C24004B09619608950E94CB0824F0E0E0F0E0BF
:100C34000C94FC07A881B981A435E0E0BE0724F038
:100C4400E3E5F0E00C94FC07E881F9810C94FC07DF
:100C54000E94CB0824F0E0E0F0E00C94FC07A881AB
:100C6400B981D09724F0EFE2F0E00C94FC07E8811E
:100C7400F9810C94FC07BA93AA9323970E94D20893
:100C84008F01002E012A19F4E0E0F0E05FC00E9419
:100C9400D9080F820E94D9080E820E94D9080886BA
:100CA400EB85A885EA1718F4E0E0F0E04FC0F801FE
:100CB4000F5F1F4F5491A885BB27EE27A50FBE1FBA
:100CC400EB85F0E0EA17FB0718F0E0E0F0E03EC047
:100CD400EE81E695E695E6954E2FEE81E77009F0F4
:100CE4004F5FEF81E030A1F0A985BA85EC93A88528
:100CF400EB85EA1BF0E0DF01EF81F0E00E941709C9
:100D0400DF01E42FF0E00E941709E00FF11F1EC07D
:100D14009801E52FF0E00E0F1F1FA885AF5FA8878D
:100D2400A150EB85AE1760F4F9012F5F3F4FA491FA
:100D3400B0E0E42FF0E00E9417090E0F1F1FEDCF63
:100D4400F901E491A985BA85EC93F8010E944B0955
:100D54002C960895E0E0E0935B05A0915C05BB2729
:100D64000E94DE08F0E0AE0FBF1FE0916005F0E0E6
:100D7400AE0FBF1F6DDFE0935C050895AA93219722
:100D84000E94D208309709F455C0AF81AA3009F403
:100D94004FC0EF81EA93DE0117966DDFAF01309704
:100DA40009F44AC0E0915F05AE81EA0F3E2FA0919D
:100DB4005B05BB27F0E0EA0FFB1F8F010535E0E080
:100DC4001E0718F0032F1127C5DFE0915B05EA9396
:100DD400E0915C05EA93E885EA930E94DE08EA93D1
:100DE400E1E0EA935A934A93A7E03CDDE0915B0586
:100DF400AE81EA0FEA93E0915C05EA93E0915F0526
:100E0400EA930E94DE080E94E508E0915B05EA93FC
:100E1400A0915C050E94DE08EA0FEA933A93E09100
:100E240060050E94E508E4E5F0E0E017F10711F43D
:100E340091DF02C000935B050E944B092896089538
:100E4400BA93AA931A93EC81EA93AC810ED0A98148
:100E5400BA81ED91A983BA831E2FE03019F0A12F36
:100E64008DDFF5CF18810C94F107AA93A981BB27D4
:100E7400DADEE0935B05A881BB27EADEE0935C053C
:100E84000C94FC07AA93E881E07111F0DB9A01C08D
:100E9400DB98E881E07211F0DC9A01C0DC98E8810B
:100EA400E07411F0DD9A01C0DD98E881E07811F07A
:100EB400DE9A01C0DE988DE08A95F1F7DA9A8DE02A
:100EC4008A95F1F7DA988DE08A95F1F778C0AA93BC
:100ED400A881D8DFE881E295E883A881D3DF85E89B
:100EE4008A95F1F76CC0AA93E881F0E0E059F84FD5
:100EF400E081A981AE0FEBDF498098807BC0A2E03E
:100F04000E94EF08ACE0E3DFA1E00E94EF08E0E01C
:100F14009E2E4E2E0895AA93A881AA3011F048144B
:100F240048F0E0E0EA939394A92DDDDFA881AA308C
:100F340009F445C04394D89AA881C9DFD8983FC022
:100F4400BA93AA931A93E981FA813196E983FA83D1
:100F54003197E4911E2FE03019F0A12FDCDFF3CF9D
:100F640018818FC0AA93D39AD49AD59AD69AD29A32
:100F7400D09AD19ADA98D898D9988880E881E0589C
:100F8400E0937207E881E054E0937307A4E1B0E0D2
:100F94000E94FD080E94F5080E94F5080E94F508C9
:100FA400A0E270DF88EC90E00197F1F7A8E28FDF10
:100FB400A4E08DDFA5E88BDFA6E089DFA0DF219622
:100FC4000895BA93AA93B981A881109631F0FC814F
:100FD400EB816A8161931197E9F7EB81FC81259696
:100FE4000895AA93E881F0E0E059FD4FA491E981C6
:100FF4000E94070922960895AA931A93E981E7307B
:1010040011F0EA3019F41091590509C0E93019F4C6
:1010140010915A0504C0E830A1F410916905E091DB
:101024005A05E03049F0103019F0EFEF188129C06B
:10103400EA81E095188125C0103019F4E0E01881A8
:1010440020C0EA8118811DC0BA93AA93EA81E130D5
:1010540021F4E881F981E49114C0E23029F4A881F3
:10106400B9810E9423090DC0E33041F4A881B981FC
:10107400E0917205F0917305099503C0A881B981C7
:10108400EC9123960895AA93EB81E03029F4E8814A
:10109400A981BA81EC9314C0E23031F4E881A981CA
:1010A400BA810E942F090CC0E33051F4E981FA811E
:1010B400FA93EA93AA81E0917405F0917505099574
:1010C400249608950E9481070C94DD030E94A207D0
:1010D400EAE0EA93EA9308950E942207A0EDB7E0BC
:1010E4000C94FD08A6E7B5E0ED91FD913196FE93D1
:1010F400EE933197E858FA4F0895E0936400E09135
:1011040065000895EA0FFB1FEE83FF830895EC85C5
:10111400EA93EF81F8853196EF83F8873197FA9354
:10112400EA93A0E00C9445080A93A8890C94FB0266
:10113400EC85EA93EF81F8853196EF83F887319750
:10114400089566277727DF01CB010C9426085A936C
:10115400AA850C94FE070A930395E889EA935A93A7
:1011640008955E2FEC85EA93AF81B8858827992787
:101174000E9426081E2E08950A930395E889EA938F
:10118400EE85EA93E985FA853196E987FA873197FE
:10119400D8CFBA93AA93A881B9810E94400908952F
:1011A4000E944409E0915D05F0915E050895F801FF
:1011B4000F5F1F4F04900895E0915D05F0915E0567
:1011C4003196E4910895EA93E0E0EA93E0E0F0E0F8
:1011D400FA93EA93A9E00C9434040E946907A3E00B
:1011E400B0E00C94FD08A0E30E94440788EC90E072
:1011F4000197F1F70895109639F080ED97E0019783
:10120400F1F7A8951197C9F70895EE230E2EEA2F4A
:1012140019F0EE0F0A94E9F70895EE230E2EEA2F43
:1012240019F0E6950A94E9F70895FA9FF02DEB9FDB
:10123400F00DEA9FE02DF10D0895ED91FC911197C9
:101244000895E199FECFFF93FFB7F894AEBBBFBBFF
:10125400E09AEDB3FFBFFF910895E19B02C0A8950A
:10126400FCCF9FB7F894AEBBBFBBE09A8DB3E81731
:1012740019F0EDBBE29AE19A9FBF089500240A1683
:101284000B0608955A934A933A932A931A930A930E
:1012940008955D814C813B812A81198108810895DB
:00000001FF
