:080000000C9473010C94000044
:100008000C9400000C9400000C9400000C94000068
:100018000C9400000C9400000C9400000C94000058
:100028000C9400000C9400000C9400000C94000048
:100038000C94ED010C9400000C9400000C9400004A
:100048000C9400000C9400000C9400000C94000028
:100058000C9400000C9400000C9400000C94000018
:100068000C9400000C9400000C9400000C94000008
:100078000C9400000C9400000C9400000C940000F8
:100088000C94000005072060000000000000005FDD
:1000980000000007000700147F147F14242A7F2A19
:1000A80012231308646236495522500005030000E4
:1000B800001C2241000041221C00082A1C2A0808B2
:1000C800083E0808005030000008080808080030FA
:1000D80030000020100804023E5149453E00427F8E
:1000E800400042615149462141454B311814127F65
:1000F8001027454545393C4A4949300171090503EE
:100108003649494936064949291E00363600000055
:100118005636000000081422411414141414412205
:100128001408000201510906324979413E7E111135
:10013800117E7F494949363E414141227F41412252
:100148001C7F494949417F090901013E414151321A
:100158007F0808087F00417F41002040413F017F20
:10016800081422417F404040407F0204027F7F0400
:1001780008107F3E4141413E7F090909063E415131
:10018800215E7F09192946464949493101017F0104
:10019800013F4040403F1F2040201F7F2018207F04
:1001A8006314081463030478040361514945430048
:1001B800007F4141020408102041417F00000402F1
:1001C8000102044040404040000102040020545411
:1001D80054787F4844443838444444203844444898
:1001E8007F3854545418087E090102081454543CAA
:1001F8007F0804047800447D40002040443D00000E
:100208007F10284400417F40007C041804787C0853
:1002180004047838444444387C141414080814142A
:10022800187C7C080404084854545420043F444073
:10023800203C4040207C1C2040201C3C4030403C5E
:1002480044281028440C5050503C4464544C4400FA
:100258000836410000007F00000041360800020116
:100268000204027F4141417F000103070F1F3F7FC6
:10027800FF00FFFF00000000000000000100020076
:1002880003000400050006000700080009004441B7
:100298004E472043484F20434120414E2E2E2E00EA
:1002A80044414E472043484F20434120414E3A00A5
:1002B80080C001002D4E414E00494E4600000A0004
:1002C80004007A0211002F0584021200000596022C
:1002D80002005B07B80201006107BA020000F89447
:1002E800EE27ECBBF1E0F5BFE5BFE0936C008DE0D5
:1002F800A2E0BB27ED938A95E9F780E090E1A0E0C2
:10030800B1E0ED930197E9F7E6ECF2E0859195917C
:10031800009761F0A591B59105901590BF01F00186
:1003280005900D920197E1F7FB01F0CF8BBFEFEF3E
:10033800EDBFE0E1EEBFC0E0D5E00C948502BA93D2
:10034800AA932897ECE8F0E0E883F983EE81EC7F44
:10035800EE83EA85E770EE0FEE0F0E2EEE81E37E58
:10036800E029EE83E885EF770E2EEF81E078E0292B
:10037800EF83DE01ADD10C94E106A0E10E940808EC
:100388000E94C2070895BA93AA93A881EFEFEA1BC7
:10039800E1BF22960895A8E701C0AFEFB0E0F3DF10
:1003A8000895E0E0E0BFE4E7E3BFE0E0E2BFA0E0FB
:1003B800B0E0E9DFE0E0EFBDE1E0EEBDECEFEDBD80
:1003C800E0EEECBDE4E0E7BFE0E0E0937D00789488
:1003D8000895EA93FA93EFB7EA93ECEFEDBDE0EEF8
:1003E800ECBDF20131962F01E8ECF0E04E165F0605
:1003F80014F0442455244614570414F4AF9A01C049
:10040800AF98E991EFBFF991E9911895E9E0F0E02B
:10041800FA93EA93E8E0F0E0FA93EA93ABE0B0E00D
:100428000E945708A92D0E943B09E0934105F093CB
:100438004205692D7727E0914105F09142050E9418
:100448004109A0934305B0934405A82D0E943B0998
:10045800E0934505F0934605682D7727E09145051B
:10046800F09146050E944109A0934705B0934805BD
:10047800AB2D0E943B09E0934905F0934A056B2D8B
:100488007727E0914905F0914A050E944109A09318
:100498004B05B0934C050E944909A0914105A05D08
:1004A8000E94CF07A0914305A05D0E94CF07AAE351
:1004B8000E94CF07A0914505A05D0E94CF07A0919B
:1004C8004705A05D0E94CF07ABD1E0914105F091AF
:1004D80042050E945009E0914305F09144050E94AD
:1004E8005009AAE30E94F706E0914505F0914605F8
:1004F8000E945009E0914705F09148050E94500973
:1005080008958C9A8D9AC29AC39A979A8F9ABC9A90
:10051800A79AEFEFE0936100E1BBD79AE4E0F0E03F
:10052800FA93EA93A2E4B0E00ADF27DF3ADF0E94F9
:10053800F709E0E0EA93EA93A0E00E94380878948B
:10054800AF982BDFB29942C02297E5E0E883E0E05C
:10055800E983A881B981AF3FEFEFBE07F9F02A9789
:10056800EA85FB85FA93EA93DE0112960E947F08DA
:100578000E945A09DE0112960E9459070E94C2077A
:10058800DE010E94E907EA85FB853197EA87FB8748
:10059800A8EEB3E00E94480A2A96DBCFA881B98169
:1005A800AF3FEFEFBE0789F4F6DE0E945A09A0E0DC
:1005B800B5E00E9459070E944909A8EAB2E00E94E2
:1005C800F507A8E8B3E10E94480A22961FDFE5DE96
:1005D800B9CFFFCF0895AA931A93E0916500EF7EF3
:1005E800E093650018E0F6DFE981E07821F0E0911A
:1005F8006500E26003C0E0916500ED7FE09365006F
:10060800E981EE0FE983E6DFE0916500E460E093BD
:100618006500E0DFE0916500EB7FE0936500115035
:1006280011F7E0916500E061E093650018810C9492
:10063800C608AA93E0916500EE7FE0936500A88163
:10064800CADF0C943608AA93E0916500E160E09354
:100658006500A881C0DF0C943608AA931A93E98133
:10066800E695E695E6951E2FE4E5E19FF001DF01AA
:10067800EA81F0E0EA0FFB1FE0936105F093620561
:10068800E12F18810C940D09AA93E981E068AE2F37
:10069800D0DFE981EA93A981E0DFE064AE2FC9DF0A
:1006A8000C94C608AA93E981EA93A981EDDFE09149
:1006B8006105F0916205ED59FA4FE0810C94C60886
:1006C800AA930E946009A881A083BDDF0C94360814
:1006D800BA93AA930E94C00AE0916400E0610E9464
:1006E8006B09E061E0936500E0916400E4600E94BA
:1006F8006B09EB7FE0936500E0916400E260E093B2
:100708006400E0916400E160E0936400E0916400BB
:10071800E8600E946B09E77FE0936500AAE0B0E01B
:100728000E94480AE0916500E860E0936500EC816A
:10073800FD81309721F1E681E3701E2FEC81FD8168
:10074800E681E695E695E7700E2FEC81FD81E7815D
:10075800EF773E2FAC81BD810E94990AE093160580
:10076800F093170512960E94990AE0932B05F093CF
:100778002C05AC81BD8114960E94990A0DC010E029
:1007880003E032E3E0E0F0E0E0931605F0931705AC
:10079800E0932B05F0932C05E0932D05F0932E059F
:1007A800A1E247DFE12FE460AE2F43DFE02FE061F5
:1007B800AE2F3FDFE32FE068AE2F3BDFA0E239DF4B
:1007C800A1E023D0E1E0E0931205E0E0E093130517
:1007D800E1E0E0931805E0931905E0931A05EFEFBF
:1007E800E0931B05E1E0E0932205E3E2F5E0FA93EC
:1007F800EA93EFEFEA93A8E0B0E00E94AD0810D0CA
:10080800E1E00E94C70A0C947D08AA93E881E030D1
:1008180011F0ECE001C0E8E0AE2F0BDF0C943608D5
:100828000E94C00A30E0E0911305E03009F03FEF84
:10083800E0E0EA93A0E028DF08EF11E0F8010150BA
:100848001040309719F0A32F3BDFF8CFE0E0EA9390
:10085800A0E047D30E94C70A0C942C09AA931A93C4
:10086800ED81EA93AD811EDF1E2FE981E73011F09B
:10087800E83039F4EB81EA93AA810E94C808EB8337
:1008880008C0E33021F4EB81E095EB8302C0E0304F
:1008980021F4EA81E0951E2302C0E23029F4EA81BE
:1008A800AB81EA231E2B0EC0E13029F4EA81AB812B
:1008B800EA231E2707C0E43029F4EA81E095AB81DA
:1008C800EA2B1E23A12FFCDE18810C947D08AA9325
:1008D80023970E94BE0AA889A43548F4AF85A0339F
:1008E80030F4AE85A03019F0AD85A03009F4CCC144
:1008F800EE85E887A889BB27EE85F0E0AE0FBF1F1D
:10090800A535E0E0BE0720F0A889E4E5EA1BEE87FC
:100918002D85AF85BB27ED85F0E0AE0FBF1FD197C2
:1009280020F0AF85E0E3EA1BED87A985A63009F042
:100938005BC0EC85E13009F4A7C1E33039F4E091FC
:100948002D05F0912E05309709F49EC10885ED8597
:10095800E695E695E6953E2FE22FE77019F4AD850A
:100968002A17E9F0A02FBB27E32FF0E00E94660AC0
:10097800AA85BB850E947009269526952695532F32
:100988005F935F5FE22FAF91EA1748F0102FE12FD6
:100998001150E03019F00E947509F9CFF1CFAE85FA
:1009A8000A1711F1EE85AA85BB85F0E00E9470094F
:1009B800ED85E77009F03F5F20E02F932F5FE32F6D
:1009C800AF91AE1788F41E851F931F5FE02FAF917C
:1009D800AE1718F40E947509F7CFEE85AE81BF8176
:1009E800F0E00E947009E9CFEF85E7703E2FED85B2
:1009F800E03009F449C1EA85FB85EE83FF8310E006
:100A08000889303009F063C0AD85A83008F45AC0B1
:100A1800E985E03011F0E33009F402C0E73009F469
:100A280002C0E83009F402C0E93009F402C0EA3033
:100A380021F40A93A88928DE04C0E63011F40E9444
:100A480082091F931F5FEE85AF91AE17A0F5A985A8
:100A5800A63051F40E948609FA93EA930E9460092D
:100A6800A0810E940F0926C0E985E93011F450E001
:100A78000EC0EA3011F45FEF0AC00E9486090E9496
:100A88008F095E2FE985E73011F0E83021F40E94E4
:100A980095095E2F06C0E33011F4509502C0E0308E
:100AA80019F4A52FD0DD06C00E949909EFEFEA934B
:100AB800AD85D4DEC6CFEF85E85FEF87ED85E850DA
:100AC800ED87D9C05D8520E0E0E0ED877EC0E32FAB
:100AD800AD85AE0FA93020F42D85E0E0ED8703C089
:100AE800E8E0E31B2E2F3A93A22F0E94BD084E2F59
:100AF800E985E63011F50E9482091F931F5FEE8594
:100B0800AF91AE17C8F40E946009E081E423AE2FCC
:100B1800E32F0E945E0A0E949F09E32FA42F0E94E0
:100B28005E0AE095E1215E2B0E948609FA93EA931A
:100B3800A52F0E940F09E1CF2CC0E93011F450E035
:100B480003C0EA30A9F45FEF0E949509AE2FE32FA6
:100B58000E94560A5E2F1F931F5FEE85AF91AE1756
:100B680030F40E9499094A93A0E078DEF4CF11C0CE
:100B78001F931F5FEE85AF91AE1758F40E94AA0924
:100B8800AE2FE32F0E94560AEA934A93AD8566DE9C
:100B9800EFCFED85E03009F477C0AD85A83028F4B3
:100BA800ED85E21B5E2FE0E003C0532FED85E85092
:100BB800ED8710E0EF85E85FEF87E8E0E31B2E2F75
:100BC8000889EA85FB85EE83FF83E52FF0E0E0598D
:100BD800FD4F4491E985E63011F50E9482091F9383
:100BE8001F5FEE85AF91AE17C8F40E946009E081DF
:100BF800E423AE2FE22F0E94560A0E949F09E22F9B
:100C0800A42F0E94560AE095E1215E2B0E948609D6
:100C1800FA93EA93A52F0E940F09E1CF2CC0E9307F
:100C280011F450E003C0EA30A9F45FEF0E9495097F
:100C3800AE2FE22F0E945E0A5E2F1F931F5FEE8584
:100C4800AF91AE1730F40E9499094A93A0E006DEEE
:100C5800F4CF11C01F931F5FEE85AF91AE1758F404
:100C68000E94AA09AE2FE22F0E945E0AEA934A93D5
:100C7800AD85F4DDEFCFE885AA85BB85F0E0EA0F06
:100C8800FB1FEA87FB87B3CE0E94C50A61960895C9
:100C98000E94B70924F0E0E0F0E00C94C608A881AF
:100CA800B981A435E0E0BE0724F0E3E5F0E00C9458
:100CB800C608E881F9810C94C6080E94B70924F097
:100CC800E0E0F0E00C94C608A881B981D09724F040
:100CD800EFE2F0E00C94C608E881F9810C94C608AC
:100CE800BA93AA9323970E94BE098F01002E012A66
:100CF80019F4E0E0F0E05FC00E94C5090F820E948D
:100D0800C5090E820E94C5090886EB85A885EA17E1
:100D180018F4E0E0F0E04FC0F8010F5F1F4F549166
:100D2800A885BB27EE27A50FBE1FEB85F0E0EA17C5
:100D3800FB0718F0E0E0F0E03EC0EE81E695E695AE
:100D4800E6954E2FEE81E77009F04F5FEF81E030B6
:100D5800A1F0A985BA85EC93A885EB85EA1BF0E09C
:100D6800DF01EF81F0E00E94660ADF01E42FF0E086
:100D78000E94660AE00FF11F1EC09801E52FF0E0FF
:100D88000E0F1F1FA885AF5FA887A150EB85AE1770
:100D980060F4F9012F5F3F4FA491B0E0E42FF0E039
:100DA8000E94660A0E0F1F1FEDCFF901E491A98575
:100DB800BA85EC93F8010E94C50A2C960895E0E0E4
:100DC800E0931405A0911505BB270E94CA09F0E01D
:100DD800AE0FBF1FE0911905F0E0AE0FBF1F6DDF2A
:100DE800E09315050895AA9321970E94BE093097AC
:100DF80009F455C0AF81AA3009F44FC0EF81EA93D6
:100E0800DE0117966DDFAF01309709F44AC0E09113
:100E18001805AE81EA0F3E2FA0911405BB27F0E01C
:100E2800EA0FFB1F8F010535E0E01E0718F0032FBE
:100E38001127C5DFE0911405EA93E0911505EA93BF
:100E4800E885EA930E94CA09EA93E1E0EA935A9393
:100E58004A93A7E03CDDE0911405AE81EA0FEA93DE
:100E6800E0911505EA93E0911805EA930E94CA09F2
:100E78000E94D109E0911405EA93A09115050E94FA
:100E8800CA09EA0FEA933A93E09119050E94D10939
:100E9800E4E5F0E0E017F10711F491DF02C00093F8
:100EA80014050E94C50A28960895BA93AA931A931E
:100EB800EC81EA93AC8115D00E94DB0919F0A12FCF
:100EC80092DFFACF18810C94BB08BA93AA931A93AD
:100ED8000E94DB0919F0A12F86DFFACF18810C9444
:100EE8000D09AA93A981BB27D3DEE0931405A88135
:100EF800BB27E3DEE09315050C94C608AA93E881A6
:100F0800E07111F0DB9A01C0DB98E881E07211F022
:100F1800DC9A01C0DC98E881E07411F0DD9A01C028
:100F2800DD98E881E07811F0DE9A01C0DE988DE066
:100F38008A95F1F7DA9A8DE08A95F1F7DA988DE0DB
:100F48008A95F1F78FC0AA93A881D8DFE881E29546
:100F5800E883A881D3DF85E88A95F1F783C0AA934F
:100F6800E881F0E0E55AF84FE081A981AE0FEBDFA8
:100F7800C980E881E0935F070C94C608A2E00E944C
:100F8800E309ACE0E0DFA1E00E94E309E0E0E093E0
:100F98005F07CE2E0895AA93A881AA3021F0E09188
:100FA8006007CE1660F0E0E0EA93A0915F07AF5FBC
:100FB800A0935F07D4DFA881AA3009F453C0C39473
:100FC800D89AA881C0DFD8984DC0BA93AA931A932B
:100FD8000E94DB0919F0A12FDEDFFACF18810C94EB
:100FE8000D09BA93AA931A93E981FA813196E98394
:100FF800FA833197E4911E2FE03019F0A12FCBDF4F
:10100800F3CF18810C940D09AA93D39AD49AD59A40
:10101800D69AD29AD09AD19ADA98D898D998E8815B
:10102800E0936007E058E0935D07E881E054E093BF
:101038005E07A4E1B0E00E94480A0E94E9090E9404
:10104800E9090E94E909A0E259DF88EC90E00197DC
:10105800F1F7A8E278DFA4E076DFA5E874DFA6E080
:1010680072DF8CDF21960895AA93EA81E370EA8300
:10107800E981E03019F0EA81E061EA83E881E03053
:1010880019F0EA81E068EA830E94FC09A0ED0E9459
:10109800300AA7E00E94300AAA810E94300A0E9402
:1010A8000B0A0C940D09BA93AA930E94FC09A0EDAF
:1010B8000E94300AA0E00E94300A0E940B0A0E9497
:1010C800FC09A1ED0E94300A0E94F109A881B981AA
:1010D800EC930E94F109AA81BB81EC93A0E00E94E5
:1010E800150AAE2F0E942E09AC81BD81EC930E9497
:1010F8000B0A26960895BA93AA93A991B991E991F2
:10110800F99130962AF4E095F09531966DE26D9359
:10111800E89480E197E20DD088EE93E00AD084E667
:10112800992707D08AE005D06E2F10D066276C93D8
:1011380008956627E817F90720F06395E81BF90B6F
:10114800C9F7662311F416F008956894605D6D93ED
:101158000895BA93AA93B981A881109631F0FC81B9
:10116800EB816A8161931197E9F7EB81FC81259600
:101178000895AA93E881F0E0E059FD4FA491E98130
:101188000E94560A22960895AA931A93E981E73095
:1011980011F0EA3019F41091120509C0E93019F478
:1011A8001091130504C0E830A1F410912205E091D4
:1011B8001305E03049F0103019F0EFEF188129C01D
:1011C800EA81E095188125C0103019F4E0E0188113
:1011D80020C0EA8118811DC0BA93AA93EA81E13040
:1011E80021F4E881F981E49114C0E23029F4A8815E
:1011F800B9810E949D0A0DC0E33041F4A881B981EC
:10120800E0912B05F0912C05099503C0A881B981BF
:10121800EC9123960895AA93EB81E03029F4E881B4
:10122800A981BA81EC9314C0E23031F4E881A98134
:10123800BA810E94A90A0CC0E33051F4E981FA810D
:10124800FA93EA93AA81E0912D05F0912E0509956C
:1012580024960895AA93E881E295EF70AE2FAA0F1D
:10126800AA0FEA0FEE0FA991AF70EA0F0895B0E048
:10127800EAE0F0E00E94860A0895AAE0B0E00E9441
:101288006E0ADB01AE1BBF0B08950E94C207E0E0A7
:10129800EA93A0E00C94B307FA93EA93ADE4B5E0BF
:1012A8000E947F08ADE4B5E00C9469070E9414041D
:1012B800EFE0EA93EA930895A1E6B5E0ED91FD9198
:1012C8003196FE93EE933197ED59FA4F0895E093D6
:1012D8006400E09165000895EA0FFB1FEE83FF8329
:1012E8000895EC85EA93EF81F8853196EF83F887C6
:1012F8003197FA93EA93A0E00C940F090A93A8890E
:101308000C943103EC85EA93EF81F8853196EF83ED
:10131800F8873197089566277727DF01CB010C946A
:10132800F0085A93AA850C94C8080A930395E8898B
:10133800EA935A9308955E2FEC85EA93AF81B885B6
:10134800882799270E94F0081E2E08950A9303956E
:10135800E889EA93EE85EA93E985FA853196E98783
:10136800FA873197D8CFBA93AA93A881B9810E94F6
:10137800BA0A08950E94BE0AE0911605F091170571
:101388000895F8010F5F1F4F04900895E091160526
:10139800F09117053196E4910895EA93E0E0EA9315
:1013A800E0E0F0E0FA93EA93A9E00C946B04A981D9
:1013B800BA81ED91A983BA831E2FE03008950E9467
:1013C800A707A3E0B0E00C94480AA0E30E948207B4
:1013D80088EC90E00197F1F70895A1E00E94150AC2
:1013E800AE2F0C942E091E981F98169A179815C0A0
:1013F80017981698EE2700000F9B08950E9B0895E6
:1014080004D0179A02D0169AE1E06DE007C0179A47
:10141800169A03D01698F9DF17986BE16A95F1F7D9
:10142800089578E01698F1DF0E9BFECFEEDF8894E2
:101438000F990894169AF1DFEE1F7A9599F77A2F8B
:10144800772311F4179801C0179ADFDF1698E5DFA4
:10145800169ADBDF1798D9CF78E0AA0F10F41798FF
:1014680001C0179ADADF1698D0DF0E9BFECFCDDFCA
:10147800169A7A9591F71798C8DF1698CEDFE1E0AB
:101488000F99EE27169AC1CF109639F080ED97E0A4
:101498000197F1F7A8951197C9F70895F195E19586
:1014A800F0400895EE230E2EEA2F19F0EE0F0A945D
:1014B800E9F70895EE230E2EEA2F19F0E6950A941F
:1014C800E9F70895FA9FF02DEB9FF00DEA9FE02DC4
:1014D800F10D08951CD0F6DF0EF4E0DF0895002426
:1014E800112490E1AA0FBB1F001C111C0E1A1F0A21
:1014F80018F40E0E1F1E01C0A1609A9599F7FD0100
:10150800D001089504D0EBDF0EF4C8DF0895E89405
:10151800F7FF02C0C3DF6894B7FF06C0A095B09577
:10152800119600F8039400FA0895ED91FC91119733
:101538000895E199FECFFF93FFB7F894AEBBBFBB08
:10154800E09AEDB3FFBFFF910895E19B02C0A89513
:10155800FCCF9FB7F894AEBBBFBBE09A8DB3E8173A
:1015680019F0EDBBE29AE19A9FBF089500240A168C
:101578000B0608955A934A933A932A931A930A9317
:1015880008955D814C813B812A81198108810895E4
:00000001FF
