:0E0000000C946C010C9400000C9400000C9405
:10000E0000000C9400000C9400000C9400000C9462
:10001E0000000C9400000C9400000C9400000C9452
:10002E0000000C9400000C9400000C949C010C94A5
:10003E0000000C9400000C9400000C9400000C9432
:10004E0000000C9400000C9400000C9400000C9422
:10005E0000000C9400000C9400000C9400000C9412
:10006E0000000C9400000C9400000C9400000C9402
:10007E0000000C9400000C9400000C940000050786
:10008E002060000000000000005F00000007000775
:10009E0000147F147F14242A7F2A1223130864620B
:1000AE0036495522500005030000001C2241000075
:1000BE0041221C00082A1C2A0808083E0808005085
:1000CE003000000808080808003030000020100832
:1000DE0004023E5149453E00427F40004261514973
:1000EE00462141454B311814127F1027454545399D
:1000FE003C4A4949300171090503364949493606DA
:10010E004949291E00363600000056360000000808
:10011E001422411414141414412214080002015123
:10012E000906324979413E7E1111117E7F494949B6
:10013E00363E414141227F4141221C7F494949417E
:10014E007F090901013E414151327F0808087F00B5
:10015E00417F41002040413F017F081422417F40F2
:10016E004040407F0204027F7F0408107F3E4141E1
:10017E00413E7F090909063E4151215E7F09192939
:10018E0046464949493101017F01013F4040403F08
:10019E001F2040201F7F2018207F63140814630344
:1001AE0004780403615149454300007F4141020434
:1001BE0008102041417F000004020102044040402B
:1001CE004040000102040020545454787F484444B7
:1001DE00383844444420384444487F3854545418E2
:1001EE00087E090102081454543C7F080404780068
:1001FE00447D40002040443D00007F1028440041D3
:10020E007F40007C041804787C0804047838444449
:10021E0044387C14141408081414187C7C08040444
:10022E00084854545420043F4440203C4040207C15
:10023E001C2040201C3C4030403C44281028440CDC
:10024E005050503C4464544C440008364100000069
:10025E007F0000004136080002010204027F414186
:10026E00417F000103070F1F3F7FFF0000001C00AE
:10027E00351E00000000000000000000000000001D
:10028E0054454D503A0048554D493A005341592076
:10029E00584F4E47210080C001002D4E414E00495F
:1002AE004E4600000A0004007A02060000058E0287
:1002BE000600060594020A000C059A0202002F079A
:1002CE00A40201003507A6020000F894EE27ECBB4D
:1002DE00F1E0F5BFE5BFE0936C008DE0A2E0BB2737
:1002EE00ED938A95E9F780E090E1A0E0B1E0ED931F
:1002FE000197E9F7E2EBF2E085919591009761F0B5
:10030E00A591B59105901590BF01F00105900D9244
:10031E000197E1F7FB01F0CF8BBFEFEFEDBFE0E10F
:10032E00EEBFC0E0D5E00C94B8020A92EA93FA93BD
:10033E00EFB7EA93E0EEEDBDE0ECECBDBB20B1F023
:10034E00E0EDF7E0EC15FD0511F4CC24DD240C2CCA
:10035E000D2811F49498959AE8EEF3E0EC15FD054E
:10036E0011F49598949AF60131966F01E991EFBFC9
:10037E00F991E99109901895BA93AA932A978AE070
:10038E00A0E0B0E0E4E8F2E00E9410090E94040947
:10039E00BF9AC79A80EA8A95F1F7C798A9E1B0E0AB
:1003AE000E947A08BF98C79A80EA8A95F1F7B79BA0
:1003BE0002C0E0E063C0B79BFECF80EA8A95F1F7FA
:1003CE00B79902C0E0E05AC0B799FECF00E010E046
:1003DE000530E0E01E0764F520E030E02830E0E074
:1003EE003E071CF5B79BFECF85E88A95F1F7B79BC4
:1003FE0019C0F801DE011496EE0FFF1FEA0FFB1F66
:10040E00CF0160817181E7E0F0E0E21BF30BA1E028
:10041E00B0E00E949808E62BF72BDC01ED93FC93DD
:10042E00B799FECF2F5F3F4FD9CF0F5F1F4FD0CF62
:10043E00EE81FF81AC81BD81EA0FFB1FA885B985D6
:10044E00EA0FFB1FAA85BB85EA0FFB1FE09333055E
:10045E00F0933405EC85FD85A0913305B0913405FC
:10046E00EA17FB0711F0E0E009C0E885A889B98911
:10047E00EC93EC81AE85BF85EC93E1E00E940B0915
:10048E0062960895EAEEE09361008C9A8D9A8F9AA7
:10049E00BC9AC29AC39A979AA79A0895BA93AA93A6
:1004AE00A881EFEFEA1BE1BF0C948507BA93AA93DC
:1004BE002897ECE8F0E0E883F983EE81EC7FEE8399
:1004CE00EA85E770EE0FEE0F0E2EEE81E37EE02949
:1004DE00EE83E885EF770E2EEF81E078E029EF834B
:1004EE00DE01E5D00C94D206E0E0E0BFE4E7E3BF26
:1004FE00E0E0E2BFA0E0B0E0D1DFE0E0EFBDE1E0A0
:10050E00EEBDECEFEDBDE0EEECBDE4E0E7BFE0E00C
:10051E00E0937D0078940895E4E0F0E0FA93EA9396
:10052E00A7E0B0E029DF5E2E69D1E0E0EA93EA931E
:10053E00A0E0B5E00E944A07A42D0E94ED07A42D6D
:10054E000E94F607E0E0EA93EAE0EA93A6E0B5E05F
:10055E000E944A07A72D0E94ED07A72D0E94F607BD
:10056E000895E4E0F0E0FA93EA93A2E4B0E09EDFAF
:10057E0089DFBADFD1DF641411F4871409F003C0E8
:10058E00AFEFB0E08BDFE1B7E03011F4941409F077
:10059E000DC0A0E0B0E082DFE4E1EA93EA93ACE0C4
:1005AE00B5E00E944A07E1E0BE2EFFCFAAEFB0E011
:1005BE000E947A08DFCFFFCF0895AA931A93E09195
:1005CE006500EF7EE093650018E0F6DFE981E078E4
:1005DE0021F0E0916500E26003C0E0916500ED7FDF
:1005EE00E0936500E981EE0FE983E6DFE0916500B7
:1005FE00E460E0936500E0DFE0916500EB7FE0935F
:10060E006500115011F7E0916500E061E09365001F
:10061E0018810C948507AA93E0916500EE7FE09314
:10062E006500A881CADFE8C0AA93E0916500E16089
:10063E00E0936500A881C1DFDFC0AA931A93E98118
:10064E00E695E695E6951E2FE4E5E19FF001DF01C4
:10065E00EA81F0E0EA0FFB1FE0933505F0933605D3
:10066E00E12F18810C94CC07AA93E981E068AE2F94
:10067E00D2DFE981EA93A981E0DFE064AE2FCBDF20
:10068E000C948507AA93E981EA93A981EDDFE091A5
:10069E003505F0913605E95CFA4FE0810C9485073B
:1006AE00AA930E94FF07A881A083BEDFA5C0BA93BC
:1006BE00AA930E940409E0916400E0610E940A0876
:1006CE00E061E0936500E0916400E4600E940A0836
:1006DE00EB7FE0936500E0916400E260E0936400DC
:1006EE00E0916400E160E0936400E0916400E860F2
:1006FE000E940A08E77FE0936500AAE0B0E00E943E
:10070E007A08E0916500E860E0936500EC81FD8178
:10071E00309721F1E681E3701E2FEC81FD81E68199
:10072E00E695E695E7700E2FEC81FD81E781EF7778
:10073E003E2FAC81BD810E94DD08E0931A05F09337
:10074E001B0512960E94DD08E0932F05F0933005ED
:10075E00AC81BD8114960E94DD080DC010E003E04F
:10076E0032E3E0E0F0E0E0931A05F0931B05E0932E
:10077E002F05F0933005E0933105F0933205A1E299
:10078E004ADFE12FE460AE2F46DFE02FE061AE2FAF
:10079E0042DFE32FE068AE2F3EDFA0E23CDFA1E0B8
:1007AE0022D0E1E0E0931605E0E0E0931705E1E0EA
:1007BE00E0931C05E0931D05E0931E05EFEFE0931B
:1007CE001F05E1E0E0932605E7E2F5E0FA93EA93F0
:1007DE00EFEFEA93A8E0B0E00E946C070FD0E1E0E3
:1007EE000E940B0960C0AA93E881E03011F0ECE0A2
:1007FE0001C0E8E0AE2F0FDF219608950E94040994
:10080E0030E0E0911705E03009F03FEFE0E0EA93C9
:10081E00A0E02ADF08EF11E0F801015010403097F8
:10082E0019F0A32F3DDFF8CFE0E0EA93A0E040D32C
:10083E000E940B090C94EB07AA931A93ED81EA938D
:10084E00AD8120DF1E2FE981E73011F0E83039F459
:10085E00EB81EA93AA810E948707EB8308C0E330FD
:10086E0021F4EB81E095EB8302C0E03021F4EA81C4
:10087E00E0951E2302C0E23029F4EA81AB81EA231F
:10088E001E2B0EC0E13029F4EA81AB81EA231E272C
:10089E0007C0E43029F4EA81E095AB81EA2B1E23F0
:1008AE00A12FFEDE188126960895AA9323970E9403
:1008BE000209A889A43548F4AF85A03330F4AE857B
:1008CE00A03019F0AD85A03009F4CCC1EE85E887D3
:1008DE00A889BB27EE85F0E0AE0FBF1FA535E0E07F
:1008EE00BE0720F0A889E4E5EA1BEE872D85AF85CB
:1008FE00BB27ED85F0E0AE0FBF1FD19720F0AF857F
:10090E00E0E3EA1BED87A985A63009F05BC0EC8514
:10091E00E13009F4A7C1E33039F4E0913105F091EB
:10092E003205309709F49EC10885ED85E695E6956A
:10093E00E6953E2FE22FE77019F4AD852A17E9F000
:10094E00A02FBB27E32FF0E00E94A108AA85BB854C
:10095E000E940F08269526952695532F5F935F5F6D
:10096E00E22FAF91EA1748F0102FE12F1150E0302F
:10097E0019F00E941408F9CFF1CFAE850A1711F1C4
:10098E00EE85AA85BB85F0E00E940F08ED85E77025
:10099E0009F03F5F20E02F932F5FE32FAF91AE174B
:1009AE0088F41E851F931F5FE02FAF91AE1718F4CA
:1009BE000E941408F7CFEE85AE81BF81F0E00E9451
:1009CE000F08E9CFEF85E7703E2FED85E03009F493
:1009DE0049C1EA85FB85EE83FF8310E0088930303C
:1009EE0009F063C0AD85A83008F45AC0E985E0303F
:1009FE0011F0E33009F402C0E73009F402C0E83028
:100A0E0009F402C0E93009F402C0EA3021F40A9375
:100A1E00A8892ADE04C0E63011F40E9421081F9333
:100A2E001F5FEE85AF91AE17A0F5A985A63051F4E4
:100A3E000E942508FA93EA930E94FF07A0810E9464
:100A4E00CE0726C0E985E93011F450E00EC0EA3039
:100A5E0011F45FEF0AC00E9425080E942E085E2F37
:100A6E00E985E73011F0E83021F40E9434085E2F5A
:100A7E0006C0E33011F4509502C0E03019F4A52FF2
:100A8E00D3DD06C00E943808EFEFEA93AD85D4DEC1
:100A9E00C6CFEF85E85FEF87ED85E850ED87D9C0CB
:100AAE005D8520E0E0E0ED877EC0E32FAD85AE0FE3
:100ABE00A93020F42D85E0E0ED8703C0E8E0E31BCC
:100ACE002E2F3A93A22F0E947C074E2FE985E630F7
:100ADE0011F50E9421081F931F5FEE85AF91AE178F
:100AEE00C8F40E94FF07E081E423AE2FE32F0E949B
:100AFE0090080E943E08E32FA42F0E949008E095D4
:100B0E00E1215E2B0E942508FA93EA93A52F0E94FD
:100B1E00CE07E1CF2CC0E93011F450E003C0EA302B
:100B2E00A9F45FEF0E943408AE2FE32F0E948808CD
:100B3E005E2F1F931F5FEE85AF91AE1730F40E94AC
:100B4E0038084A93A0E078DEF4CF11C01F931F5FE0
:100B5E00EE85AF91AE1758F40E944908AE2FE32FE1
:100B6E000E948808EA934A93AD8566DEEFCFED8545
:100B7E00E03009F477C0AD85A83028F4ED85E21B8E
:100B8E005E2FE0E003C0532FED85E850ED8710E0B7
:100B9E00EF85E85FEF87E8E0E31B2E2F0889EA85F3
:100BAE00FB85EE83FF83E52FF0E0E059FD4F449186
:100BBE00E985E63011F50E9421081F931F5FEE852F
:100BCE00AF91AE17C8F40E94FF07E081E423AE2F69
:100BDE00E22F0E9488080E943E08E22FA42F0E9456
:100BEE008808E095E1215E2B0E942508FA93EA938E
:100BFE00A52F0E94CE07E1CF2CC0E93011F450E0B2
:100C0E0003C0EA30A9F45FEF0E943408AE2FE22F42
:100C1E000E9490085E2F1F931F5FEE85AF91AE1757
:100C2E0030F40E9438084A93A0E006DEF4CF11C0DB
:100C3E001F931F5FEE85AF91AE1758F40E944908BF
:100C4E00AE2FE22F0E949008EA934A93AD85F4DD11
:100C5E00EFCFE885AA85BB85F0E0EA0FFB1FEA8798
:100C6E00FB87B3CE0E940909619608950E9456082B
:100C7E0024F0E0E0F0E00C948507A881B981A4355A
:100C8E00E0E0BE0724F0E3E5F0E00C948507E88190
:100C9E00F9810C9485070E94560824F0E0E0F0E0FC
:100CAE000C948507A881B981D09724F0EFE2F0E08B
:100CBE000C948507E881F9810C948507BA93AA9361
:100CCE0023970E945D088F01002E012A19F4E0E09F
:100CDE00F0E05FC00E9464080F820E9464080E82DA
:100CEE000E9464080886EB85A885EA1718F4E0E0F0
:100CFE00F0E04FC0F8010F5F1F4F5491A885BB273E
:100D0E00EE27A50FBE1FEB85F0E0EA17FB0718F0E4
:100D1E00E0E0F0E03EC0EE81E695E695E6954E2FDA
:100D2E00EE81E77009F04F5FEF81E030A1F0A98509
:100D3E00BA85EC93A885EB85EA1BF0E0DF01EF8125
:100D4E00F0E00E94A108DF01E42FF0E00E94A1086C
:100D5E00E00FF11F1EC09801E52FF0E00E0F1F1FD0
:100D6E00A885AF5FA887A150EB85AE1760F4F90197
:100D7E002F5F3F4FA491B0E0E42FF0E00E94A10856
:100D8E000E0F1F1FEDCFF901E491A985BA85EC93E3
:100D9E00F8010E9409092C960895E0E0E0931805E9
:100DAE00A0911905BB270E946908F0E0AE0FBF1F86
:100DBE00E0911D05F0E0AE0FBF1F6DDFE09319054A
:100DCE000895AA9321970E945D08309709F455C0A3
:100DDE00AF81AA3009F44FC0EF81EA93DE01179676
:100DEE006DDFAF01309709F44AC0E0911C05AE816A
:100DFE00EA0F3E2FA0911805BB27F0E0EA0FFB1F6C
:100E0E008F010535E0E01E0718F0032F1127C5DF0F
:100E1E00E0911805EA93E0911905EA93E885EA93C3
:100E2E000E946908EA93E1E0EA935A934A93A7E095
:100E3E003CDDE0911805AE81EA0FEA93E0911905C9
:100E4E00EA93E0911C05EA930E9469080E947008DB
:100E5E00E0911805EA93A09119050E946908EA0F1E
:100E6E00EA933A93E0911D050E947008E4E5F0E0E4
:100E7E00E017F10711F491DF02C0009318050E94EC
:100E8E00090928960895BA93AA931A93EC81EA93C6
:100E9E00AC810ED0A981BA81ED91A983BA831E2FA0
:100EAE00E03019F0A12F8DDFF5CF18810C947A0761
:100EBE00AA93A981BB27DADEE0931805A881BB2788
:100ECE00EADEE09319050C948507BA93AA93B981CB
:100EDE00A881109631F0FC81EB816A8161931197A4
:100EEE00E9F7EB81FC8125960895AA93E881F0E05D
:100EFE00E059FD4FA491E9810E9488082296089539
:100F0E00AA931A93E981E73011F0EA3019F410919F
:100F1E00160509C0E93019F41091170504C0E83020
:100F2E00A1F410912605E0911705E03049F010303C
:100F3E0019F0EFEF188129C0EA81E095188125C0DC
:100F4E00103019F4E0E0188120C0EA8118811DC02C
:100F5E00BA93AA93EA81E13021F4E881F981E49110
:100F6E0014C0E23029F4A881B9810E94E1080DC0B5
:100F7E00E33041F4A881B981E0912F05F09130055D
:100F8E00099503C0A881B981EC9123960895AA937F
:100F9E00EB81E03029F4E881A981BA81EC9314C089
:100FAE00E23031F4E881A981BA810E94ED080CC0CB
:100FBE00E33051F4E981FA81FA93EA93AA81E09140
:100FCE003105F0913205099524960895B0E0EAE0D6
:100FDE00F0E00E94BC08E05DAE2F0C94E806BB2743
:100FEE00EAE0F0E00E94C108E05DAE2F0C94E80646
:100FFE00A5E3B5E0ED91FD913196FE93EE93319719
:10100E00E95CFA4F0895E0936400E091650008955D
:10101E00EA0FFB1FEE83FF830895EC85EA93EF81C1
:10102E00F8853196EF83F8873197FA93EA93A0E02B
:10103E000C94CE070A93A8890C942403EC85EA93AA
:10104E00EF81F8853196EF83F887319708956627FB
:10105E007727DF01CB010C94AF075A93AA850C9426
:10106E0087070A930395E889EA935A9308955E2FAA
:10107E00EC85EA93AF81B885882799270E94AF0740
:10108E001E2E08950A930395E889EA93EE85EA9356
:10109E00E985FA853196E987FA873197D8CFBA93E1
:1010AE00AA93A881B9810E94FE0808950E940209A0
:1010BE00E0911A05F0911B050895F8010F5F1F4F7F
:1010CE0004900895E0911A05F0911B053196E49174
:1010DE000895EA93E0E0EA93E0E0F0E0FA93EA9311
:1010EE00A9E00C945C04109639F080ED97E001971E
:1010FE00F1F7A8951197C9F70895F195E195F0408C
:10110E000895EE230E2EEA2F19F0EE0F0A94E9F74A
:10111E000895EE230E2EEA2F19F0E6950A94E9F7BC
:10112E000895EE230E2EFD0121F0EE0FFF1F0A94FF
:10113E00E1F70895FA9FF02DEB9FF00DEA9FE02D59
:10114E00F10D08950024112490E1AA0FBB1F001C7D
:10115E00111C0E1A1F0A18F40E0E1F1E01C0A160DC
:10116E009A9599F7FD01D001089512D0EBDF0EF498
:10117E00C4DF0895E894B7FF04C0A095B09511960A
:10118E006894F7FDBADFDEDFFD010EF4B6DF0895D9
:10119E00E894F7FF02C0B1DF6894B7FF06C0A095D0
:1011AE00B095119600F8039400FA0895ED91FC9114
:1011BE0011970895E199FECFFF93FFB7F894AEBB58
:1011CE00BFBBE09AEDB3FFBFFF910895E19B02C054
:1011DE00A895FCCF9FB7F894AEBBBFBBE09A8DB37A
:1011EE00E81719F0EDBBE29AE19A9FBF089500242B
:1011FE000A160B0608955A934A933A932A931A9312
:10120E000A9308955D814C813B812A811981088161
:10121E000895AC0FBD1F05900D928A95E1F70895C4
:00000001FF
