:100000000C948D010C9400000C9400000C940000E2
:100010000C9400000C9400000C9400000C94000060
:100020000C9400000C9400000C9400000C94000050
:100030000C9400000C9400000C94BD010C94000082
:100040000C9400000C9400000C9400000C94000030
:100050000C9400000C9400000C9400000C94000020
:100060000C9400000C9400000C9400000C94000010
:100070000C9400000C9400000C9400000C94000000
:100080000C9400000C9400000C9400000507206004
:10009000000000000000005F0000000700070014DF
:1000A0007F147F14242A7F2A12231308646236499E
:1000B0005522500005030000001C2241000041228F
:1000C0001C00082A1C2A0808083E080800503000B6
:1000D000000808080808003030000020100804025A
:1000E0003E5149453E00427F400042615149462110
:1000F00041454B311814127F1027454545393C4A7C
:1001000049493001710905033649494936064949CB
:10011000291E003636000000563600000008142262
:100120004114141414144122140800020151090648
:10013000324979413E7E1111117E7F494949363E4F
:10014000414141227F4141221C7F494949417F0968
:100150000901013E414151327F0808087F00417F7B
:1001600041002040413F017F081422417F40404030
:10017000407F0204027F7F0408107F3E4141413EE0
:100180007F090909063E4151215E7F09192946462A
:100190004949493101017F01013F4040403F1F2053
:1001A00040201F7F2018207F631408146303047805
:1001B0000403615149454300007F41410204081096
:1001C0002041417F000004020102044040404040C1
:1001D000000102040020545454787F4844443838C5
:1001E00044444420384444487F3854545418087ECA
:1001F000090102081454543C7F0804047800447D2B
:1002000040002040443D00007F10284400417F40D2
:10021000007C041804787C0804047838444444388A
:100220007C14141408081414187C7C08040408486E
:1002300054545420043F4440203C4040207C1C2027
:1002400040201C3C4030403C44281028440C505076
:10025000503C4464544C44000836410000007F0088
:1002600000004136080002010204027F4141417F43
:10027000000103070F1F3F7FFF0000001C00351E19
:100280000000000001000200030004000500060059
:100290000700080009000000000000000000000046
:1002A00054454D503A0048554D493A00456E7465E5
:1002B000722054656D703A2000456E746572204856
:1002C000756D69646974793A200053415920584F1B
:1002D0004E47210080C001002D4E414E00494E4640
:1002E00000000A0004007A02110051058402060091
:1002F0000005A00206000605A6020D000C05AC02D2
:1003000011001905B9020A002A05CA020200710784
:10031000D40201007707D6020000F894EE27ECBB68
:10032000F1E0F5BFE5BFE0936C008DE0A2E0BB27F4
:10033000ED938A95E9F780E090E1A0E0B1E0ED93DC
:100340000197E9F7E2EEF2E085919591009761F06F
:10035000A591B59105901590BF01F00105900D9202
:100360000197E1F7FB01F0CF8BBFEFEFEDBFE0E1CD
:10037000EEBFC0E0D5E00C942F030A92EA93FA9303
:10038000EFB7EA93E0EEEDBDE0ECECBDBB20B1F0E1
:10039000E0EDF7E0EC15FD0511F4CC24DD240C2C88
:1003A0000D2811F49498959AE8EEF3E0EC15FD050C
:1003B00011F49598949AF60131966F01E991EFBF87
:1003C000F991E99109901895BA93AA932A978AE02E
:1003D000A0E0B0E0E6E9F2E00E94290A0E941D0ACE
:1003E000BF9AC79A80EA8A95F1F7C798A9E1B0E069
:1003F0000E949309BF98C79A80EA8A95F1F7B79B44
:1004000002C0E0E063C0B79BFECF80EA8A95F1F7B7
:10041000B79902C0E0E05AC0B799FECF00E010E003
:100420000530E0E01E0764F520E030E02830E0E031
:100430003E071CF5B79BFECF85E88A95F1F7B79B81
:1004400019C0F801DE011496EE0FFF1FEA0FFB1F23
:10045000CF0160817181E7E0F0E0E21BF30BA1E0E6
:10046000B0E00E94B109E62BF72BDC01ED93FC9381
:10047000B799FECF2F5F3F4FD9CF0F5F1F4FD0CF20
:10048000EE81FF81AC81BD81EA0FFB1FA885B98594
:10049000EA0FFB1FAA85BB85EA0FFB1FE0937505DA
:1004A000F0937605EC85FD85A0917505B0917605F4
:1004B000EA17FB0711F0E0E009C0E885A889B989CF
:1004C000EC93EC81AE85BF85EC93E1E00E94240AB9
:1004D00062960895EAEEE09361008C9A8D9A8F9A65
:1004E000BC9AC29AC39A979AA79A0895BA93AA9364
:1004F000A881EFEFEA1BE1BF22960895BA93AA9371
:100500002897ECE8F0E0E883F983EE81EC7FEE8356
:10051000EA85E770EE0FEE0F0E2EEE81E37EE02906
:10052000EE83E885EF770E2EEF81E078E029EF8308
:10053000DE016BD10C947907E0E0E0BFE4E7E3BFB4
:10054000E0E0E2BFA0E0B0E0D1DFE0E0EFBDE1E05D
:10055000EEBDECEFEDBDE0EEECBDE4E0E7BFE0E0CA
:10056000E0937D0078940895E4E0F0E0FA93EA9354
:10057000A7E0B0E029DF5E2E0E94DF08A0E0B5E032
:100580000E94F107A42D0E94E508A42D0E94EE0808
:10059000E0E0EA93EAE0EA93A6E0B5E00E94F10722
:1005A000A72D0E94E508A72D0E94EE0808950E943D
:1005B0001B0A40E050E04330E0E05E070CF04CC026
:1005C000042E052A19F4EDEFE0936200E1E0F0E07B
:1005D000E417F50719F4E7EFE0936200E2E0F0E0DA
:1005E000E417F50719F4EFEDE093620020E030E046
:1005F0002330E0E03E076CF5022E032A39F4E0B127
:10060000E4701E2F143011F00E94F708E1E0F0E0D2
:10061000E217F30759F4A2E3B0E00E949309E0B1B6
:10062000E0711E2F103111F00E94F708E2E0F0E0B7
:10063000E217F30759F4A2E3B0E00E949309E0B196
:10064000E1701E2F113011F00E94F7082F5F3F4F0D
:10065000CFCF4F5F5F4FAFCF0E94220AD2C1E4E0FD
:10066000F0E0FA93EA93A2E4B0E048DF33DF64DF1E
:100670009EDF0E941409B29929C00E94DF08ACE0F5
:10068000B5E00E94F107A0917305B091740514972D
:10069000D4F3A3E6B5E00E9413084E2EE0E0EA93FF
:1006A000EAE0EA93A9E1B5E00E94F107E0E0E09317
:1006B0007305E0937405A0917305B09174051497C8
:1006C000D4F3A3E6B5E00E9413087E2EB3991EC0B2
:1006D0004BDF641411F4871409F003C0AFEFB0E0EE
:1006E00005DFE1B7E03011F4941409F00DC0A0E08B
:1006F000B0E0FCDEE4E1EA93EA93AAE2B5E00E940E
:10070000F107E1E0BE2EFFCF0E9414090E941409F8
:10071000AFCFFFCF0895AA931A93E0916500EF7EC3
:10072000E093650018E0F6DFE981E07821F0E091E0
:100730006500E26003C0E0916500ED7FE093650035
:10074000E981EE0FE983E6DFE0916500E460E09384
:100750006500E0DFE0916500EB7FE09365001150FC
:1007600011F7E0916500E061E093650018810C9459
:100770006308AA93E0916500EE7FE0936500A8818D
:10078000CADFE8C0AA93E0916500E160E0936500EC
:10079000A881C1DFDFC0AA931A93E981E695E695A7
:1007A000E6951E2FE4E5E19FF001DF01EA81F0E02C
:1007B000EA0FFB1FE0937705F0937805E12F18818E
:1007C0000C94AA08AA93E981E068AE2FD2DFE981F0
:1007D000EA93A981E0DFE064AE2FCBDF0C946308DD
:1007E000AA93E981EA93A981EDDFE0917705F09181
:1007F0007805E758FA4FE0810C946308AA930E94A9
:100800001809A881A083BEDFA5C0BA93AA930E944D
:100810001D0AE0916400E0610E942309E061E09319
:100820006500E0916400E4600E942309EB7FE0939F
:100830006500E0916400E260E0936400E091640090
:10084000E160E0936400E0916400E8600E942309A5
:10085000E77FE0936500AAE0B0E00E949309E09191
:100860006500E860E0936500EC81FD81309721F13F
:10087000E681E3701E2FEC81FD81E681E695E69529
:10088000E7700E2FEC81FD81E781EF773E2FAC8181
:10089000BD810E94F609E0933805F0933905129660
:1008A0000E94F609E0934D05F0934E05AC81BD81A1
:1008B00014960E94F6090DC010E003E032E3E0E078
:1008C000F0E0E0933805F0933905E0934D05F0939F
:1008D0004E05E0934F05F0935005A1E24ADFE12F6A
:1008E000E460AE2F46DFE02FE061AE2F42DFE32F62
:1008F000E068AE2F3EDFA0E23CDFA1E022D0E1E0E5
:10090000E0933405E0E0E0933505E1E0E0933A055B
:10091000E0933B05E0933C05EFEFE0933D05E1E01C
:10092000E0934405E5E4F5E0FA93EA93EFEFEA9308
:10093000A8E0B0E00E944A080FD0E1E00E94240A3B
:1009400060C0AA93E881E03011F0ECE001C0E8E07B
:10095000AE2F0FDF219608950E941D0A30E0E0912E
:100960003505E03009F03FEFE0E0EA93A0E02ADF50
:1009700008EF11E0F80101501040309719F0A32F53
:100980003DDFF8CFE0E0EA93A0E040D30E94240AE4
:100990000C94C908AA931A93ED81EA93AD8120DFE4
:1009A0001E2FE981E73011F0E83039F4EB81EA934A
:1009B000AA810E946508EB8308C0E33021F4EB8133
:1009C000E095EB8302C0E03021F4EA81E0951E233C
:1009D00002C0E23029F4EA81AB81EA231E2B0EC06B
:1009E000E13029F4EA81AB81EA231E2707C0E43015
:1009F00029F4EA81E095AB81EA2B1E23A12FFEDECC
:100A0000188126960895AA9323970E941B0AA88905
:100A1000A43548F4AF85A03330F4AE85A03019F08A
:100A2000AD85A03009F4CCC1EE85E887A889BB2745
:100A3000EE85F0E0AE0FBF1FA535E0E0BE0720F069
:100A4000A889E4E5EA1BEE872D85AF85BB27ED85F8
:100A5000F0E0AE0FBF1FD19720F0AF85E0E3EA1BB7
:100A6000ED87A985A63009F05BC0EC85E13009F47B
:100A7000A7C1E33039F4E0914F05F091500530976C
:100A800009F49EC10885ED85E695E695E6953E2F2D
:100A9000E22FE77019F4AD852A17E9F0A02FBB27E4
:100AA000E32FF0E00E94BA09AA85BB850E942809BD
:100AB000269526952695532F5F935F5FE22FAF9182
:100AC000EA1748F0102FE12F1150E03019F00E9482
:100AD0002D09F9CFF1CFAE850A1711F1EE85AA8560
:100AE000BB85F0E00E942809ED85E77009F03F5FC3
:100AF00020E02F932F5FE32FAF91AE1788F41E8570
:100B00001F931F5FE02FAF91AE1718F40E942D09BD
:100B1000F7CFEE85AE81BF81F0E00E942809E9CFD2
:100B2000EF85E7703E2FED85E03009F449C1EA8595
:100B3000FB85EE83FF8310E00889303009F063C045
:100B4000AD85A83008F45AC0E985E03011F0E330F3
:100B500009F402C0E73009F402C0E83009F402C029
:100B6000E93009F402C0EA3021F40A93A8892ADEA8
:100B700004C0E63011F40E943A091F931F5FEE850E
:100B8000AF91AE17A0F5A985A63051F40E943E0999
:100B9000FA93EA930E941809A0810E94AC0826C02B
:100BA000E985E93011F450E00EC0EA3011F45FEF4E
:100BB0000AC00E943E090E9447095E2FE985E7307E
:100BC00011F0E83021F40E944D095E2F06C0E33099
:100BD00011F4509502C0E03019F4A52FD3DD06C002
:100BE0000E945109EFEFEA93AD85D4DEC6CFEF85C1
:100BF000E85FEF87ED85E850ED87D9C05D8520E09F
:100C0000E0E0ED877EC0E32FAD85AE0FA93020F484
:100C10002D85E0E0ED8703C0E8E0E31B2E2F3A933B
:100C2000A22F0E945A084E2FE985E63011F50E9446
:100C30003A091F931F5FEE85AF91AE17C8F40E946B
:100C40001809E081E423AE2FE32F0E94A9090E9436
:100C50005709E32FA42F0E94A909E095E1215E2BFB
:100C60000E943E09FA93EA93A52F0E94AC08E1CFB7
:100C70002CC0E93011F450E003C0EA30A9F45FEF72
:100C80000E944D09AE2FE32F0E94A1095E2F1F93F2
:100C90001F5FEE85AF91AE1730F40E9451094A9361
:100CA000A0E078DEF4CF11C01F931F5FEE85AF91F7
:100CB000AE1758F40E946209AE2FE32F0E94A109DB
:100CC000EA934A93AD8566DEEFCFED85E03009F417
:100CD00077C0AD85A83028F4ED85E21B5E2FE0E0FB
:100CE00003C0532FED85E850ED8710E0EF85E85FF6
:100CF000EF87E8E0E31B2E2F0889EA85FB85EE836A
:100D0000FF83E52FF0E0E059FD4F4491E985E6309F
:100D100011F50E943A091F931F5FEE85AF91AE1740
:100D2000C8F40E941809E081E423AE2FE22F0E944C
:100D3000A1090E945709E22FA42F0E94A109E09562
:100D4000E1215E2B0E943E09FA93EA93A52F0E94AF
:100D5000AC08E1CF2CC0E93011F450E003C0EA3018
:100D6000A9F45FEF0E944D09AE2FE22F0E94A9095E
:100D70005E2F1F931F5FEE85AF91AE1730F40E9478
:100D800051094A93A0E006DEF4CF11C01F931F5F04
:100D9000EE85AF91AE1758F40E946209AE2FE22F94
:100DA0000E94A909EA934A93AD85F4DDEFCFE88567
:100DB000AA85BB85F0E0EA0FFB1FEA87FB87B3CE6D
:100DC0000E94220A619608950E946F0924F0E0E0D3
:100DD000F0E00C946308A881B981A435E0E0BE0777
:100DE00024F0E3E5F0E00C946308E881F9810C94C9
:100DF00063080E946F0924F0E0E0F0E00C946308BF
:100E0000A881B981D09724F0EFE2F0E00C94630858
:100E1000E881F9810C946308BA93AA9323970E94FE
:100E200076098F01002E012A19F4E0E0F0E05FC09E
:100E30000E947D090F820E947D090E820E947D0919
:100E40000886EB85A885EA1718F4E0E0F0E04FC0CB
:100E5000F8010F5F1F4F5491A885BB27EE27A50F00
:100E6000BE1FEB85F0E0EA17FB0718F0E0E0F0E0CA
:100E70003EC0EE81E695E695E6954E2FEE81E77051
:100E800009F04F5FEF81E030A1F0A985BA85EC93BE
:100E9000A885EB85EA1BF0E0DF01EF81F0E00E941E
:100EA000BA09DF01E42FF0E00E94BA09E00FF11F58
:100EB0001EC09801E52FF0E00E0F1F1FA885AF5F41
:100EC000A887A150EB85AE1760F4F9012F5F3F4F63
:100ED000A491B0E0E42FF0E00E94BA090E0F1F1FAA
:100EE000EDCFF901E491A985BA85EC93F8010E9450
:100EF000220A2C960895E0E0E0933605A09137058C
:100F0000BB270E948209F0E0AE0FBF1FE0913B05B6
:100F1000F0E0AE0FBF1F6DDFE09337050895AA9391
:100F200021970E947609309709F455C0AF81AA3005
:100F300009F44FC0EF81EA93DE0117966DDFAF0130
:100F4000309709F44AC0E0913A05AE81EA0F3E2F8E
:100F5000A0913605BB27F0E0EA0FFB1F8F01053596
:100F6000E0E01E0718F0032F1127C5DFE0913605DA
:100F7000EA93E0913705EA93E885EA930E948209B3
:100F8000EA93E1E0EA935A934A93A7E03CDDE091CB
:100F90003605AE81EA0FEA93E0913705EA93E091D6
:100FA0003A05EA930E9482090E948909E091360578
:100FB000EA93A09137050E948209EA0FEA933A93D7
:100FC000E0913B050E948909E4E5F0E0E017F107B4
:100FD00011F491DF02C0009336050E94220A289680
:100FE0000895BA93AA931A93EC81EA93AC810ED038
:100FF000A981BA81ED91A983BA831E2FE03019F03F
:10100000A12F8DDFF5CF18810C945808AA93A981E0
:10101000BB27DADEE0933605A881BB27EADEE09342
:1010200037050C946308BA93AA93B981A881EC910F
:101030008A2FAE2F0E94D408A82FEE2311F011960C
:10104000F6CFE894EC91ED3211F4689402C0EB32E3
:1010500009F4119666277727EC918A2FAE2F0E940C
:10106000CB08A82FEE2379F0FB01660F771F660FE0
:10107000771F6E0F7F1F660F771FED91FF27E053DD
:101080006E0F7F1FE9CFFB011EF4E095F0953196BE
:1010900022960895BA93AA93B981A881109631F047
:1010A000FC81EB816A8161931197E9F7EB81FC8107
:1010B00025960895AA93E881F0E0E059FD4FA491A8
:1010C000E9810E94A10922960895AA931A93E981C1
:1010D000E73011F0EA3019F41091340509C0E93015
:1010E00019F41091350504C0E830A1F410914405BD
:1010F000E0913505E03049F0103019F0EFEF18813C
:1011000029C0EA81E095188125C0103019F4E0E08B
:10111000188120C0EA8118811DC0BA93AA93EA8180
:10112000E13021F4E881F981E49114C0E23029F43E
:10113000A881B9810E94FA090DC0E33041F4A88169
:10114000B981E0914D05F0914E05099503C0A88144
:10115000B981EC9123960895AA93EB81E03029F4AC
:10116000E881A981BA81EC9314C0E23031F4E881BE
:10117000A981BA810E94060A0CC0E33051F4E981CA
:10118000FA81FA93EA93AA81E0914F05F091500514
:10119000099524960895AA93E1E0F991F03310F0AF
:1011A000FA3308F0EE270895AA93E1E0F991F032BE
:1011B00029F0F93010F0FE3008F0EE2708950E9473
:1011C000AC04E0E0EA93EA930895B0E0EAE0F0E0EE
:1011D0000E94D509E05DAE2F0C948F07BB27EAE093
:1011E000F0E00E94DA09E05DAE2F0C948F07A3E7D0
:1011F000B5E0ED91FD913196FE93EE933197ED5967
:10120000FA4FBF01A6E0A49FF001A59FF00DEF5A91
:10121000FA4FDF01F901EE0FFF1FAE0FBF1FEC9178
:10122000E05DDB01EC930895AAEFB0E00C94930924
:10123000A7E7B5E0ED91FD913196FE93EE933197DE
:10124000E758FA4F0895E0936400E091650008952F
:10125000EA0FFB1FEE83FF830895EC85EA93EF818D
:10126000F8853196EF83F8873197FA93EA93A0E0F7
:101270000C94AC080A93A8890C94CB03EC85EA93F0
:10128000EF81F8853196EF83F887319708956627C7
:101290007727DF01CB010C948D085A93AA850C9413
:1012A00065080A930395E889EA935A9308955E2F97
:1012B000EC85EA93AF81B885882799270E948D082D
:1012C0001E2E08950A930395E889EA93EE85EA9322
:1012D000E985FA853196E987FA873197D8CFBA93AD
:1012E000AA93A881B9810E94170A08950E941B0A37
:1012F000E0913805F09139050895F8010F5F1F4F0F
:1013000004900895E0913805F09139053196E49103
:101310000895EA93E0E0EA93E0E0F0E0FA93EA93DC
:10132000A9E00C940305109639F080ED97E0019741
:10133000F1F7A8951197C9F70895F195E195F04057
:101340000895EE230E2EEA2F19F0EE0F0A94E9F716
:101350000895EE230E2EEA2F19F0E6950A94E9F788
:101360000895EE230E2EFD0121F0EE0FFF1F0A94CB
:10137000E1F70895FA9FF02DEB9FF00DEA9FE02D25
:10138000F10D08950024112490E1AA0FBB1F001C49
:10139000111C0E1A1F0A18F40E0E1F1E01C0A160A8
:1013A0009A9599F7FD01D001089512D0EBDF0EF464
:1013B000C4DF0895E894B7FF04C0A095B0951196D6
:1013C0006894F7FDBADFDEDFFD010EF4B6DF0895A5
:1013D000E894F7FF02C0B1DF6894B7FF06C0A0959C
:1013E000B095119600F8039400FA0895ED91FC91E0
:1013F00011970895E199FECFFF93FFB7F894AEBB24
:10140000BFBBE09AEDB3FFBFFF910895E19B02C01F
:10141000A895FCCF9FB7F894AEBBBFBBE09A8DB345
:10142000E81719F0EDBBE29AE19A9FBF08950024F6
:101430000A160B0608955A934A933A932A931A93DD
:101440000A9308955D814C813B812A81198108812D
:101450000895AC0FBD1F05900D928A95E1F7089590
:00000001FF
