:040000000C946E01ED
:100004000C9400000C9400000C9400000C9400006C
:100014000C9400000C9400000C9400000C9400005C
:100024000C9400000C9400000C9400000C9400004C
:100034000C9400000C94E7010C9400000C94000054
:100044000C9400000C9400000C9400000C9400002C
:100054000C9400000C9400000C9400000C9400001C
:100064000C9400000C9400000C9400000C9400000C
:100074000C9400000C9400000C9400000C940000FC
:100084000C9400000C9400000507206000000000A0
:100094000000005F00000007000700147F147F14B5
:1000A400242A7F2A122313086462364955225000F9
:1000B40005030000001C2241000041221C00082A04
:1000C4001C2A0808083E08080050300000080808E8
:1000D4000808003030000020100804023E51494551
:1000E4003E00427F400042615149462141454B3127
:1000F4001814127F1027454545393C4A49493001B7
:10010400710905033649494936064949291E00360D
:10011400360000005636000000081422411414145E
:10012400141441221408000201510906324979418C
:100134003E7E1111117E7F494949363E414141229B
:100144007F4141221C7F494949417F090901013E00
:10015400414151327F0808087F00417F410020401F
:10016400413F017F081422417F404040407F020408
:10017400027F7F0408107F3E4141413E7F09090907
:10018400063E4151215E7F091929464649494931B4
:1001940001017F01013F4040403F1F2040201F7F5D
:1001A4002018207F63140814630304780403615146
:1001B40049454300007F4141020408102041417F2A
:1001C40000000402010204404040404000010204D7
:1001D4000020545454787F484444383844444420DC
:1001E400384444487F3854545418087E090102089E
:1001F4001454543C7F0804047800447D400020409B
:10020400443D00007F10284400417F40007C0418D6
:1002140004787C0804047838444444387C14141466
:1002240008081414187C7C08040408485454542006
:10023400043F4440203C4040207C1C2040201C3C87
:100244004030403C44281028440C5050503C4464F6
:10025400544C44000836410000007F000000413641
:10026400080002010204027F4141417F00010307AB
:100274000F1F3F7FFF00000000001C000035190025
:100284000000000000000000000054454D503A00FA
:1002940048554D493A00444154205945552043415D
:1002A4005521000080C001002D4E414E00494E46AC
:1002B40000000A0004007A02060000058E0206000F
:1002C400060594020D000C059A0202003805A802E6
:1002D40001003907AA020000F894EE27ECBBF1E014
:1002E400F5BFE5BFE0936C008DE0A2E0BB27ED9382
:1002F4008A95E9F780E090E1A0E0B1E0ED93019701
:10030400E9F7E6EBF2E085919591009761F0A5910C
:10031400B59105901590BF01F00105900D920197DC
:10032400E1F7FB01F0CF8BBFEFEFEDBFE0E1EEBFF4
:10033400C0E0D5E00C941D020E9425088C9A8D9A89
:100344008F9ABC9AC29AC39AC09A979AA79A089508
:10035400BA93AA932897ECE8F0E0E883F983EE8156
:10036400EC7FEE83EA85E770EE0FEE0F0E2EEE8142
:10037400E37EE029EE83E885EF770E2EEF81E078C7
:10038400E029EF83DE010E9495030C940C07BA93D5
:10039400AA93E881E1BF0C94BD07E0E0E0BFE4E785
:1003A400E3BFE0E0E2BFA0E0B0E0F1DFE0E0EFBDFA
:1003B400E1E0EEBDE0EEEDBDE0ECECBDE4E0E7BF76
:1003C400E0E0E0937D0078940895AA93BA93EA93C9
:1003D400FA93EFB7EA93E0EEEDBDE0ECECBDAA20B2
:1003E40019F1A0913605B0913705A03DE7E0BE07AD
:1003F40029F4E0E0E0933605E0933705E091360513
:10040400F0913705309711F49498959AA091360598
:10041400B0913705A83EE3E0BE0711F49598949A8D
:10042400A6E3B5E00E942C08E991EFBFF991E991A8
:10043400B991A9911895E4E0F0E0FA93EA93A2E463
:10044400B0E086DFA0E1C2D077DF0E942508BC9A25
:100454008F9A8C9A8D9ABA98C29ABB98C39AB89874
:10046400C09A9BDFD60193DFA8EEB3E00E94B308E5
:10047400EFEFF0E0CE16DF06E4F0A0EDB7E00E9467
:10048400B308A0E0B0E083DFE1E0AE2E5ED0E0E0B0
:10049400EA93A0E049D0BC98AAE9B2E084D00E94D3
:1004A4003C04EAE0EA93EA93ACE0B5E00E948407F6
:1004B40008C0D601E5E0F0E00E94EC08CE0EDF1E95
:1004C400D1CFFFCFAA93E881E07111F0DB9A01C08C
:1004D400DB98E881E07211F0DC9A01C0DC98E881D5
:1004E400E07411F0DD9A01C0DD98E881E07811F044
:1004F400DE9A01C0DE988DE08A95F1F7DA9A8DE0F4
:100504008A95F1F7DA988DE08A95F1F70C943A041C
:10051400AA93A881D7DFE881E295E883A881D2DF96
:1005240085E88A95F1F7A4C1AA93E881F0E0E85C34
:10053400FA4FE081A981AE0FEBDFE981E0933C053E
:10054400E881E0933D050C94BD07A2E00E943208C7
:10055400ACE0DEDFA1E00E943208E0E0E0933D057C
:10056400E0933C050895AA93A881AA3031F0E09164
:100574003E05A0913C05AE1760F0E0E0EA93A0913F
:100584003D05AF5FA0933D05CFDFA881AA3009F4F4
:100594006FC1E0913C05EF5FE0933C05D89AA881D8
:1005A400B7DFD89865C1BA93AA931A93E981FA81FF
:1005B4003196E983FA833197E4911E2FE03019F0E4
:1005C400A12FD1DFF3CF18810C940408AA93D39AF6
:1005D400D49AD59AD69AD29AD09AD19ADA98D898A7
:1005E400D998E881E0933E05E058E0933A05E88124
:1005F400E054E0933B05A4E1B0E00E94B3080E94FC
:1006040038080E9438080E943808A0E25BDF88ECB2
:1006140090E00197F1F7A8E27BDFA4E079DFA5E899
:1006240077DFA6E075DF91DF23C10895AA931A93BB
:10063400E0916500EF7EE093650018E0F6DFE98164
:10064400E07821F0E0916500E26003C0E09165008C
:10065400ED7FE0936500E981EE0FE983E6DFE09149
:100664006500E460E0936500E0DFE0916500EB7F06
:10067400E0936500115011F7E0916500E061E093AB
:10068400650018810C94BD07AA93E0916500EE7F84
:10069400E0936500A881CADFEBC0AA93E0916500EE
:1006A400E160E0936500A881C1DFE2C0AA931A93D8
:1006B400E981E695E695E6951E2FE4E5E19FF001D4
:1006C400DF01EA81F0E0EA0FFB1FE0933F05F093BE
:1006D4004005E12F18810C940408AA93E981E0688D
:1006E400AE2FD2DFE981EA93A981E0DFE064AE2F87
:1006F400CBDF0C94BD07AA93E981EA93A981EDDFCE
:10070400E0913F05F0914005EF5BFA4FE0810C94D6
:10071400BD07AA930E9440083197EF5BFA4FA88166
:10072400A083BBDFA5C0BA93AA930E942609E091D7
:100734006400E0610E944308E061E0936500E09199
:100744006400E4600E944308EB7FE0936500E0915D
:100754006400E260E0936400E0916400E160E0938F
:100764006400E0916400E8600E944308E77FE0933E
:100774006500AAE0B0E00E94B308E0916500E8607B
:10078400E0936500EC81FD81309721F1E681E3700F
:100794001E2FEC81FD81E681E695E695E7700E2F2C
:1007A400EC81FD81E781EF773E2FAC81BD810E9412
:1007B400FF08E0931D05F0931E0512960E94FF08A2
:1007C400E0933205F0933305AC81BD8114960E9409
:1007D400FF080DC010E003E032E3E0E0F0E0E09356
:1007E4001D05F0931E05E0933205F0933305E09365
:1007F4003405F0933505A1E247DFE12FE460AE2F25
:1008040043DFE02FE061AE2F3FDFE32FE068AE2F40
:100814003BDFA0E239DFA1E022D0E1E0E09319055B
:10082400E0E0E0931A05E1E0E0931F05E093200582
:10083400E0932105EFEFE0932205E1E0E093290541
:10084400EAE2F5E0FA93EA93EFEFEA93A8E0B0E086
:100854000E94A4070FD0E1E00E942D0960C0AA9372
:10086400E881E03011F0ECE001C0E8E0AE2F0CDFED
:10087400219608950E94260930E0E0911A05E0309F
:1008840009F03FEFE0E0EA93A0E027DF08EF11E092
:10089400F80101501040309719F0A32F3ADFF8CF38
:1008A400E0E0EA93A0E042D30E942D090C942308CF
:1008B400AA931A93ED81EA93AD811DDF1E2FE9817E
:1008C400E73011F0E83039F4EB81EA93AA810E9411
:1008D400BF07EB8308C0E33021F4EB81E095EB83A1
:1008E40002C0E03021F4EA81E0951E2302C0E23028
:1008F40029F4EA81AB81EA231E2B0EC0E13029F4EE
:10090400EA81AB81EA231E2707C0E43029F4EA8197
:10091400E095AB81EA2B1E23A12FFBDE18812696DE
:100924000895AA9323970E942409A889A43548F41A
:10093400AF85A03330F4AE85A03019F0AD85A0307A
:1009440009F4D5C1EE85E887A889BB27EE85F0E0D8
:10095400AE0FBF1FA535E0E0BE0720F0A889E4E58F
:10096400EA1BEE872D85AF85BB27ED85F0E0AE0F42
:10097400BF1FD19720F0AF85E0E3EA1BED87A9857F
:10098400A63009F05BC0EC85E13009F4B0C1E33076
:1009940039F4E0913405F0913505309709F4A7C195
:1009A4000885ED85E695E695E6953E2FE22FE770FE
:1009B40019F4AD852A17E9F0A02FBB27E32FF0E047
:1009C4000E94D108AA85BB850E94480826952695D1
:1009D4002695532F5F935F5FE22FAF91EA1748F09C
:1009E400102FE12F1150E03019F00E944D08F9CF7B
:1009F400F1CFAE850A1711F1EE85AA85BB85F0E02B
:100A04000E944808ED85E77009F03F5F20E02F93CE
:100A14002F5FE32FAF91AE1788F41E851F931F5FDE
:100A2400E02FAF91AE1718F40E944D08F7CFEE8572
:100A3400AE81BF81F0E00E944808E9CFEF85E770FE
:100A44003E2FED85E03009F452C1EA85FB85EE8343
:100A5400FF8310E00889303009F066C0AD85A83006
:100A640008F45DC0E985E03011F0E33009F402C018
:100A7400E73009F402C0E83009F402C0E93009F4AF
:100A840002C0EA3021F40A93A88927DE04C0E630C4
:100A940011F40E945A081F931F5FEE85AF91AE17A1
:100AA400B8F5A985A63069F40E945E08FA93EA9322
:100AB4000E9440083197EF5BFA4FA0810E9406081C
:100AC40026C0E985E93011F450E00EC0EA3011F493
:100AD4005FEF0AC00E945E080E9467085E2FE985E6
:100AE400E73011F0E83021F40E946D085E2F06C053
:100AF400E33011F4509502C0E03019F4A52FCDDD98
:100B040006C00E947108EFEFEA93AD85D1DEC3CF32
:100B1400EF85E85FEF87ED85E850ED87DFC05D8501
:100B240020E0E0E0ED8781C0E32FAD85AE0FA93072
:100B340020F42D85E0E0ED8703C0E8E0E31B2E2FD1
:100B44003A93A22F0E94B4074E2FE985E63029F587
:100B54000E945A081F931F5FEE85AF91AE17E0F411
:100B64000E9440083197EF5BFA4FE081E423AE2FF7
:100B7400E32F0E94C9080E947708E32FA42F0E9444
:100B8400C908E095E1215E2B0E945E08FA93EA937E
:100B9400A52F0E940608DECF2CC0E93011F450E0E6
:100BA40003C0EA30A9F45FEF0E946D08AE2FE32F73
:100BB4000E94C1085E2F1F931F5FEE85AF91AE1791
:100BC40030F40E9471084A93A0E072DEF4CF11C0A1
:100BD4001F931F5FEE85AF91AE1758F40E948208F1
:100BE400AE2FE32F0E94C108EA934A93AD8560DEDD
:100BF400EFCFED85E03009F47AC0AD85A83028F454
:100C0400ED85E21B5E2FE0E003C0532FED85E85035
:100C1400ED8710E0EF85E85FEF87E8E0E31B2E2F18
:100C24000889EA85FB85EE83FF83E52FF0E0E05930
:100C3400FD4F4491E985E63029F50E945A081F9337
:100C44001F5FEE85AF91AE17E0F40E944008319724
:100C5400EF5BFA4FE081E423AE2FE22F0E94C1083C
:100C64000E947708E22FA42F0E94C108E095E12199
:100C74005E2B0E945E08FA93EA93A52F0E94060851
:100C8400DECF2CC0E93011F450E003C0EA30A9F4FF
:100C94005FEF0E946D08AE2FE22F0E94C9085E2FFD
:100CA4001F931F5FEE85AF91AE1730F40E94710859
:100CB4004A93A0E0FDDDF4CF11C01F931F5FEE85C2
:100CC400AF91AE1758F40E948208AE2FE22F0E9413
:100CD400C908EA934A93AD85EBDDEFCFE885AA8591
:100CE400BB85F0E0EA0FFB1FEA87FB87AACE0E94D0
:100CF4002B09619608950E948F081CF0E0E0F0E053
:100D04003AC1A881B981A435E0E0BE071CF0E3E54F
:100D1400F0E031C1E881F9812EC10E948F081CF0F6
:100D2400E0E0F0E028C1A881B981D0971CF0EFE29F
:100D3400F0E021C1E881F9811EC1BA93AA932397F7
:100D44000E9496088F01002E012A19F4E0E0F0E0D9
:100D54005FC00E949D080F820E949D080E820E941F
:100D64009D080886EB85A885EA1718F4E0E0F0E012
:100D74004FC0F8010F5F1F4F5491A885BB27EE2782
:100D8400A50FBE1FEB85F0E0EA17FB0718F0E0E0C3
:100D9400F0E03EC0EE81E695E695E6954E2FEE81B5
:100DA400E77009F04F5FEF81E030A1F0A985BA85C3
:100DB400EC93A885EB85EA1BF0E0DF01EF81F0E01E
:100DC4000E94D108DF01E42FF0E00E94D108E00F77
:100DD400F11F1EC09801E52FF0E00E0F1F1FA8851C
:100DE400AF5FA887A150EB85AE1760F4F9012F5FC0
:100DF4003F4FA491B0E0E42FF0E00E94D1080E0F21
:100E04001F1FEDCFF901E491A985BA85EC93F80190
:100E14000E942B092C960895E0E0E0931B05A09115
:100E24001C05BB270E94A208F0E0AE0FBF1FE09193
:100E34002005F0E0AE0FBF1F70DFE0931C0508959E
:100E4400AA9321970E949608309709F455C0AF8160
:100E5400AA3009F44FC0EF81EA93DE0117966DDFE3
:100E6400AF01309709F44AC0E0911F05AE81EA0F43
:100E74003E2FA0911B05BB27F0E0EA0FFB1F8F015B
:100E84000535E0E01E0718F0032F1127C5DFE091B8
:100E94001B05EA93E0911C05EA93E885EA930E9416
:100EA400A208EA93E1E0EA935A934A93A7E039DD72
:100EB400E0911B05AE81EA0FEA93E0911C05EA93E9
:100EC400E0911F05EA930E94A2080E94A908E091FC
:100ED4001B05EA93A0911C050E94A208EA0FEA935D
:100EE4003A93E09120050E94A908E4E5F0E0E017B8
:100EF400F10711F491DF02C000931B050E942B0936
:100F040028960895BA93AA931A93EC81EA93AC8134
:100F14000DD0A981BA81ED91A983BA831E2FE03047
:100F240019F0A12F8DDFF5CF18811AC0AA93A981DA
:100F3400BB27E1DEE0931B05A881BB27EEDEE0932F
:100F44001C0519C0BA93AA93B981A881109631F0EF
:100F5400FC81EB816A8161931197E9F7EB81FC8154
:100F640025960895AA93E881F0E0E059FD4FA491F5
:100F7400E9810E94C10822960895AA931A93E981EF
:100F8400E73011F0EA3019F41091190509C0E9307D
:100F940019F410911A0504C0E830A1F41091290540
:100FA400E0911A05E03049F0103019F0EFEF1881A4
:100FB40029C0EA81E095188125C0103019F4E0E0D9
:100FC400188120C0EA8118811DC0BA93AA93EA81CE
:100FD400E13021F4E881F981E49114C0E23029F48C
:100FE400A881B9810E9403090DC0E33041F4A881AE
:100FF400B981E0913205F0913305099503C0A881C8
:10100400B981EC9123960895AA93EB81E03029F4F9
:10101400E881A981BA81EC9314C0E23031F4E8810B
:10102400A981BA810E940F090CC0E33051F4E9810F
:10103400FA81FA93EA93AA81E0913405F091350597
:10104400099524960895EAEEE0936100E5E1E093C2
:1010540062000895ED91FD913196FE93EE9308950B
:101064000E948A02A3E0B0E00C94B308A0E30E94BB
:10107400640288EC90E00197F1F70895AFE3B5E0DE
:10108400E9CFE0936400E09165000895EA0FFB1F47
:10109400EE83FF830895EC85EA93EF81F88531961A
:1010A400EF83F8873197FA93EA93A0E00C9406084B
:1010B4000A93A8890C945803EC85EA93EF81F88588
:1010C4003196EF83F8873197089566277727DF01F4
:1010D400CB010C94E7075A93AA850C94BF070A9393
:1010E4000395E889EA935A9308955E2FEC85EA9371
:1010F400AF81B885882799270E94E7071E2E089597
:101104000A930395E889EA93EE85EA93E985FA85DB
:101114003196E987FA873197D8CFBA93AA93A881F1
:10112400B9810E94200908950E942409E0911D05B7
:10113400F0911E050895F8010F5F1F4F0490089564
:10114400E0911D05F0911E053196E4910895EA930E
:10115400E0E0EA93E0E0F0E0FA93EA93A9E00C948B
:101164009304109639F080ED97E00197F1F7A89574
:101174001197C9F70895F195E195F0400895EE238C
:101184000E2EEA2F19F0EE0F0A94E9F70895EE23D4
:101194000E2EEA2F19F0E6950A94E9F70895FA9FBE
:1011A400F02DEB9FF00DEA9FE02DF10D0895002442
:1011B400112490E1AA0FBB1F001C111C0E1A1F0A58
:1011C40018F40E0E1F1E01C0A1609A9599F7FD0137
:1011D400D001089504D0EBDF0EF4CDDF0895E89438
:1011E400F7FF02C0C8DF6894B7FF06C0A095B095AA
:1011F400119600F8039400FA0895ED91FC9111976B
:101204000895E199FECFFF93FFB7F894AEBBBFBB3F
:10121400E09AEDB3FFBFFF910895E19B02C0A8954A
:10122400FCCF9FB7F894AEBBBFBBE09A8DB3E81771
:1012340019F0EDBBE29AE19A9FBF089500240A16C3
:101244000B0608955A934A933A932A931A930A934E
:1012540008955D814C813B812A811981088108951B
:00000001FF
