:0A0000000C9492010C9400000C9483
:10000A0000000C9400000C9400000C9400000C9466
:10001A0000000C9400000C9400000C9400000C9456
:10002A0000000C9400000C9400000C9400000C9446
:10003A00C2010C9400000C9400000C9400000C9473
:10004A0000000C9400000C9400000C9400000C9426
:10005A0000000C9400000C9400000C9400000C9416
:10006A0000000C9400000C9400000C9400000C9406
:10007A0000000C9400000C9400000C9400000C94F6
:10008A00000005072060000000000000005F00007B
:10009A000007000700147F147F14242A7F2A1223E2
:1000AA001308646236495522500005030000001CFB
:1000BA002241000041221C00082A1C2A0808083E86
:1000CA00080800503000000808080808003030000E
:1000DA000020100804023E5149453E00427F40007C
:1000EA0042615149462141454B311814127F10276C
:1000FA00454545393C4A49493001710905033649A4
:10010A00494936064949291E003636000000563646
:10011A000000000814224114141414144122140873
:10012A00000201510906324979413E7E1111117EC0
:10013A007F494949363E414141227F4141221C7F44
:10014A00494949417F090901013E414151327F082C
:10015A0008087F00417F41002040413F017F081489
:10016A0022417F404040407F0204027F7F04081002
:10017A007F3E4141413E7F090909063E4151215EC8
:10018A007F09192946464949493101017F01013F41
:10019A004040403F1F2040201F7F2018207F6314CB
:1001AA000814630304780403615149454300007F3E
:1001BA004141020408102041417F0000040201026B
:1001CA000440404040400001020400205454547846
:1001DA007F484444383844444420384444487F38AB
:1001EA0054545418087E090102081454543C7F08D8
:1001FA0004047800447D40002040443D00007F1004
:10020A00284400417F40007C041804787C080404D8
:10021A007838444444387C14141408081414187C9C
:10022A007C080404084854545420043F4440203CA9
:10023A004040207C1C2040201C3C4030403C44284C
:10024A001028440C5050503C4464544C4400083626
:10025A00410000007F00000041360800020102044C
:10026A00027F4141417F000103070F1F3F7FFF00CB
:10027A001027E80364000A000100001000011000C2
:10028A00010000000000000044616E67207661747E
:10029A0000546F6320646F3A20256400486F616ED2
:1002AA00207468616E6800436170206E756F632EFA
:1002BA002E2E0044616E6720676961742E2E2E000F
:1002CA004D41592047494154004254312E20474953
:1002DA004154000080C001002D4E414E00494E4657
:1002EA000000060004008C020B000005A6020C00A8
:1002FA000B05B1020D001705BD020B002405A6026D
:10030A0009002F05CA020A003805D302020069074C
:10031A00DE0201006D07E0020000F894EE27ECBB54
:10032A00F1E0F5BFE5BFE0936C008DE0A2E0BB27EA
:10033A00ED938A95E9F780E090E1A0E0B1E0ED93D2
:10034A000197E9F7ECEEF2E085919591009761F05B
:10035A00A591B59105901590BF01F00105900D92F8
:10036A000197E1F7FB01F0CF8BBFEFEFEDBFE0E1C3
:10037A00EEBFC0E0D5E00C947D020A92EA93FA93AC
:10038A00EFB7EA93E0EEEDBDE0ECECBD7720B1F01B
:10039A00E0EDF7E0E815F90511F488249924082C12
:1003AA00092811F49498959AE8EEF3E0E815F9050E
:1003BA0011F49598949AF40131964F01E991EFBF9F
:1003CA00F991E99109901895BA93AA93E881E1BF46
:1003DA0058C1BA93AA931A930A93042C052821F4B4
:1003EA00EFE3F0E02F011FC0AA81BB81549741F4CB
:1003FA00D201E5E0F0E00E94560BE40DF51D09C0BC
:10040A00AA81BB81A436E0E0BE0721F4F201EE0F17
:10041A00FF1F8F010030E1E01E0724F0EFEFF0E04C
:10042A002F0101C02801D201CFDF19810881F5C14E
:10043A001A930A9300E010E0AB9A0E94470AA1EBD4
:10044A00B2E00E944B0AABE0B5E00E94510AAB98B9
:10045A000E94470AADEBB2E00E944B0AA7E1B5E061
:10046A000E943B070A30E0E01E0764F5A4E1B0E011
:10047A00B0DFEFE5F5E0FA93EA93EBE9F2E0FA93FD
:10048A00EA93F2010E94360B0E94710B84E00E94EB
:10049A00CC082896EAE0EA93E8E2EA93AFE5B5E009
:1004AA000E943B07E0E0EA93A1E00E943109AFE530
:1004BA00B5E00E945F090F5F1F4FA8EEB3E00E94EC
:1004CA00140BD0CFA0EDB7E00E94140B442455249E
:1004DA00A0E0B0E079DF0E94470AA6EAB2E00E94F3
:1004EA004B0AA4E2B5E00E94510A099119910895B4
:1004FA002897ECE8F0E0E883F983EE81EC7FEE835D
:10050A00E37EE061EE83EF81E078E264EF83DE016F
:10051A00C1D0A0E10E947E09BA98C29ABB98C39A38
:10052A00A39AA29A8D9A8C9ABC9A8F9AE0E0E0BF1D
:10053A00E4E7E3BFE0E0E2BFA0E0B0E045DFE0E0EF
:10054A00EFBDE1E0EEBDE0EEEDBDE0ECECBDE4E0D8
:10055A00E7BFE0E0E0937D007894EAE0EA93EA936B
:10056A00AFE2B5E00E943B07EAE0EA93E4E1EA93EE
:10057A00A8E3B5E00E943B07AAECB2E00E946B092F
:10058A00E0E0EA93A1E00E943109A5EDB2E00E9401
:10059A006B09B29B4DDFAAEFB0E00E94140BF9CFB2
:1005AA00FFCF0895AA931A93E0916500EF7EE09336
:1005BA00650018E0F6DFE981E07821F0E091650056
:1005CA00E26003C0E0916500ED7FE0936500E98198
:1005DA00EE0FE983E6DFE0916500E460E0936500F1
:1005EA00E0DFE0916500EB7FE0936500115011F7C1
:1005FA00E0916500E061E0936500188142C0AA932A
:10060A00E0916500EE7FE0936500A881CBDFE7C04B
:10061A00AA93E0916500E160E0936500A881C2DFDA
:10062A00DEC0AA931A93E981E695E695E6951E2F10
:10063A00E4E5E19FF001DF01EA81F0E0EA0FFB1F48
:10064A00E0936F05F0937005E12F188123960895C2
:10065A00AA93E981E068AE2FD2DFE981EA93A98102
:10066A00E0DFE064AE2FCBDF0CC0AA93E981EA9306
:10067A00A981EEDFE0916F05F0917005EF58FA4F0E
:10068A00E08122960895AA930E94570AA881A0831E
:10069A00BFDFA5C0BA93AA930E94990BE0916400A8
:1006AA00E0610E94620AE061E0936500E091640003
:1006BA00E4600E94620AEB7FE0936500E0916400C7
:1006CA00E260E0936400E0916400E160E09364001A
:1006DA00E0916400E8600E94620AE77FE0936500A7
:1006EA00AAE0B0E00E94140BE0916500E860E09394
:1006FA006500EC81FD81309721F1E681E3701E2FC0
:10070A00EC81FD81E681E695E695E7700E2FEC8196
:10071A00FD81E781EF773E2FAC81BD810E94690B95
:10072A00E0934605F093470512960E94690BE09301
:10073A005B05F0935C05AC81BD8114960E94690B40
:10074A000DC010E003E032E3E0E0F0E0E09346059C
:10075A00F0934705E0935B05F0935C05E0935D0534
:10076A00F0935E05A1E24BDFE12FE460AE2F47DF95
:10077A00E02FE061AE2F43DFE32FE068AE2F3FDFCB
:10078A00A0E23DDFA1E022D0E1E0E0934205E0E013
:10079A00E0934305E1E0E0934805E0934905E093DF
:1007AA004A05EFEFE0934B05E1E0E0935205E3E5FC
:1007BA00F5E0FA93EA93EFEFEA93A8E0B0E00E943B
:1007CA00AD090FD0E1E00E94A00B60C0AA93E881B6
:1007DA00E03011F0ECE001C0E8E0AE2F10DF219626
:1007EA0008950E94990B30E0E0914305E03009F04A
:1007FA003FEFE0E0EA93A0E02BDF08EF11E0F80119
:10080A0001501040309719F0A32F3DDFF8CFE0E0F8
:10081A00EA93A0E03BD30E94A00B24960895AA93E2
:10082A001A93ED81EA93AD8120DF1E2FE981E7302B
:10083A0011F0E83039F4EB81EA93AA810E94E109C8
:10084A00EB8308C0E33021F4EB81E095EB8302C02F
:10085A00E03021F4EA81E0951E2302C0E23029F457
:10086A00EA81AB81EA231E2B0EC0E13029F4EA812A
:10087A00AB81EA231E2707C0E43029F4EA81E09518
:10088A00AB81EA2B1E23A12FFEDE1881269608953E
:10089A00AA9323970E94970BA889A43548F4AF8599
:1008AA00A03330F4AE85A03019F0AD85A03009F43C
:1008BA00CCC1EE85E887A889BB27EE85F0E0AE0FAC
:1008CA00BF1FA535E0E0BE0720F0A889E4E5EA1BD2
:1008DA00EE872D85AF85BB27ED85F0E0AE0FBF1FF4
:1008EA00D19720F0AF85E0E3EA1BED87A985A63012
:1008FA0009F05BC0EC85E13009F4A7C1E33039F4B3
:10090A00E0915D05F0915E05309709F49EC1088576
:10091A00ED85E695E695E6953E2FE22FE77019F408
:10092A00AD852A17E9F0A02FBB27E32FF0E00E943C
:10093A003B0BAA85BB850E94670A269526952695B4
:10094A00532F5F935F5FE22FAF91EA1748F0102FA2
:10095A00E12F1150E03019F00E946C0AF9CFF1CF63
:10096A00AE850A1711F1EE85AA85BB85F0E00E94D3
:10097A00670AED85E77009F03F5F20E02F932F5F4C
:10098A00E32FAF91AE1788F41E851F931F5FE02FE8
:10099A00AF91AE1718F40E946C0AF7CFEE85AE81BC
:1009AA00BF81F0E00E94670AE9CFEF85E7703E2F2A
:1009BA00ED85E03009F449C1EA85FB85EE83FF83C2
:1009CA0010E00889303009F063C0AD85A83008F41A
:1009DA005AC0E985E03011F0E33009F402C0E7308B
:1009EA0009F402C0E83009F402C0E93009F402C08F
:1009FA00EA3021F40A93A8892BDE04C0E63011F408
:100A0A000E94790A1F931F5FEE85AF91AE17A0F57A
:100A1A00A985A63051F40E947D0AFA93EA930E94AE
:100A2A00570AA0810E94280A26C0E985E93011F4F4
:100A3A0050E00EC0EA3011F45FEF0AC00E947D0A4E
:100A4A000E94860A5E2FE985E73011F0E83021F42A
:100A5A000E948C0A5E2F06C0E33011F4509502C042
:100A6A00E03019F4A52FD4DD06C00E94900AEFEFFA
:100A7A00EA93AD85D4DEC6CFEF85E85FEF87ED85D3
:100A8A00E850ED87D9C05D8520E0E0E0ED877EC0C3
:100A9A00E32FAD85AE0FA93020F42D85E0E0ED8778
:100AAA0003C0E8E0E31B2E2F3A93A22F0E94D60937
:100ABA004E2FE985E63011F50E94790A1F931F5FD0
:100ACA00EE85AF91AE17C8F40E94570AE081E4237D
:100ADA00AE2FE32F0E942E0B0E94960AE32FA42F1B
:100AEA000E942E0BE095E1215E2B0E947D0AFA936B
:100AFA00EA93A52F0E94280AE1CF2CC0E93011F40D
:100B0A0050E003C0EA30A9F45FEF0E948C0AAE2FCE
:100B1A00E32F0E94260B5E2F1F931F5FEE85AF9176
:100B2A00AE1730F40E94900A4A93A0E078DEF4CF20
:100B3A0011C01F931F5FEE85AF91AE1758F40E9444
:100B4A00A10AAE2FE32F0E94260BEA934A93AD85A2
:100B5A0066DEEFCFED85E03009F477C0AD85A830C9
:100B6A0028F4ED85E21B5E2FE0E003C0532FED85EC
:100B7A00E850ED8710E0EF85E85FEF87E8E0E31BD8
:100B8A002E2F0889EA85FB85EE83FF83E52FF0E0A7
:100B9A00E059FD4F4491E985E63011F50E94790A42
:100BAA001F931F5FEE85AF91AE17C8F40E94570AD4
:100BBA00E081E423AE2FE22F0E94260B0E94960AC0
:100BCA00E22FA42F0E94260BE095E1215E2B0E94C2
:100BDA007D0AFA93EA93A52F0E94280AE1CF2CC036
:100BEA00E93011F450E003C0EA30A9F45FEF0E9443
:100BFA008C0AAE2FE22F0E942E0B5E2F1F931F5FCF
:100C0A00EE85AF91AE1730F40E94900A4A93A0E0A5
:100C1A0006DEF4CF11C01F931F5FEE85AF91AE17AA
:100C2A0058F40E94A10AAE2FE22F0E942E0BEA93DB
:100C3A004A93AD85F4DDEFCFE885AA85BB85F0E060
:100C4A00EA0FFB1FEA87FB87B3CE0E949E0B6196D1
:100C5A0008950E94AE0A24F0E0E0F0E00C94DF0967
:100C6A00A881B981A435E0E0BE0724F0E3E5F0E00D
:100C7A000C94DF09E881F9810C94DF090E94AE0A1D
:100C8A0024F0E0E0F0E00C94DF09A881B981D09764
:100C9A0024F0EFE2F0E00C94DF09E881F9810C948A
:100CAA00DF09BA93AA9323970E94B50A8F01002EEF
:100CBA00012A19F4E0E0F0E05FC00E94BC0A0F824A
:100CCA000E94BC0A0E820E94BC0A0886EB85A8858F
:100CDA00EA1718F4E0E0F0E04FC0F8010F5F1F4F89
:100CEA005491A885BB27EE27A50FBE1FEB85F0E020
:100CFA00EA17FB0718F0E0E0F0E03EC0EE81E69567
:100D0A00E695E6954E2FEE81E77009F04F5FEF8189
:100D1A00E030A1F0A985BA85EC93A885EB85EA1B9A
:100D2A00F0E0DF01EF81F0E00E943B0BDF01E42FEE
:100D3A00F0E00E943B0BE00FF11F1EC09801E52F67
:100D4A00F0E00E0F1F1FA885AF5FA887A150EB85A3
:100D5A00AE1760F4F9012F5F3F4FA491B0E0E42F82
:100D6A00F0E00E943B0B0E0F1F1FEDCFF901E4913B
:100D7A00A985BA85EC93F8010E949E0B2C960895DA
:100D8A00E0E0E0934405A0914505BB270E94C10A13
:100D9A00F0E0AE0FBF1FE0914905F0E0AE0FBF1FB4
:100DAA006DDFE09345050895AA9321970E94B50A3D
:100DBA00309709F455C0AF81AA3009F44FC0EF81CA
:100DCA00EA93DE0117966DDFAF01309709F44AC046
:100DDA00E0914805AE81EA0F3E2FA0914405BB275A
:100DEA00F0E0EA0FFB1F8F010535E0E01E0718F05F
:100DFA00032F1127C5DFE0914405EA93E0914505E9
:100E0A00EA93E885EA930E94C10AEA93E1E0EA9349
:100E1A005A934A93A7E03CDDE0914405AE81EA0F7C
:100E2A00EA93E0914505EA93E0914805EA930E9426
:100E3A00C10A0E94C80AE0914405EA93A0914505B7
:100E4A000E94C10AEA0FEA933A93E09149050E9487
:100E5A00C80AE4E5F0E0E017F10711F491DF02C0F7
:100E6A00009344050E949E0B28960895BA93AA936C
:100E7A001A93EC81EA93AC8109D00E94D20A19F044
:100E8A00A12F92DFFACF18810C94BB09AA93A981EA
:100E9A00BB27DFDEE0934405A881BB27EFDEE093A2
:100EAA0045050C94DF09BA93AA931A930A93AA8167
:100EBA00BB8112960E94690B309759F1AA81BB81B6
:100ECA0014960E94690B8F01309761F00230E0E0BE
:100EDA001E0798F0F80131978F01AA81BB811496F9
:100EEA00ED93FC93AA81BB811296ED91FD91319607
:100EFA00FE93EE933197AC81A083AA81BB810E94B5
:100F0A00690BFF232AF0ED91FD913196FE93EE9342
:100F1A0006C0AA81BB81EFEFFFEFED93FC93198125
:100F2A0008810C94BB09BA93AA9326970E94970B3F
:100F3A0010E0AC85BD85E0E0F0E0ED93FC93EA8932
:100F4A00FB893196EA8BFB8B3197E4912E2FE030A7
:100F5A0009F415C1E12FE03039F4253211F411E01A
:100F6A0002C00E94DA0A0AC1E130A9F4253219F452
:100F7A000E94DA0A02C112E040E000E02D3211F4C8
:100F8A0001E0FCC02B3211F44BE2F8C0203211F41C
:100F9A0040E2F4C002C0E23039F450E013E02033FA
:100FAA0011F40068EBC003C0E33009F0E7C0203356
:100FBA0010F02A3308F007C0AAE05A9F502DE22FFA
:100FCA00E0535E0FDBC0E22FE33649F40E94E10AE8
:100FDA00E889F989A481AA930E94E70ACEC0E33777
:100FEA0041F40E94E10A0E94ED0A0E94BD091E2FE7
:100FFA000AC0E03761F40E94E10A0E94ED0A0E94E9
:10100A00C9091E2F086002600F7730E034C0E43649
:10101A0011F0E93611F4046002C0E53731F4EAE769
:10102A00F2E0EE83FF8315E00CC0E83511F40860A6
:10103A0003C0E83709F0A1C0E4E8F2E0EE83FF83D9
:10104A0014E002FF14C00E94E10A0E94F70AAB856D
:10105A00AA233AF4EA85FB850E94220BEA87FB87DA
:10106A004DE2403011F01F5F01C00B7F04C00E94A7
:10107A00E10A0E94F70A00FD11C0151778F407FF6C
:10108A0008C002FF04C00B7F242F115001C020E3C7
:10109A0001C020E20E94DA0A5150EFCF312F01FF3E
:1010AA0017C03030A1F003FF06C0EE81FF81259101
:1010BA00EE83FF8305C0AE81BF812D91AE83BF83CE
:1010CA000E94DA0A503009F051503150EACF4BC031
:1010DA0020E3EE81FF810E946D0BE887F987EE819C
:1010EA00FF813296EE83FF83E885F985AA85BB8561
:1010FA00AE17BF0750F02F5FA885B985EA85FB8533
:10110A00EA1BFB0BEA87FB87EFCF2A3328F003FFA2
:10111A0002C0295F01C0295D04FD1AC0213320F4F1
:10112A00A885B985119709F409C0531710F000FF73
:10113A0001C013C020E207FF0BC020E3006102FFD9
:10114A0007C00B7F4A930E94E70A503009F05150BA
:10115A000E94DA0A503009F051503150A885B985F9
:10116A00129708F0B5CF00FF08C0503031F0515047
:10117A00E0E2EA930E94E70AF8CF10E0E0CEAC85FD
:10118A00BD850E94690B0E949E0B64960895FF928A
:10119A00F82E26970E94990B0E94FF0A309719F49D
:1011AA00EFEFFFEF23C0DE0116960E941E0B8D01A2
:1011BA000E94FF0AEE83FF83E0E0E887E987DE0109
:1011CA001A960E941E0B0E94690BFA93EA931A93CD
:1011DA000A93E8E5F7E0FA93EA93DE011A96A3DEAA
:1011EA009F01AE81BF81E0E0EC93F9010E94A00B60
:1011FA002A96FF900895AA93E881E07111F0DB9A8C
:10120A0001C0DB98E881E07211F0DC9A01C0DC9839
:10121A00E881E07411F0DD9A01C0DD98E881E07898
:10122A0011F0DE9A01C0DE988DE08A95F1F7DA9A1C
:10123A008DE08A95F1F7DA988DE08A95F1F786C004
:10124A00AA93A881D8DFE881E295E883A881D3DF51
:10125A0085E88A95F1F77AC0AA93E881F0E0E75920
:10126A00F84FE081A981AE0FEBDF6980B8800C945A
:10127A00DF09A2E00E94060BACE0E2DFA1E00E94D7
:10128A00060BE0E0BE2E6E2E0895AA93A881AA301E
:10129A0011F06A1448F0E0E0EA93B394AB2DDCDF76
:1012AA00A881AA3009F452C06394D89AA881C8DFE9
:1012BA00D8984CC0BA93AA931A930E94D20A19F0EA
:1012CA00A12FE3DFFACF18810C94260ABA93AA93C6
:1012DA001A93E981FA813196E983FA833197E49185
:1012EA001E2FE03019F0A12FD0DFF3CF18810C9414
:1012FA00260AAA93D39AD49AD59AD69AD29AD09AE7
:10130A00D19ADA98D898D998A880E881E058E093D9
:10131A006B07E881E054E0936C07A4E1B0E00E9417
:10132A00140B0E940C0B0E940C0B0E940C0BA0E2E7
:10133A0062DF88EC90E00197F1F7A8E281DFA4E090
:10134A007FDFA5E87DDFA6E07BDF93DF21960895A6
:10135A00BA93AA93B981A881109631F0FC81EB81E6
:10136A006A8161931197E9F7EB81FC8125960895CB
:10137A00BA93AA93A991B991EE27FF276D91662393
:10138A0011F03196FBCF0895BA93AA93AA27BB27E7
:10139A00E991F9910590002011F01196FBCFFD011A
:1013AA000895AA93E881F0E0E059FD4FA491E981FC
:1013BA000E94260B22960895AA931A93E981E73090
:1013CA0011F0EA3019F41091420509C0E93019F414
:1013DA001091430504C0E830A1F410915205E09140
:1013EA004305E03049F0103019F0EFEF188129C0B9
:1013FA00EA81E095188125C0103019F4E0E01881DF
:10140A0020C0EA8118811DC0BA93AA93EA81E1300B
:10141A0021F4E881F981E49114C0E23029F4A88129
:10142A00B9810E94760B0DC0E33041F4A881B981DD
:10143A00E0915B05F0915C05099503C0A881B9812B
:10144A00EC9123960895AA93EB81E03029F4E88180
:10145A00A981BA81EC9314C0E23031F4E881A98100
:10146A00BA810E94820B0CC0E33051F4E981FA81FF
:10147A00FA93EA93AA81E0915D05F0915E050995D8
:10148A00249608950E943E090C94F6030E946B0963
:10149A00EAE0EA93EA9308950E943B07A0EDB7E0D9
:1014AA000C94140BAFE6B5E0ED91FD913196FE93E5
:1014BA00EE933197EF58FA4F0895E0936400E09164
:1014CA0065000895EA0FFB1FEE83FF830895EC85FC
:1014DA00EA93EF81F8853196EF83F8873197FA938B
:1014EA00EA93A0E00C94280A0A93A8890C9416039C
:1014FA00EC85EA93EF81F8853196EF83F887319787
:10150A00089566277727DF01CB010C94090A5A93BD
:10151A00AA850C94E1090A930395E889EA935A93F8
:10152A0008955E2FEC85EA93AF81B88588279927BD
:10153A000E94090A1E2E08950A930395E889EA93E0
:10154A00EE85EA93E985FA853196E987FA87319734
:10155A00D8CFBA93AA93A881B9810E94930B089510
:10156A000E94970BE0914605F09147050895F8010E
:10157A000F5F1F4F04900895E0914605F0914705CB
:10158A003196E4910895EA93E0E0EA93E0E0F0E02E
:10159A00FA93EA93A9E00C944D04A981BA81ED91DA
:1015AA00A983BA831E2FE03008952A93AD85BE859C
:1015BA00EF85F88909950895E889F9893497E88BC0
:1015CA00F98B0895AD85BE85EF85F889099508954B
:1015DA00A889B98914960E94690BEE83FF83AE81AC
:1015EA00BF810895A889B98914960E94690BEA8770
:1015FA00FB870895DE011C960E941E0B0E94690B50
:10160A0008950E942509A3E0B0E00C94140BA0E30E
:10161A000E94000988EC90E00197F1F7089510966E
:10162A0039F080ED97E00197F1F7A8951197C9F77E
:10163A0008950024AF0DB01D0895F195E195F0408D
:10164A000895EE230E2EEA2F19F0EE0F0A94E9F709
:10165A000895EE230E2EEA2F19F0E6950A94E9F77B
:10166A0008956F2F660F660B762F0895FA9FF02D57
:10167A00EB9FF00DEA9FE02DF10D0895002411244F
:10168A0090E1AA0FBB1F001C111C0E1A1F0A18F4A6
:10169A000E0E1F1E01C0A1609A9599F7FD01D00197
:1016AA00089504D0EBDF0EF4C8DF0895E894F7FF3D
:1016BA0002C0C3DF6894B7FF06C0A095B095119623
:1016CA0000F8039400FA0895ED91FC91119708959A
:1016DA000590F491E02D08957A936A93FA93EA9328
:1016EA000895E199FECFFF93FFB7F894AEBBBFBB55
:1016FA00E09AEDB3FFBFFF910895E19B02C0A89560
:10170A00FCCF9FB7F894AEBBBFBBE09A8DB3E81786
:10171A0019F0EDBBE29AE19A9FBF089500240A16D8
:10172A000B0608955A934A933A932A931A930A9363
:10173A0008955D814C813B812A8119810881089530
:00000001FF
