:060000000C948C010C942D
:1000060000000C9400000C9400000C9400000C946A
:1000160000000C9400000C9400000C9400000C945A
:1000260000000C9400000C9400000C9400000C944A
:1000360000000C9452020C9400000C9400000C94E6
:1000460000000C9400000C9400000C9400000C942A
:1000560000000C9400000C9400000C9400000C941A
:1000660000000C9400000C9400000C9400000C940A
:1000760000000C9400000C9400000C9400000C94FA
:1000860000000C940000050720600000000000003E
:10009600005F00000007000700147F147F14242A65
:1000A6007F2A12231308646236495522500005033D
:1000B6000000001C2241000041221C00082A1C2AC4
:1000C6000808083E0808005030000008080808081C
:1000D600003030000020100804023E5149453E0021
:1000E600427F400042615149462141454B31181437
:1000F600127F1027454545393C4A49493001710967
:1001060005033649494936064949291E003636004F
:10011600000056360000000814224114141414146A
:1001260041221408000201510906324979413E7EF6
:100136001111117E7F494949363E414141227F4195
:1001460041221C7F494949417F090901013E41413C
:1001560051327F0808087F00417F41002040413F1F
:10016600017F081422417F404040407F0204027F05
:100176007F0408107F3E4141413E7F090909063E42
:100186004151215E7F0919294646494949310101F4
:100196007F01013F4040403F1F2040201F7F201825
:1001A600207F6314081463030478040361514945EE
:1001B6004300007F4141020408102041417F0000B6
:1001C60004020102044040404040000102040020B5
:1001D600545454787F48444438384444442038447E
:1001E60044487F3854545418087E090102081454B0
:1001F600543C7F0804047800447D40002040443D80
:1002060000007F10284400417F40007C04180478D9
:100216007C0804047838444444387C1414140808D0
:100226001414187C7C080404084854545420043FD1
:100236004440203C4040207C1C2040201C3C403058
:10024600403C44281028440C5050503C4464544CC4
:1002560044000836410000007F00000041360800D7
:1002660002010204027F4141417F000103070F1F83
:100276003F7FFF0000000A000000000100000000B0
:100286000100020003000400050006000700080044
:1002960044616E672064692063687579656E004401
:1002A600616E672064692063687579656E202E2EFD
:1002B6002E0044656E2074616E670044656E20747E
:1002C600616E673A200080C001002D4E414E004904
:1002D6004E4600000A0004007A02110067058402F7
:1002E6000F000005960213000F05A502090022055E
:1002F600B8020B002B05C10209003605B8020B0037
:100306003F05C10202008C07CC0201009207CE0213
:100316000000F894EE27ECBBF1E0F5BFE5BFE093F3
:100326006C008DE0A2E0BB27ED938A95E9F780E0AB
:1003360090E1A0E0B1E0ED930197E9F7EAEDF2E094
:1003460085919591009761F0A591B59105901590CD
:10035600BF01F00105900D920197E1F7FB01F0CF87
:100366008BBFEFEFEDBFE0E1EEBFC0E0D5E00C9450
:100376008B03EAEEE0936100BC9AA79ABD9AE3E884
:10038600E6B908950E94B70A30E03330A0F5303060
:1003960019F4EDEFE0936200313019F4E7EFE093E2
:1003A6006200323019F4EFEDE093620000E00330B2
:1003B60000F5003041F4E0B1E4701E2F143019F05E
:1003C6000E9484091AC0013041F4E0B1E0711E2F89
:1003D600103119F00E94840910C0023041F4E0B1D6
:1003E600E1701E2F113019F00E94840906C00F5FBC
:1003F600DECF3F5FCACFEFEFFFEF0E94BE0A249623
:100406000895BA93AA932897ECE8F0E0E883F98375
:10041600EE81EC7FEE83EA85E770EE0FEE0F0E2E8F
:10042600EE81E37EE029EE83E885EF770E2EEF81FD
:10043600E078E029EF83DE0109D20C949D07A0E164
:100446000E94A5080E9472080895BA93AA93A881EB
:10045600EFEFEA1BE1BFBEC0C59A0895A8E7B0E07A
:10046600F4DF0895A0E0B0E0F0DFC5980895E0E07D
:10047600E0BFE4E7E3BFE0E0E2BFA0E0B0E0E5DF35
:10048600E0E0EFBDE1E0EEBDECEFEDBDE0EEECBD92
:10049600E4E0E7BFE0E0E0937D00789408950A92F7
:1004A6001A92FA926A937A938A939A93AA93BA9330
:1004B600EA93FA93EFB7EA931A930A93ECEFEDBD3A
:1004C600E0EEECBDF20131962F01E8ECF0E04E16BD
:1004D6005F0614F0442455244614570414F4AF9AC6
:1004E60001C0AF98E7ECF0E0E415F50569F44ADFE2
:1004F6008F01EFEFFFEFE017F10731F0A9E8B5E064
:10050600A00FB11FE1E0EC9309911991E991EFBFBA
:10051600F991E991B991A991999189917991699105
:10052600F990199009901895BA93AA93E881F981E0
:10053600309739F4E1E8E0936200E9EFE2BBEFE7D8
:10054600EBBBA881B981119719F4E7E80E949309DA
:10055600A881B981129729F4E5E80E949A09EFEF7C
:10056600EBBBA881B981139719F4E5E80E949F09AE
:10057600A881B981149739F4E3E8E0936200E7EFC4
:10058600E2BBEFE7EBBBA881B981159719F4E1EA65
:100596000E949F09A881B981169729F4E1EA0E9471
:1005A6009A09EFE7EBBBA881B981179719F4E5E83B
:1005B6000E949309A881B981189729F4E1E80E945D
:1005C6009A09EFE7EBBBA881B981199719F4E1E81D
:1005D6000E949F0922960895882499240E94A609BC
:1005E60064F00E94AB09A13041F00E94A60909F40B
:1005F6000895F40131964F01F1CFBB20B1F04601C9
:100606000E94A60994F00E94A60921F40E94AB0953
:10061600A03009F002C0BB2404C00E94AB09A1307F
:1006260021F0F40131964F01EBCFBB20C9F446010E
:10063600002480149004A4F000240814090421F472
:100646000E94AB09A03009F003C0E1E0BE2E089578
:100656000E94AB09A13021F0F40131974F01E8CF98
:100666000E94B109BB2011F0F9DE01C0F5DEA9E850
:10067600B5E0AC0DBD1DEC91E03081F58ED1E5E025
:10068600EA93EAE0EA93A0E0B5E00E94BC09A0E0A4
:100696000E946308AFE0B5E00E949908BB2019F0FC
:1006A600F601319602C0F60131976F010E94C30927
:1006B600A2E2B5E00E94CE090E941508E0E0EA93A6
:1006C600A1E00E946308ABE2B5E00E94D709D6011B
:1006D6002BDFA8EEB3E00E946E0AC9CF5ED10E945E
:1006E600C309A6E3B5E00E94CE090E94BC09A1E0B9
:1006F6000E946308AFE3B5E00E94D709A9E8B5E018
:10070600AC0DBD1DE0E0EC93ADDE0E94B10908958D
:10071600EFEFE0936100E1BBEABBE4E0F0E0FA93BF
:10072600EA93A2E4B0E06DDE8ADE23DEA0DEDA9292
:10073600CA92A9E7B5E00E94D508EEE1EA93E4E1A2
:10074600EA93A9E7B5E00E94150846DFFECFFFCF82
:100756000895AA931A93E0916500EF7EE0936500F1
:1007660018E0F6DFE981E07821F0E0916500E260CB
:1007760003C0E0916500ED7FE0936500E981EE0F2F
:10078600E983E6DFE0916500E460E0936500E0DF81
:10079600E0916500EB7FE0936500115011F7E09161
:1007A6006500E061E093650018810C941C09AA932A
:1007B600E0916500EE7FE0936500A881CADF0C94A6
:1007C600D308AA93E0916500E160E0936500A881F3
:1007D600C0DF0C94D308AA931A93E981E695E695AF
:1007E600E6951E2FE4E5E19FF001DF01EA81F0E0E6
:1007F600EA0FFB1FE0939205F0939305E12F188112
:100806000C946309AA93E981E068AE2FD0DFE981F1
:10081600EA93A981E0DFE064AE2FC9DF0C941C09DE
:10082600AA93E981EA93A981EDDFE0919205F0911F
:100836009305EC56FA4FE0810C941C09AA930E948A
:10084600DD09A881A083BDDF0C94D308BA93AA93CF
:100856000E94B70AE0916400E0610E94E809E06145
:10086600E0936500E0916400E4600E94E809EB7F94
:10087600E0936500E0916400E260E0936400E0913B
:100886006400E160E0936400E0916400E8600E9427
:10089600E809E77FE0936500AAE0B0E00E946E0AEF
:1008A600E0916500E860E0936500EC81FD8130979A
:1008B60021F1E681E3701E2FEC81FD81E681E6954C
:1008C600E695E7700E2FEC81FD81E781EF773E2FED
:1008D600AC81BD810E94900AE0934E05F0934F05CE
:1008E60012960E94900AE0936305F0936405AC812A
:1008F600BD8114960E94900A0DC010E003E032E319
:10090600E0E0F0E0E0934E05F0934F05E0936305D9
:10091600F0936405E0936505F0936605A1E247DF71
:10092600E12FE460AE2F43DFE02FE061AE2F3FDF23
:10093600E32FE068AE2F3BDFA0E239DFA1E022D053
:10094600E1E0E0934A05E0E0E0934B05E1E0E09367
:100956005005E0935105E0935205EFEFE093530500
:10096600E1E0E0935A05EBE5F5E0FA93EA93EFEF61
:10097600EA93A8E0B0E00E9403090FD0E1E00E94EC
:10098600BE0A60C0AA93E881E03011F0ECE001C035
:10099600E8E0AE2F0CDF0C94D3080E94B70A30E0D3
:1009A600E0914B05E03009F03FEFE0E0EA93A0E08C
:1009B60029DF08EF11E0F80101501040309719F0D7
:1009C600A32F3CDFF8CFE0E0EA93A0E03BD30E9400
:1009D600BE0A0C948209AA931A93ED81EA93AD811B
:1009E6001FDF1E2FE981E73011F0E83039F4EB8183
:1009F600EA93AA810E941E09EB8308C0E33021F422
:100A0600EB81E095EB8302C0E03021F4EA81E095CA
:100A16001E2302C0E23029F4EA81AB81EA231E2BB1
:100A26000EC0E13029F4EA81AB81EA231E2707C014
:100A3600E43029F4EA81E095AB81EA2B1E23A12F4D
:100A4600FDDE188126960895AA9323970E94B50A7B
:100A5600A889A43548F4AF85A03330F4AE85A0301C
:100A660019F0AD85A03009F4CCC1EE85E887A889D8
:100A7600BB27EE85F0E0AE0FBF1FA535E0E0BE0751
:100A860020F0A889E4E5EA1BEE872D85AF85BB2714
:100A9600ED85F0E0AE0FBF1FD19720F0AF85E0E304
:100AA600EA1BED87A985A63009F05BC0EC85E1302D
:100AB60009F4A7C1E33039F4E0916505F0916605C4
:100AC600309709F49EC10885ED85E695E695E6958D
:100AD6003E2FE22FE77019F4AD852A17E9F0A02F13
:100AE600BB27E32FF0E00E94880AAA85BB850E94F7
:100AF600ED09269526952695532F5F935F5FE22F86
:100B0600AF91EA1748F0102FE12F1150E03019F09D
:100B16000E94F209F9CFF1CFAE850A1711F1EE85E1
:100B2600AA85BB85F0E00E94ED09ED85E77009F026
:100B36003F5F20E02F932F5FE32FAF91AE1788F42E
:100B46001E851F931F5FE02FAF91AE1718F40E940A
:100B5600F209F7CFEE85AE81BF81F0E00E94ED0984
:100B6600E9CFEF85E7703E2FED85E03009F449C106
:100B7600EA85FB85EE83FF8310E00889303009F0B3
:100B860063C0AD85A83008F45AC0E985E03011F09D
:100B9600E33009F402C0E73009F402C0E83009F492
:100BA60002C0E93009F402C0EA3021F40A93A889A8
:100BB60029DE04C0E63011F40E94FF091F931F5F6F
:100BC600EE85AF91AE17A0F5A985A63051F40E9427
:100BD600030AFA93EA930E94DD09A0810E9465093F
:100BE60026C0E985E93011F450E00EC0EA3011F470
:100BF6005FEF0AC00E94030A0E940C0A5E2FE98575
:100C0600E73011F0E83021F40E94120A5E2F06C088
:100C1600E33011F4509502C0E03019F4A52FD1DD70
:100C260006C00E94160AEFEFEA93AD85D4DEC6CF62
:100C3600EF85E85FEF87ED85E850ED87D9C05D85E4
:100C460020E0E0E0ED877EC0E32FAD85AE0FA93052
:100C560020F42D85E0E0ED8703C0E8E0E31B2E2FAE
:100C66003A93A22F0E9413094E2FE985E63011F51B
:100C76000E94FF091F931F5FEE85AF91AE17C8F460
:100C86000E94DD09E081E423AE2FE32F0E94800A53
:100C96000E941C0AE32FA42F0E94800AE095E121FE
:100CA6005E2B0E94030AFA93EA93A52F0E94650918
:100CB600E1CF2CC0E93011F450E003C0EA30A9F4CA
:100CC6005FEF0E94120AAE2FE32F0E94780A5E2F72
:100CD6001F931F5FEE85AF91AE1730F40E94160A80
:100CE6004A93A0E078DEF4CF11C01F931F5FEE8514
:100CF600AF91AE1758F40E94270AAE2FE32F0E9439
:100D0600780AEA934A93AD8566DEEFCFED85E0304B
:100D160009F477C0AD85A83028F4ED85E21B5E2F77
:100D2600E0E003C0532FED85E850ED8710E0EF8536
:100D3600E85FEF87E8E0E31B2E2F0889EA85FB854D
:100D4600EE83FF83E52FF0E0E059FD4F4491E985FE
:100D5600E63011F50E94FF091F931F5FEE85AF91E4
:100D6600AE17C8F40E94DD09E081E423AE2FE22F1E
:100D76000E94780A0E941C0AE22FA42F0E94780A79
:100D8600E095E1215E2B0E94030AFA93EA93A52FD0
:100D96000E946509E1CF2CC0E93011F450E003C090
:100DA600EA30A9F45FEF0E94120AAE2FE22F0E94EA
:100DB600800A5E2F1F931F5FEE85AF91AE1730F44A
:100DC6000E94160A4A93A0E006DEF4CF11C01F93D4
:100DD6001F5FEE85AF91AE1758F40E94270AAE2F1B
:100DE600E22F0E94800AEA934A93AD85F4DDEFCFA5
:100DF600E885AA85BB85F0E0EA0FFB1FEA87FB873B
:100E0600B3CE0E94BC0A619608950E94340A24F06B
:100E1600E0E0F0E00C941C09A881B981A435E0E07B
:100E2600BE0724F0E3E5F0E00C941C09E881F981A3
:100E36000C941C090E94340A24F0E0E0F0E00C94C3
:100E46001C09A881B981D09724F0EFE2F0E00C9458
:100E56001C09E881F9810C941C09BA93AA9323977B
:100E66000E943B0A8F01002E012A19F4E0E0F0E00F
:100E76005FC00E94420A0F820E94420A0E820E94AE
:100E8600420A0886EB85A885EA1718F4E0E0F0E048
:100E96004FC0F8010F5F1F4F5491A885BB27EE275F
:100EA600A50FBE1FEB85F0E0EA17FB0718F0E0E0A0
:100EB600F0E03EC0EE81E695E695E6954E2FEE8192
:100EC600E77009F04F5FEF81E030A1F0A985BA85A0
:100ED600EC93A885EB85EA1BF0E0DF01EF81F0E0FB
:100EE6000E94880ADF01E42FF0E00E94880AE00FE2
:100EF600F11F1EC09801E52FF0E00E0F1F1FA885F9
:100F0600AF5FA887A150EB85AE1760F4F9012F5F9C
:100F16003F4FA491B0E0E42FF0E00E94880A0E0F44
:100F26001F1FEDCFF901E491A985BA85EC93F8016D
:100F36000E94BC0A2C960895E0E0E0934C05A0912F
:100F46004D05BB270E94470AF0E0AE0FBF1FE09198
:100F56005105F0E0AE0FBF1F6DDFE0934D0508951C
:100F6600AA9321970E943B0A309709F455C0AF8196
:100F7600AA3009F44FC0EF81EA93DE0117966DDFC0
:100F8600AF01309709F44AC0E0915005AE81EA0FEF
:100F96003E2FA0914C05BB27F0E0EA0FFB1F8F0107
:100FA6000535E0E01E0718F0032F1127C5DFE09195
:100FB6004C05EA93E0914D05EA93E885EA930E9491
:100FC600470AEA93E1E0EA935A934A93A7E03CDDA5
:100FD600E0914C05AE81EA0FEA93E0914D05EA9364
:100FE600E0915005EA930E94470A0E944E0AE0915A
:100FF6004C05EA93A0914D050E94470AEA0FEA9331
:101006003A93E09151050E944E0AE4E5F0E0E017BC
:10101600F10711F491DF02C000934C050E94BC0A4F
:1010260028960895BA93AA931A93EC81EA93AC8111
:1010360009D00E94580A19F0A12F92DFFACF188121
:101046000C941109AA93A981BB27DFDEE0934C0516
:10105600A881BB27EFDEE0934D050C941C09AA93EB
:10106600E881E07111F0DB9A01C0DB98E881E0725B
:1010760011F0DC9A01C0DC98E881E07411F0DD9A89
:1010860001C0DD98E881E07811F0DE9A01C0DE98B3
:101096008DE08A95F1F7DA9A8DE08A95F1F7DA987C
:1010A6008DE08A95F1F77CC0AA93A881D8DFE88104
:1010B600E295E883A881D3DF85E88A95F1F770C0C9
:1010C600AA93E881F0E0E457F84FE081A981AE0FDA
:1010D600EBDFA980E881E09390070C941C09A2E05D
:1010E6000E94600AACE0E0DFA1E00E94600AE0E056
:1010F600E0939007AE2E0895AA93A881AA3021F016
:10110600E0919107AE1660F0E0E0EA93A0919007B7
:10111600AF5FA0939007D4DFA881AA3009F440C03E
:10112600A394D89AA881C0DFD8983AC0BA93AA9354
:101136001A930E94580A19F0A12FDEDFFACF188100
:101146000C946309AA93D39AD49AD59AD69AD29A2A
:10115600D09AD19ADA98D898D998E881E0939107ED
:10116600E058E0938E07E881E054E0938F07A4E10E
:10117600B0E00E946E0A0E94660A0E94660A0E94F9
:10118600660AA0E26CDF88EC90E00197F1F7A8E22E
:101196008BDFA4E089DFA5E887DFA6E085DF9FDF98
:1011A60021960895BA93AA93A991B991E991F991D3
:1011B60030962AF4E095F09531966DE26D93E894B9
:1011C60080E197E20DD088EE93E00AD084E6992775
:1011D60007D08AE005D06E2F10D066276C9308954D
:1011E6006627E817F90720F06395E81BF90BC9F79E
:1011F600662311F416F008956894605D6D93089562
:10120600BA93AA93B981A881109631F0FC81EB813B
:101216006A8161931197E9F7EB81FC812596089520
:10122600AA93E881F0E0E059FD4FA491E9810E947C
:10123600780A22960895AA931A93E981E73011F065
:10124600EA3019F410914A0509C0E93019F41091F1
:101256004B0504C0E830A1F410915A05E0914B0506
:10126600E03049F0103019F0EFEF188129C0EA811B
:10127600E095188125C0103019F4E0E0188120C0EF
:10128600EA8118811DC0BA93AA93EA81E13021F45C
:10129600E881F981E49114C0E23029F4A881B9818A
:1012A6000E94940A0DC0E33041F4A881B981E0910F
:1012B6006305F0916405099503C0A881B981EC9195
:1012C60023960895AA93EB81E03029F4E881A98159
:1012D600BA81EC9314C0E23031F4E881A981BA8175
:1012E6000E94A00A0CC0E33051F4E981FA81FA9316
:1012F600EA93AA81E0916505F09166050995249621
:101306000895A6E00A9FF001E959FA4FDF01E32F9D
:10131600F0E0EE0FFF1FAE0FBF1F0E94900A089568
:10132600E0936200EFEFE2BBEFE7EBBB0895E093DB
:101336006200E1EFE2BB0895E0936200E5EFE2BBF5
:10134600EFE7EBBB0895E8E0F0E0E815F90508954E
:10135600A9E8B5E0A80DB91DAC910895EFE0F0E05D
:101366003F01A0EDB7E00E946E0AEAE0F0E03F011F
:1013760008950E9415080E947208E0E0EA93089515
:10138600DA92CA92A9E7B5E00E94D508E5E0EA93A9
:10139600E9E1EA9308950E941508E7E3EA93E9E193
:1013A600EA93A9E7B5E008950E949908AC2DA05DDF
:1013B6000C947F08A2E9B5E0ED91FD913196FE937C
:1013C600EE933197EC56FA4F0895E0936400E0915E
:1013D60065000895EA0FFB1FEE83FF830895EC85F1
:1013E600EA93EF81F8853196EF83F8873197FA9380
:1013F600EA93A0E00C9465090A93A8890C94EE037D
:10140600EC85EA93EF81F8853196EF83F88731977B
:10141600089566277727DF01CB010C9446095A9376
:10142600AA850C941E090A930395E889EA935A93B0
:1014360008955E2FEC85EA93AF81B88588279927B2
:101446000E9446091E2E08950A930395E889EA9399
:10145600EE85EA93E985FA853196E987FA87319729
:10146600D8CFBA93AA93A881B9810E94B10A0895E8
:101476000E94B50AE0914E05F0914F050895F801D6
:101486000F5F1F4F04900895E0914E05F0914F05B0
:101496003196E4910895EA93E0E0EA93E0E0F0E023
:1014A600FA93EA93A9E00C942705A981BA81ED91F4
:1014B600A983BA831E2FE03008950E945708A3E03F
:1014C600B0E00C946E0AA0E30E94320888EC90E02B
:1014D6000197F1F70895109639F080ED97E001979E
:1014E600F1F7A8951197C9F70895EE230E2EEA2F66
:1014F60019F0EE0F0A94E9F70895EE230E2EEA2F5F
:1015060019F0E6950A94E9F70895FA9FF02DEB9FF6
:10151600F00DEA9FE02DF10D0895ED91FC911197E4
:101526000895E199FECFFF93FFB7F894AEBBBFBB1A
:10153600E09AEDB3FFBFFF910895E19B02C0A89525
:10154600FCCF9FB7F894AEBBBFBBE09A8DB3E8174C
:1015560019F0EDBBE29AE19A9FBF089500240A169E
:101566000B0608955A934A933A932A931A930A9329
:1015760008955D814C813B812A81198108810895F6
:00000001FF
