:060000000C9489010C9430
:1000060000000C9400000C9400000C9400000C946A
:1000160000000C9400000C9400000C9400000C945A
:1000260000000C9400000C9400000C9400000C944A
:1000360000000C9400000C9400000C94B9010C9480
:1000460000000C9400000C9400000C9400000C942A
:1000560000000C9400000C9400000C9400000C941A
:1000660000000C9400000C9400000C9400000C940A
:1000760000000C9400000C9400000C9400000C94FA
:1000860000000C940000050720600000000000003E
:10009600005F00000007000700147F147F14242A65
:1000A6007F2A12231308646236495522500005033D
:1000B6000000001C2241000041221C00082A1C2AC4
:1000C6000808083E0808005030000008080808081C
:1000D600003030000020100804023E5149453E0021
:1000E600427F400042615149462141454B31181437
:1000F600127F1027454545393C4A49493001710967
:1001060005033649494936064949291E003636004F
:10011600000056360000000814224114141414146A
:1001260041221408000201510906324979413E7EF6
:100136001111117E7F494949363E414141227F4195
:1001460041221C7F494949417F090901013E41413C
:1001560051327F0808087F00417F41002040413F1F
:10016600017F081422417F404040407F0204027F05
:100176007F0408107F3E4141413E7F090909063E42
:100186004151215E7F0919294646494949310101F4
:100196007F01013F4040403F1F2040201F7F201825
:1001A600207F6314081463030478040361514945EE
:1001B6004300007F4141020408102041417F0000B6
:1001C60004020102044040404040000102040020B5
:1001D600545454787F48444438384444442038447E
:1001E60044487F3854545418087E090102081454B0
:1001F600543C7F0804047800447D40002040443D80
:1002060000007F10284400417F40007C04180478D9
:100216007C0804047838444444387C1414140808D0
:100226001414187C7C080404084854545420043FD1
:100236004440203C4040207C1C2040201C3C403058
:10024600403C44281028440C5050503C4464544CC4
:1002560044000836410000007F00000041360800D7
:1002660002010204027F4141417F000103070F1F83
:100276003F7FFF001027E80364000A00010000101A
:100286000001100001000000000000000100020053
:100296000300040005000600070008005041535300
:1002A600574F52443F004E4F3F0050415353454431
:1002B600004E455720504153533F00534156454445
:1002C600000001002D4E414E00494E46000004003C
:1002D60004008C021100560590020A000005A202D5
:1002E6000A000A05A20204001405AC02070018055C
:1002F600B0020A001F05B7020A002905B702060068
:100306003305C10201006C07C8020000F894EE270D
:10031600ECBBF1E0F5BFE5BFE0936C008DE0A2E039
:10032600BB27ED938A95E9F780E090E1A0E0B1E084
:10033600ED930197E9F7E4EDF2E085919591009749
:1003460061F0A591B59105901590BF01F00105905A
:100356000D920197E1F7FB01F0CF8BBFEFEFEDBFF9
:10036600E0E1EEBFC0E0D5E00C94B3020A92EA9356
:10037600FA93EFB7EA93E6E0E2BFE3E0F0E04E1669
:100386005F06BCF0E0EDF7E0E615F70511F466242C
:100396007724062C072811F49498959AE8EEF3E052
:1003A600E615F70511F49598949AF30131963F01F5
:1003B60002C094989598E991EFBFF991E991099057
:1003C60018950E94470930E03330A0F5303019F413
:1003D600EDEFE0936200313019F4E7EFE09362004D
:1003E600323019F4EFEDE093620000E0033000F5DF
:1003F600003041F4E0B1E4701E2F143019F00E9471
:1004060046083AC0013041F4E0B1E0711E2F1031C8
:1004160019F00E94460830C0023041F4E0B1E170A4
:100426001E2F113019F00E94460826C00F5FDECF3E
:100436003F5FCACFEFEFFFEF0E944E091DC0BA9390
:10044600AA930E945708AC81BD810E947507A881B6
:10045600B981AF3FEFEFBE0779F0E881F981FA93F2
:10046600EA93A8E6B5E00E949707EEE1EA93EA93DD
:10047600A8E6B5E00E947507249608952497ECE651
:10048600EA83E0E0EB830E9445090E945E08A0E053
:10049600B0E00E941809EE83FF83AE81BF81A436C7
:1004A600E0E0BE0720F0A83EE3E0BE0708F004C087
:1004B600EE81FF81E887F987E885F985E417F50776
:1004C600D9F1E0E0F5E00E946508E3E0F0E0E0172E
:1004D600F107B1F00E946B0891F00F5F1F4FAAE081
:1004E600A49FF001A59FF00DE20FF31FAF01EAE014
:1004F600F5E0FA93EA93DA01A2DF2FEF3FEFE5CFBB
:10050600E885F985E417F50761F00E945708A4E12C
:10051600B5E00E9475070E945E08A0E2B3E00E9463
:10052600F208F20131962F01E3E0F0E0E415F5055B
:1005360011F4A39AAB9AC0CF44245524A4EFB1E09A
:100546000E94F2088AD1AB98EFE0EA93E4E1EA93DD
:10055600A8E1B5E00E9475070E944C092A96089505
:10056600289700E010E040E050E0ECE8F0E0E88397
:10057600F983EE81EC7FEE83E37EE061EE83EF812B
:10058600E078E264EF83DE01C1D0EAEEE093610039
:100596008D9A8C9AE0E0E0BFE3E0E3BFE6E0E2BFDD
:1005A600E0E0E1BFE1E0E7BFE0E0E0937D007894C2
:1005B60065DFACEDB5E00E94F208EFE1F5E00E94E0
:1005C6006508E3E0F0E0E417F507B1F00E946B0878
:1005D60091F04F5F5F4FAAE0A09FF001A19FF00D41
:1005E600E20FF31F8F01E9E2F5E0FA93EA93D801EF
:1005F60026DF2FEF3FEFE5CFF801A0E0B0E00E9445
:100606002809A0E2B3E00E94F208E3E3F5E00E94C5
:100616006508FFCFFFCF0895AA931A93E09165006E
:10062600EF7EE093650018E0F6DFE981E07821F0DF
:10063600E0916500E26003C0E0916500ED7FE09324
:100646006500E981EE0FE983E6DFE0916500E4608D
:10065600E0936500E0DFE0916500EB7FE0936500E5
:10066600115011F7E0916500E061E0936500188193
:100676000C94DE07AA93E0916500EE7FE093650097
:10068600A881CADFE8C0AA93E0916500E160E09323
:100696006500A881C1DFDFC0AA931A93E981E695B8
:1006A600E695E6951E2FE4E5E19FF001DF01EA817C
:1006B600F0E0EA0FFB1FE0937205F0937305E12F5C
:1006C60018810C942508AA93E981E068AE2FD2DF41
:1006D600E981EA93A981E0DFE064AE2FCBDF0C94D9
:1006E600DE07AA93E981EA93A981EDDFE09172051D
:1006F600F0917305EC58FA4FE0810C94DE07AA934B
:100706000E947708A881A083BEDFA5C0BA93AA93EA
:100716000E944709E0916400E0610E948208E0615E
:10072600E0936500E0916400E4600E948208EB7F3C
:10073600E0936500E0916400E260E0936400E0917C
:100746006400E160E0936400E0916400E8600E9468
:100756008208E77FE0936500AAE0B0E00E94F20815
:10076600E0916500E860E0936500EC81FD813097DB
:1007760021F1E681E3701E2FEC81FD81E681E6958D
:10078600E695E7700E2FEC81FD81E781EF773E2F2E
:10079600AC81BD810E941409E0933D05F0933E05AE
:1007A60012960E941409E0935205F0935305AC810A
:1007B600BD8114960E9414090DC010E003E032E3D7
:1007C600E0E0F0E0E0933D05F0933E05E09352054E
:1007D600F0935305E0935405F0935505A1E24ADFE3
:1007E600E12FE460AE2F46DFE02FE061AE2F42DF5F
:1007F600E32FE068AE2F3EDFA0E23CDFA1E022D08F
:10080600E1E0E0933905E0E0E0933A05E1E0E093CA
:100816003F05E0934005E0934105EFEFE093420585
:10082600E1E0E0934905EAE4F5E0FA93EA93EFEFB5
:10083600EA93A8E0B0E00E94C5070FD0E1E00E946D
:100846004E0960C0AA93E881E03011F0ECE001C0E7
:10085600E8E0AE2F0FDF219608950E94470930E0A9
:10086600E0913A05E03009F03FEFE0E0EA93A0E0DE
:100876002ADF08EF11E0F80101501040309719F017
:10088600A32F3DDFF8CFE0E0EA93A0E040D30E943B
:100896004E090C944408AA931A93ED81EA93AD810C
:1008A60020DF1E2FE981E73011F0E83039F4EB81C3
:1008B600EA93AA810E94E007EB8308C0E33021F4A3
:1008C600EB81E095EB8302C0E03021F4EA81E0950C
:1008D6001E2302C0E23029F4EA81AB81EA231E2BF3
:1008E6000EC0E13029F4EA81AB81EA231E2707C056
:1008F600E43029F4EA81E095AB81EA2B1E23A12F8F
:10090600FEDE188126960895AA9323970E9445092C
:10091600A889A43548F4AF85A03330F4AE85A0305D
:1009260019F0AD85A03009F4CCC1EE85E887A88919
:10093600BB27EE85F0E0AE0FBF1FA535E0E0BE0792
:1009460020F0A889E4E5EA1BEE872D85AF85BB2755
:10095600ED85F0E0AE0FBF1FD19720F0AF85E0E345
:10096600EA1BED87A985A63009F05BC0EC85E1306E
:1009760009F4A7C1E33039F4E0915405F091550527
:10098600309709F49EC10885ED85E695E695E695CE
:100996003E2FE22FE77019F4AD852A17E9F0A02F54
:1009A600BB27E32FF0E00E940C09AA85BB850E94B5
:1009B6008708269526952695532F5F935F5FE22F2E
:1009C600AF91EA1748F0102FE12F1150E03019F0DF
:1009D6000E948C08F9CFF1CFAE850A1711F1EE858A
:1009E600AA85BB85F0E00E948708ED85E77009F0CF
:1009F6003F5F20E02F932F5FE32FAF91AE1788F470
:100A06001E851F931F5FE02FAF91AE1718F40E944B
:100A16008C08F7CFEE85AE81BF81F0E00E94870893
:100A2600E9CFEF85E7703E2FED85E03009F449C147
:100A3600EA85FB85EE83FF8310E00889303009F0F4
:100A460063C0AD85A83008F45AC0E985E03011F0DE
:100A5600E33009F402C0E73009F402C0E83009F4D3
:100A660002C0E93009F402C0EA3021F40A93A889E9
:100A76002ADE04C0E63011F40E9499081F931F5F16
:100A8600EE85AF91AE17A0F5A985A63051F40E9468
:100A96009D08FA93EA930E947708A0810E9427088E
:100AA60026C0E985E93011F450E00EC0EA3011F4B1
:100AB6005FEF0AC00E949D080E94A6085E2FE98586
:100AC600E73011F0E83021F40E94AC085E2F06C032
:100AD600E33011F4509502C0E03019F4A52FD3DDB0
:100AE60006C00E94B008EFEFEA93AD85D4DEC6CF0C
:100AF600EF85E85FEF87ED85E850ED87D9C05D8526
:100B060020E0E0E0ED877EC0E32FAD85AE0FA93093
:100B160020F42D85E0E0ED8703C0E8E0E31B2E2FEF
:100B26003A93A22F0E94D5074E2FE985E63011F59C
:100B36000E9499081F931F5FEE85AF91AE17C8F408
:100B46000E947708E081E423AE2FE32F0E94040978
:100B56000E94B608E32FA42F0E940409E095E12124
:100B66005E2B0E949D08FA93EA93A52F0E94270800
:100B7600E1CF2CC0E93011F450E003C0EA30A9F40B
:100B86005FEF0E94AC08AE2FE32F0E94FC085E2F99
:100B96001F931F5FEE85AF91AE1730F40E94B00829
:100BA6004A93A0E078DEF4CF11C01F931F5FEE8555
:100BB600AF91AE1758F40E94C108AE2FE32F0E94E2
:100BC600FC08EA934A93AD8566DEEFCFED85E0300B
:100BD60009F477C0AD85A83028F4ED85E21B5E2FB9
:100BE600E0E003C0532FED85E850ED8710E0EF8578
:100BF600E85FEF87E8E0E31B2E2F0889EA85FB858F
:100C0600EE83FF83E52FF0E0E059FD4F4491E9853F
:100C1600E63011F50E9499081F931F5FEE85AF918C
:100C2600AE17C8F40E947708E081E423AE2FE22FC6
:100C36000E94FC080E94B608E22FA42F0E94FC081E
:100C4600E095E1215E2B0E949D08FA93EA93A52F79
:100C56000E942708E1CF2CC0E93011F450E003C010
:100C6600EA30A9F45FEF0E94AC08AE2FE22F0E9493
:100C760004095E2F1F931F5FEE85AF91AE1730F408
:100C86000E94B0084A93A0E006DEF4CF11C01F937D
:100C96001F5FEE85AF91AE1758F40E94C108AE2FC4
:100CA600E22F0E940409EA934A93AD85F4DDEFCF63
:100CB600E885AA85BB85F0E0EA0FFB1FEA87FB877C
:100CC600B3CE0E944C09619608950E94CE0824F086
:100CD600E0E0F0E00C94DE07A881B981A435E0E0FD
:100CE600BE0724F0E3E5F0E00C94DE07E881F98125
:100CF6000C94DE070E94CE0824F0E0E0F0E00C94AD
:100D0600DE07A881B981D09724F0EFE2F0E00C94D9
:100D1600DE07E881F9810C94DE07BA93AA9323973C
:100D26000E94D5088F01002E012A19F4E0E0F0E0B8
:100D36005FC00E94DC080F820E94DC080E820E94BF
:100D4600DC080886EB85A885EA1718F4E0E0F0E0F1
:100D56004FC0F8010F5F1F4F5491A885BB27EE27A0
:100D6600A50FBE1FEB85F0E0EA17FB0718F0E0E0E1
:100D7600F0E03EC0EE81E695E695E6954E2FEE81D3
:100D8600E77009F04F5FEF81E030A1F0A985BA85E1
:100D9600EC93A885EB85EA1BF0E0DF01EF81F0E03C
:100DA6000E940C09DF01E42FF0E00E940C09E00F1D
:100DB600F11F1EC09801E52FF0E00E0F1F1FA8853A
:100DC600AF5FA887A150EB85AE1760F4F9012F5FDE
:100DD6003F4FA491B0E0E42FF0E00E940C090E0F03
:100DE6001F1FEDCFF901E491A985BA85EC93F801AF
:100DF6000E944C092C960895E0E0E0933B05A091F3
:100E06003C05BB270E94E108F0E0AE0FBF1FE09152
:100E16004005F0E0AE0FBF1F6DDFE0933C0508957F
:100E2600AA9321970E94D508309709F455C0AF813F
:100E3600AA3009F44FC0EF81EA93DE0117966DDF01
:100E4600AF01309709F44AC0E0913F05AE81EA0F41
:100E56003E2FA0913B05BB27F0E0EA0FFB1F8F0159
:100E66000535E0E01E0718F0032F1127C5DFE091D6
:100E76003B05EA93E0913C05EA93E885EA930E94F4
:100E8600E108EA93E1E0EA935A934A93A7E03CDD4E
:100E9600E0913B05AE81EA0FEA93E0913C05EA93C7
:100EA600E0913F05EA930E94E1080E94E808E0917C
:100EB6003B05EA93A0913C050E94E108EA0FEA93FC
:100EC6003A93E09140050E94E808E4E5F0E0E01777
:100ED600F10711F491DF02C000933B050E944C0913
:100EE60028960895BA93AA931A93EC81EA93AC8153
:100EF6000ED0A981BA81ED91A983BA831E2FE03065
:100F060019F0A12F8DDFF5CF18810C94D307AA9382
:100F1600A981BB27DADEE0933B05A881BB27EADE81
:100F2600E0933C050C94DE07BA93AA93A991B99174
:100F3600E991F99130962AF4E095F09531966DE2B3
:100F46006D93E89480E197E20DD088EE93E00AD0A5
:100F560084E6992707D08AE005D06E2F10D0662741
:100F66006C9308956627E817F90720F06395E81B48
:100F7600F90BC9F7662311F416F008956894605DBD
:100F86006D930895BA93AA93B981A881109631F00A
:100F9600FC81EB816A8161931197E9F7EB81FC8112
:100FA60025960895AA93E881F0E0E059FD4FA491B3
:100FB600E9810E94FC0822960895AA931A93E98172
:100FC600E73011F0EA3019F41091390509C0E9301B
:100FD60019F410913A0504C0E830A1F410914905BE
:100FE600E0913A05E03049F0103019F0EFEF188142
:100FF60029C0EA81E095188125C0103019F4E0E097
:10100600188120C0EA8118811DC0BA93AA93EA818B
:10101600E13021F4E881F981E49114C0E23029F449
:10102600A881B9810E941C090DC0E33041F4A88152
:10103600B981E0915205F0915305099503C0A88145
:10104600B981EC9123960895AA93EB81E03029F4B7
:10105600E881A981BA81EC9314C0E23031F4E881C9
:10106600A981BA810E9430090CC0E33051F4E981AC
:10107600FA81FA93EA93AA81E0915405F091550515
:10108600099524960895A6E00A9FF001EA5AFA4FB8
:10109600DF01E32FF0E0EE0FFF1FAE0FBF1F0E9430
:1010A60014090E944E0908950E943004EFE0EA9365
:1010B600E4E1EA93089500E010E02FEF3FEF40E00F
:1010C60050E00895FA93EA93AFEFBFEF0C94220233
:1010D6000E94E4019F01A8ECB0E00E94F208EFEF45
:1010E600FFEFE217F3070895A2E7B5E0ED91FD9152
:1010F6003196FE93EE933197EC58FA4F0895E093AC
:101106006400E09165000895EA0FFB1FEE83FF83FC
:101116000895EC85EA93EF81F8853196EF83F88799
:101126003197FA93EA93A0E00C9427080A93A889CA
:101136000C944F03EC85EA93EF81F8853196EF83A3
:10114600F8873197089566277727DF01CB010C943E
:1011560008085A93AA850C94E0070A930395E88930
:10116600EA935A9308955E2FEC85EA93AF81B8858A
:10117600882799270E9408081E2E08950A9303952A
:10118600E889EA93EE85EA93E985FA853196E98757
:10119600FA873197D8CFBA93AA93A881B9810E94CA
:1011A600410908950E944509E0913D05F0913E05EB
:1011B6000895F8010F5F1F4F04900895E0913D05D3
:1011C600F0913E053196E4910895EA93E0E0EA93C2
:1011D600E0E0F0E0FA93EA93A9E00C948704109615
:1011E60039F080ED97E00197F1F7A8951197C9F7C7
:1011F6000895EE230E2EEA2F19F0EE0F0A94E9F762
:101206000895EE230E2EEA2F19F0E6950A94E9F7D3
:101216000895FA9FF02DEB9FF00DEA9FE02DF10D5A
:101226000895ED91FC9111970895119602D0FE2F25
:101236001197E199FECFFF93FFB7F894AEBBBFBB02
:10124600E09AEDB3FFBFFF91089507D01196EF9393
:10125600EF2F03D0EF9111970895E19B02C0A89557
:10126600FCCF9FB7F894AEBBBFBBE09A8DB3E8172F
:1012760019F0EDBBE29AE19A9FBF089500240A1681
:101286000B0608955A934A933A932A931A930A930C
:1012960008955D814C813B812A81198108810895D9
:00000001FF
